:020000040000FA
:10000000A8030120F1020000F9020000FB02000039
:10001000FD020000FF0200000103000000000000DC
:1000200000000000000000000000000003030000CA
:100030000503000000000000070300009519000000
:100040000B0300000D0300000F030000110300006C
:1000500013030000D91B0000170300001903000060
:100060001B0300001D0300001F030000210300000C
:1000700023030000250300002703000029030000DC
:100080002B0300002D0300002F03000031030000AC
:10009000330300003503000037030000390300007C
:1000A0003B0300003D0300003F030000410300004C
:1000B000430300004503000047030000490300001C
:1000C0004B0300004D0300004F03000051030000EC
:1000D00053030000550300005703000059030000BC
:1000E0005B0300005D0300005F030000610300008C
:1000F000630300006503000067030000690300005C
:100100006B0300006D0300006F030000710300002B
:1001100073030000750300007703000079030000FB
:100120007B0300007D0300007F03000081030000CB
:10013000830300008503000087030000890300009B
:100140008B0300008D0300008F030000A903000053
:100150000000000000000000AB030000AD03000041
:10016000AF030000B103000000000000B303000073
:10017000B5030000B7030000B9030000BB03000093
:10018000BD030000BF030000C1030000C303000063
:10019000C5030000C7030000C9030000CB03000033
:1001A000CD030000CF030000D1030000D303000003
:1001B000D5030000D7030000D9030000DB030000D3
:1001C000DD030000DF030000E1030000E3030000A3
:1001D000E5030000E7030000E9030000EB03000073
:1001E000ED030000EF030000F1030000F303000043
:1001F000F5030000F7030000F9030000FB03000013
:1002000000F002F800F051F80AA090E8000C8244D7
:100210008344AAF10107DA4501D100F046F8AFF2B4
:10022000090EBAE80F0013F0010F18BFFB1A43F0D4
:1002300001031847003E0000203E0000103A24BF92
:1002400078C878C1FAD8520724BF30C830C144BF3B
:1002500004680C607047000000230024002500267D
:10026000103A28BF78C1FBD8520728BF30C148BF19
:100270000B607047642900F09581732900F08D842C
:10028000002070471FB503F003FB9DE8030000F05A
:10029000B9FB00F097FB04000020002103F0E2FA14
:1002A000401C60601FBD10B510BD00F01FFD114661
:1002B000FFF7E8FF02F0D0FE00F03DFD03B4FFF7CA
:1002C000F2FF03BC00F06EFDEFF3108072B67047D2
:1002D000EFF310807047EFF3108062B6704730BFC5
:1002E000704780F311887047EFF31180704700006A
:1002F0004548804745480047FEE7FEE7FEE7FEE742
:10030000FEE7FEE7FEE7FEE7FEE7FEE7FEE7FEE7C5
:10031000FEE7FEE7FEE7FEE7FEE7FEE7FEE7FEE7B5
:10032000FEE7FEE7FEE7FEE7FEE7FEE7FEE7FEE7A5
:10033000FEE7FEE7FEE7FEE7FEE7FEE7FEE7FEE795
:10034000FEE7FEE7FEE7FEE7FEE7FEE7FEE7FEE785
:10035000FEE7FEE7FEE7FEE7FEE7FEE7FEE7FEE775
:10036000FEE7FEE7FEE7FEE7FEE7FEE7FEE7FEE765
:10037000FEE7FEE7FEE7FEE7FEE7FEE7FEE7FEE755
:10038000FEE7FEE7FEE7FEE7FEE7FEE7FEE7FEE745
:10039000FEE7FEE7FEE7FEE7FEE7FEE7FEE7FEE735
:1003A000FEE7FEE7FEE7FEE7FEE7FEE7FEE7FEE725
:1003B000FEE7FEE7FEE7FEE7FEE7FEE7FEE7FEE715
:1003C000FEE7FEE7FEE7FEE7FEE7FEE7FEE7FEE705
:1003D000FEE7FEE7FEE7FEE7FEE7FEE7FEE7FEE7F5
:1003E000FEE7FEE7FEE7FEE7FEE7FEE7FEE7FEE7E5
:1003F000FEE7FEE7FEE7FEE7FEE7FEE70448054905
:10040000054A064B70470000B91B000001020000BE
:10041000A8010020A8030120A8010120A8010120B3
:1004200010B500F0CFFA001D10BD00BF3934000038
:1004300070B5064600F0C2FA056806F10B0020F020
:100440000704B4429CBF002070BD2B466A68BAB155
:100450001068A04210D304F1080188423CBF5068E4
:10046000586007D35168101941601168091B016079
:1004700058601460101D70BD13465268002AE7D101
:100480002146284600F0AAFA0028DED170BD70B5DA
:100490000446051F00F092FA0068002C14BF44685F
:1004A00070BD002C18BFAC423CBF20466468F8D336
:1004B00001680A18AA4218BF456003D12A68054698
:1004C0001144016028684119A1421CBF6C6070BDD5
:1004D0006168696021680844286070BD0FB41CB56C
:1004E000074B06AA7B4469460090059800F02BFB59
:1004F0000020694600F03AFB1CBC5DF814FB0000CC
:100500008506000070B5044685690068C10601D5FE
:10051000302600E02026C00707D070BDD4E90121B5
:1005200030469047206A401C20626D1EF6D570BD93
:1005300070B5044685690078C00707D170BDD4E95D
:10054000012120209047206A401C20626D1EF6D5B4
:1005500070BD70B50C460546012A05D02878800686
:1005600000D5EA69002302E0012305E05B1C934209
:1005700002D2E05C0028F9D1A869E618C01AA86187
:10058000286A184428622846FFF7BCFF04E0D5E932
:10059000012114F8010B9047B442F8D32846FFF725
:1005A000C7FF70BD2DE9F04106460024106875298B
:1005B000314616A510D0AFF30080002802DA404281
:1005C00013A507E031688A0701D512A502E04907A3
:1005D00004D511A5012401E0AFF3008000210A2217
:1005E00006F1240709E0B0FBF2FCB0FBF2F302FBDA
:1005F0001C00303078541846491C0028F3D123469B
:100600002A463046BDE8F04100F03FBA0000000045
:100610002D0000002B000000200000002DE9F05FFD
:10062000894604464FF0000ADFF824B1FB44C0F8C5
:1006300020A02046E168884700287DD0252806D0E4
:10064000D4E901219047206A401C2062F1E700258F
:100650005F462046E16888472028064607DB312EA2
:1006600005D2B81910F8200C08B10543F1E7A80726
:1006700001D525F00405C4F81CA00027C4F818A073
:100680002A2E09D0304601F06DFB38B304EB870801
:10069000303EC8F8186019E059F8041B204604EBF6
:1006A00087029161E1688847012F064618D1E06909
:1006B000002820DA25F020051DE0D8F8180000EB0E
:1006C000800006EB40003038C8F818002046E1688A
:1006D0008847064601F046FB0028EED1012F0AD0DC
:1006E0002E2E08D12046E16888477F1C0646022F3F
:1006F00045F02005C4DBA069002803DA404245F03C
:100700000105A061E80701D025F01005A6B1A6F10A
:100710004100192802D8203645F400654A46314682
:10072000204625604D46FFF7A5FD60B1012807D0A2
:10073000ED1D25F0070000E007E000F1080978E76B
:1007400005F1040975E730467AE7206ABDE8F09FB5
:10075000A83900002DE9F04791460F46804604462F
:10076000002614F8015B2DB1FFF75AFE0068405DCA
:10077000C007F6D12B2D02D02D2D18D0641E4A466D
:100780003946204600F00DFA27B13968A14201D15F
:10079000C7F800804FF0020471050BD540420028D5
:1007A00003DD00F013F90460A007BDE8F08746F40C
:1007B0008066E4E70028F8DA00F008F904606FF0DA
:1007C0000040F2E730B505460B462A4613F8014BC8
:1007D00012F8010B08B1A042F8D01CB1002802D0D9
:1007E0006D1CF1E7284630BD2DE9F0410E46054667
:1007F000002400E0641C285D00F03AF90746305DF3
:1008000000F036F9381A02D1295D0029F2D1BDE88D
:10081000F081421E12F8013F002BFBD111F8013B81
:10082000002B02F8013BF9D1704710B5203AC0F017
:100830000B80B1E81850203AA0E81850B1E81850E1
:10084000A0E81850BFF4F5AF5FEA027C24BFB1E81E
:100850001850A0E8185044BF18C918C0BDE810408F
:100860005FEA827C24BF51F8043B40F8043B08BF98
:100870007047D20728BF31F8023B48BF11F8012B5F
:1008800028BF20F8023B48BF00F8012B70474FF00B
:10089000000200B5134694469646203922BFA0E8D0
:1008A0000C50A0E80C50B1F12001BFF4F7AF0907DC
:1008B00028BFA0E80C5048BF0CC05DF804EB8900CD
:1008C00028BF40F8042B08BF704748BF20F8022B10
:1008D00011F0804F18BF00F8012B704710B5044687
:1008E00010F0030F08BF11F0030F40F015804FF018
:1008F000013E121FC0F20E8051F8043BA3EB0E0C18
:100900002CEA030C1CEACE1C08BF40F8043BF0D0D4
:10091000A1F1040102F10402521E08DB11F8013BAF
:10092000002B00F8013BF7D1114600F089F9204671
:1009300010BD00004FF0013C50F8042B51F8043B6F
:100940009A4221D1A2EB0C03934313EACC1317D1A3
:1009500050F8042B51F8043B9A4215D1A2EB0C033A
:10096000934313EACC130BD150F8042B51F8043BFA
:100970009A4209D1A2EB0C03934313EACC13DBD0C8
:100980004FF00000704700BFD01A01BAB1FA81F1F0
:1009900001F0180122FA01F0CB40C1F12001DBB2D5
:1009A000C0B2C01A2CFA01F3D11A914311EAC31153
:1009B000E6D17047704770477047000000487047A5
:1009C000500100200048704768010020004870472F
:1009D00048010020704770477047704738B504469B
:1009E0000A4600206946AFF30080002808BF38BDE2
:1009F00002460099204600F049F9012038BD012047
:100A000000F06CB9F8B5AFF30080054600200C4645
:100A1000102000BF0646A819A0420DD932466946EB
:100A20000020AFF30080070008BF00F057F90098DE
:100A3000A04218BF0546C419FFF7C0FF056007466E
:100A4000F01D20F007004619284600F00AF8B442CD
:100A500008BFF8BDA21B31463868BDE8F84000F079
:100A600015B900210160C0E90110704710207047DE
:100A700010B50446FFF7D4FC0068005DC00602D53F
:100A800004F1200010BD204610BD2DE9F0470D46B1
:100A900099469246044600F124080168880604D568
:100AA000E06921F01001216000E00120A84201DD91
:100AB000471B00E00027A1697A1902EB0900081A18
:100AC000A0612078C00602D42046FFF71BFD002657
:100AD00008E0D4E901211AF806009047206A401C7A
:100AE000761C20624E45F4DB2078C0060AD52046ED
:100AF000FFF708FD06E0D4E9012130209047206A85
:100B0000401C2062381EA7F10107F4DC07E0D4E99D
:100B1000012118F805009047206A401C2062281E19
:100B2000A5F10105F3DC2046FFF702FD2078000661
:100B300002D50220BDE8F0870120FBE701694A1CCD
:100B400002610878704700B58FB0CDE9013100210E
:100B5000059105497944CDE9031011466846FFF730
:100B60005DFD0FB000BD0000E5FFFFFF0A6802F861
:100B7000010B0A60704710B5436913B1AFF30080F1
:100B800001E0FFF7E6FC012010BD127800F124011E
:100B90000A7000224A700122EDE711684FF0FF321F
:100BA000E9E72DE9F05F824615468B4600270AF1FA
:100BB0000104B9460078302801D09DB113E014F843
:100BC000010B0127782803D0582801D045B10AE04D
:100BD0000DB1102D07D1002714F8010B102502E0EC
:100BE000082500E00A250026B0460EE005FB0800B7
:100BF00005FB06F101271FFA80F801EB1046B6F558
:100C0000803F00D3B94614F8010B294600F058F88C
:100C10000028EBDABBF1000F05D00FB1641E00E035
:100C20005446CBF80040B9F1000F06D0FFF7CEFED6
:100C300002210160C81EBDE8F09F48EA0640FAE7BD
:100C40004FF000020429C0F0128010F0030C3FF4B2
:100C500020AECCF1040CBCF1020F18BF00F8012B40
:100C6000A8BF20F8022BA1EB0C01FFF712BE5FEA30
:100C7000C17C24BF00F8012B00F8012B48BF00F80D
:100C8000012B704700487047480100200346406828
:100C90008C46002818BF88423CBF03464068F8D302
:100CA00018681844884207D00CF1030020F00700B0
:100CB000001D411A521A0146081D0A60FFF7E7BBE2
:100CC0003A2800D2303820F02002412A01D3A2F184
:100CD0003700884201D34FF0FF30704710B500F065
:100CE00039F8BDE8104000F02FB870477546FFF79F
:100CF000C9FFAE4605006946534620F00700854609
:100D000018B020B5FFF77AFBBDE820404FF0000691
:100D10004FF000074FF000084FF0000B21F00701E3
:100D2000AC46ACE8C009ACE8C009ACE8C009ACE826
:100D3000C0098D46704710B50446AFF300802046C9
:100D4000BDE81040FFF7BABA002801D000F02AB879
:100D50007047000010B5012805D0002103A000F065
:100D600027F8012010BD09A1F8E7000053494752B8
:100D7000544D454D3A204F7574206F66206865616B
:100D800070206D656D6F7279000000003A20486533
:100D90006170206D656D6F727920636F727275700E
:100DA0007465640001491820ABBEFEE7260002000E
:100DB00070B505460C460A2000E06D1C00F011F8E5
:100DC00035B128780028F8D102E0641C00F009F859
:100DD00014B120780028F8D1BDE870400A20AFF3A4
:100DE000008008B569468DF800000320ABBE08BD41
:100DF000002100E0491C8142FCD37047D0F8003448
:100E000012F0010F14BF0B438B43C0F8003412F0F3
:100E1000020FD0F8202414BF114322EA0101C0F8C8
:100E2000201470472DE9F00301264FF0000C032534
:100E3000C2F3411706FA0CF40C4211D0D0F8C48F5B
:100E40004FEA4C0405FA04F928EA0908C0F8C48FEF
:100E5000D0F8C48F07FA04F448EA0404C0F8C44F79
:100E60000CF1010C0CF0FF0CBCF1080FE2D3D0F830
:100E700000C512F0010F14BF4CEA010C2CEA010C62
:100E8000C0F800C5D0F804C512F0020F14BF4CEA38
:100E9000010C2CEA010CC0F804C5D0F808C512F00A
:100EA000040F14BF4CEA010C2CEA010CC0F808C571
:100EB000D0F818C512F0080F14BF4CEA010C2CEA48
:100EC000010CC0F818C512F0100FD0F83C2514BF63
:100ED0000A438A43C0F83C25D0F80C2513F0010FD3
:100EE00014BF0A438A43C0F80C25D0F8102513F02C
:100EF000020F14BF0A438A43C0F81025D0F8142506
:100F000013F0040F14BF0A438A43C0F81425D0F825
:100F10001C2513F0080F14BF0A438A43C0F81C2590
:100F2000D0F8442513F4007F14BF0A438A43C0F865
:100F30004425D0F8402513F4407F14BF0A438A4368
:100F4000C0F84025D0F82825002B0CBF114322EA19
:100F50000101C0F82815BDE8F00370470E4AC0F340
:100F60000741D26E01238B401A420C4A1ABF02EB92
:100F7000C101496852F83110020AD1F82C354FF0FE
:100F80000F0C0CFA02FC00F00F0023EA0C03904057
:100F90001843C1F82C05704700E00F40E83B000003
:100FA00050F82100704730B50C4605460022FFF787
:100FB00025FF21462846BDE8304008230122FFF7DF
:100FC00031BF30B50C46054608230122FFF72AFF42
:100FD00021462846BDE830400122FFF70FBF30B55B
:100FE0000C4605460222FFF709FF21462846BDE8C8
:100FF000304009230122FFF715BF30B50C460546E6
:101000000222FFF7FBFE21462846BDE830400823B8
:101010000122FFF707BF30B50C4605460222FFF755
:10102000EDFE21462846BDE8304008230122FFF7A7
:10103000F9BE30B50C4605460222FFF7DFFE214619
:101040002846BDE8304008230122FFF7EBBE40F8F8
:10105000212070472DE9F04104460E4600BF1D488F
:1010600000F07AF80028FAD100222146194800F051
:10107000BBF83146174800F079F80721154800F011
:1010800071F800BF134800F061F80028FAD1114848
:1010900000F073F8C7B24FF47A70FFF7A9FE01228F
:1010A00021460C4800F0A0F807210A4800F05AF841
:1010B00000BF084800F04AF80028FAD1054800F0BF
:1010C00053F8C5B24FF47A70FFF792FE2846BDE898
:1010D000F0810000000002402DE9F04104460F4677
:1010E000154600BF184800F037F80028FAD1002252
:1010F0002146154800F078F83946134800F036F8D4
:101100000321114800F02EF800BF0F4800F024F82A
:101110000028FAD10C4800F030F8C6B229460A4837
:1011200000F024F80521084800F01CF800BF06482C
:1011300000F012F80028FAD1034800F01EF8C6B2F9
:101140003046BDE8F081000000000240406810F029
:10115000400018BF01207047406810F0010018BF20
:101160000120704741607047806870478160704718
:10117000016A41F0100101627047406810F0010FF0
:1011800005D110F0120F1CBF00F01C0070470020AA
:1011900070470000036A43F010030362002A14BF83
:1011A0000E4A0F4A02EB820301EB830302EB820239
:1011B00092005B1EB3FBF2F2521EC260D0F8C02F49
:1011C00012F0010F08BF7047064A1144521CB1FBD0
:1011D000F2F1491E41F08001C1607047801A06009B
:1011E000A08601007F47370142EA41010160704754
:1011F00010B53820214948752149224800F016FAD7
:1012000021490860084600684FF47A71B0FBF1F498
:10121000204600F0B9FB00F0A9FB00F0AEFB00F0A7
:101220003DF900F07BF900F0C5F9152000F038F821
:101230005021164800F07FFD00F064F800F098F8A7
:1012400013490860032000F085F8E021152000F024
:1012500091F803210F2000F08DF800F069F80D4996
:101260000860152000F056F80B4908600F2000F0C8
:1012700051F80A49086000F0CBF810BD6800002062
:10128000002D3101500500F15400002000C0004045
:101290005C00002058000020640000206000002056
:1012A0001649042804BF086840F4803018D0052887
:1012B00004BF086840F4003012D0062812D00F286E
:1012C00015D0102838BF7047103800F01F010122D8
:1012D00002FA01F142090A4850F822000160704701
:1012E00008607047086840F48020086070474FF03D
:1012F000E020016941F002010161704724ED00E046
:10130000343D000010B5FEF7E6FF002818BF0120AD
:1013100010BD0000054A20F00301515809688007FC
:10132000C00E21FA00F0C0B270470000983C0000E7
:1013300006480068064A00F4E061002052F82030B8
:101340008B421CBF401C0828F8D370470CED00E00E
:10135000783C0000044951F82000044940F0FD7039
:1013600040F0806008607047783C00000CED00E0C1
:10137000FEF7BABF084A20F00303D258136880076B
:10138000C00E4FF0FF0C0CFA00FC23EA0C0301FA2C
:1013900000F0184310607047983C00000844016852
:1013A0006FF352011143016012F0020F14BFB0211C
:1013B0008C21016214BF4FF4306140F60C01416290
:1013C0007047425842F00102425070470844016899
:1013D00011F0020F14BF5108511E01617047002A1D
:1013E000826814BF114322EA01018160704721F035
:1013F0003F031844036813F0020F18BF5208036933
:101400009A1A11F0010F14BFC26182617047000087
:1014100010B51D4800F080FA1C4800F07DFA00BFAE
:101420001A4800F08DFA0028FAD020211848FFF75A
:10143000C8FD0A23022220211548FFF7F3FC1548B6
:10144000FFF78CFD20211248FFF7E5FD0222D101B4
:101450001148FFF7A3FF4FF47A624FF480710E48F2
:10146000FFF7B4FF4FF47A7240F207110A48FFF712
:10147000BEFF012280210848FFF7B1FF4FF48071C1
:101480000548FFF79EFF10BD004000F0090800F07E
:1014900000100640061409000080024010B51B48E9
:1014A00000F03AFA00BF194800F04AFA0028FAD0D2
:1014B0001648C01C00F030FA00BF1448C01C00F0F1
:1014C0003FFA0028F9D01148C01D00F025FA00BFEE
:1014D0000E48C01D00F034FA0028F9D001210C4854
:1014E000FFF76FFD01210B48FFF76BFD0221094853
:1014F000FFF767FD03210848FFF755FD0A23012286
:1015000003210548FFF78EFC10BD0000050800F020
:10151000005002400040064000D0034010B51E4875
:1015200000F0FAF91D4800F0F7F91D48FFF716FD25
:101530001C48FFF713FD04211B48FFF75EFD08213F
:101540001948FFF74CFD0122184801681848FFF7B9
:1015500021FE1748FFF70CFEFF220C212220FFF787
:10156000BBFD044600220D212220FFF7B5FD0446F5
:1015700000220E212220FFF7AFFD044600220321A6
:101580001820FFF7A9FD0446FF2201211820FFF7CC
:10159000A3FD044610BD0000002000F0010800F08B
:1015A00002080100020C010000500040540000201D
:1015B0000000024010B5144800F0AEF9134800F0E6
:1015C000ABF900BF114800F0BBF90028FAD00120A8
:1015D000FFF7C4FC40F20140FFF7C0FC03214FF0CD
:1015E0004020FFF726FD60234FF4E13208480168F0
:1015F000084800F064FB08A000F0A6FB20220121AF
:10160000044800F093FB10BD001800F0000800F043
:101610005400002000C000400D0A48656C6C6F2C1F
:1016200020776F726C64210D0A0000002DE9F00331
:10163000AF4D02462868AF4B1840A0F18053B3F578
:10164000A02359D002F03809DFF8AC82C2F3841429
:10165000B9F1100F25D0B9F1300F04BF47F2305067
:101660004FF400130DD04FF03800904304BF4FF4F7
:101670000040C30105D012F0380F1CBF0020034604
:1016800013D09E4F12F4605F4FF0000618BF002287
:101690002CD057F8324044457DD307EBC202526844
:1016A000E1E0002340461524EBE7A4F109001228ED
:1016B00022D29348D5F87CC04FF04C7350F82400E8
:1016C0002CF01C0C072CA8BF4CF0100CC5F87CC0EB
:1016D0002E6D4FF4002C16F4807FD2D1BCF1010C9A
:1016E0000AD02E6D16F4807FF8D0CAE712F0380FBA
:1016F00018BFB9F1100F04D0BDE8F0034FF000009F
:101700007047C2F30268DFF8FCC14FF0000257F8DF
:101710003290E14503D307EBC202526803E0521C4A
:10172000062AF4D33246C5F8C020D5F8B020DFF839
:10173000D8C102EA0C0242F00042C5F8B020DFF83E
:10174000CCC1A4F109024C1E5CF828C0A444BCFB27
:10175000F1FCD5F8B0101943C5F8B01008EBC8017A
:1017600001EB41046A4902EB420201EBC40101EBC7
:1017700082046468C5F86441D5F864416FF0FF08DD
:1017800008EB0C2C44EA0C0CC5F864C151F822108B
:10179000D5F8602100E061E002F400021143C5F8D1
:1017A0006011D5F86011D5F86021C1F38921C2F329
:1017B0000904D5F86421C2F3042202F1010CD5F822
:1017C000642102F01F02521CB0FBF2F04A09C2F180
:1017D00000084443424301EB481104EB52124843D2
:1017E00002EB9020B0FBFCF041080846002257F8BD
:1017F00032C0844503D307EBC200466802E0521CA6
:10180000062AF4D3C5F8C060D5F8600110F4000FC3
:101810001DBFD5F8B00040F08040C5F8B000D5F845
:10182000600104BF40F40000C5F860014FF40040BF
:10183000D5F8682112F0010F02D1401E0028F7DC14
:10184000002808BF002148D0D5F8B000184340F068
:10185000010040F01040C5F8B0003EE0521C062ADE
:10186000FFF417AF3246C5F8C020D5F8602122F446
:101870000002C5F86021D5F8B020DFF898C002EA70
:101880000C0242F00042C5F8B020002908BF4FF01A
:10189000000C0AD0B0FBF1FCBCF1000F18BFACF19A
:1018A000010C0CF10101B0FBF1F10846002257F8E0
:1018B0003240844203D307EBC200466802E0521C68
:1018C000062AF4D3C5F8C060D5F8B00043EA8C22EC
:1018D000104340F00040C5F8B000D5F8B00020F447
:1018E0007000C5F8B000BDE8F0030846704700007E
:1018F00000E00F400000FF700024F400A83F00004B
:101900008C3D000040787D0100FC0FE0843D00002C
:10191000F83D0000FF0300EFC0F307230749C0B202
:10192000194401F07043C1F3130143EA411141EA44
:10193000800040F0007001220260704700E60F4016
:10194000C0F307220849C0B2114401F07042C1F34C
:10195000130142EA411141EA800040F00070006842
:10196000002818BF0120704700EA0F404FF0E02028
:10197000016941F00501016170474FF0E020016904
:1019800041F00201016170474FF0E021401E4861C3
:1019900070470000F0B5C3B05E480068401C5D4968
:1019A00008605D48006810B35C480068A0B908464C
:1019B00000684FF47A71B0FBF1F201FB1204554854
:1019C0000068B0FBF1F523462A4655A103A8FEF7AF
:1019D00085FD03A800F0B8F950480068401C4F4945
:1019E0000860012211465748FFF731FB2BE04B48B6
:1019F000006800B3494800684FF47A71B0FBF1F217
:101A000001FB120445480068B0FBF1F5414800684D
:101A1000B0FBF1F201FB12063E480068B0FBF1F7A3
:101A200033463A4648A103A8CDE90054FEF756FDD7
:101A300003A800F089F9002038490860002201213C
:101A40004048FFF704FB4F48007B70B14E480068E8
:101A500018B14E480068032804D04A480068401E68
:101A600048490860474801F0AFFE4948006820B186
:101A700047480068401E464908604648006820B153
:101A800044480068401E434908604348008828B124
:101A900041480088401E4049088014E04FF47A70A5
:101AA0003D49088001203D4908703748006810B161
:101AB0003648006820B13A480068401C3849086040
:101AC000374800F033FC3748008828B13548008893
:101AD000401E3449088009E04FF4FA70314908800B
:101AE0003148007880F001002F4908702F480088A5
:101AF00028B12E480088401E2C49088008E04FF489
:101B0000FA702A4908802A4801682A4801F086FEAE
:101B100043B0F0BD4C000020280000205000002001
:101B2000555352305F425554544F4E207072657376
:101B30007365642061742025642E25303364730A34
:101B40000000000000400640555352305F4255549B
:101B5000544F4E2072656C6561736564206174201A
:101B600025642E25303364730A4475726174696F7D
:101B70006E2074696D653A2025642E2530336473B8
:101B80000A0A0000F80000200400002000000020E5
:101B9000380000203C0000203000002034000020ED
:101BA000980000202E000020330000202C00002090
:101BB000080000200C0000200448006840F4700079
:101BC00002490860024803490860704788ED00E058
:101BD0000024F4009400002030B5C3B00020019030
:101BE0004FF4807103A8FEF752FE0121284800F04F
:101BF000A6F805462946264800F09BF814E024483C
:101C000000F04CF8C0B2029002A903A8FEF701FE52
:101C10009DF808000D2800D10BE01D4800F04AF89F
:101C200010B9052000F0F8FB194800F043F800282F
:101C3000E5D100BF174A01A903A801F00BFC60B170
:101C4000002405E0134951F82400FEF720FC641C31
:101C500001988442F6DB43B030BD0E49019800F094
:101C600087FC002405E00B4951F82400FEF70FFC27
:101C7000641C01988442F6DB002202210648FFF72B
:101C8000E6F9002202210448FFF7E1F900BFE2E78C
:101C900000C000400801002000400640816911F0AA
:101CA000100FFBD100687047826912F0200FFBD142
:101CB000016070478069012121EA10107047D0F857
:101CC00018C01CF0080FFAD1D0F82CC02CF0100C62
:101CD000C0F82CC0D0F830C02CF0010C2CF4407CA3
:101CE000C0F830C0D0F830C0B1EB021F34BF4CF0A8
:101CF000200C2CF0200CC0F830C038BF5208C900AE
:101D0000B1FBF2F1491C49088A09426201F03F0126
:101D10008162C36200218161C16A41F01001C16228
:101D2000016B40F20132114301637047114341637B
:101D3000704741647047826B11438163704700298B
:101D400014BF006CC06B704710B5044604E014F873
:101D5000011B0348FFF7A8FF20780028F7D110BD2A
:101D600000C0004030380A2801D20120704700200E
:101D700070470000F0B589B00446802600270A218C
:101D8000206890FBF1F201FB12000190206890FBAB
:101D9000F1F00290606890FBF1F201FB12000390F9
:101DA000606890FBF1F00490A06890FBF1F201FBF9
:101DB00012000590A06890FBF1F0069015200790A6
:101DC0000A200890002527E0022D01D0042D01D122
:101DD000802000E000200746002206212220FFF795
:101DE0007BF901A850F825000D49085C40EA07027C
:101DF00005212220FFF770F90A48007840F003001F
:101E000000EA060206212220FFF766F94FF47A70F5
:101E1000FEF7EEFF6D1C7610082DD5DB09B0F0BD86
:101E2000680000200C00002038B504460D462068EC
:101E3000009008A12846D4E90132FEF74FFB207B31
:101E400008B10CA000E00DA001462846FEF7E1FC19
:101E500038BD0000416C61726D20253032643A2536
:101E60003032643A253032640A456E61626C6564D2
:101E70003A200000547275650A00000046616C73D8
:101E8000650A00007FB504460D46244B0FCB8DE854
:101E90000F000626207B58B1A068A968884207D1A8
:101EA00060686968884203D120682968884200D048
:101EB0007FBD02201A49086000201A4908601A49AB
:101EC000086041F288301949086018E000F0AEFA65
:101ED0001748007818B12046FFF74CFF04E00022B5
:101EE00001211820FFF7F8F83DF81600642100F0F2
:101EF00043F8B01D072190FBF1F201FB12060B48DD
:101F0000006818B10B4800680028DFD000F016FB0D
:101F100000200649086000BFCAE70000403A000000
:101F200000000020080000200400002038000020ED
:101F3000330000202400002000210173082181606B
:101F40000221416000210160704710B5044600295C
:101F500009DB3B2907DC002A05DB3B2A03DC002BDD
:101F600001DB172B02DD4FF0FF3010BD21606260F6
:101F7000A3600020F9E7000070B504460D46DCB10F
:101F800014480068B0FBF4F632464FF480711248F2
:101F9000FFF71CFA0F480068B0FBF4F06421B0FBB7
:101FA000F1F6324640F207110B48FFF720FA012202
:101FB00080210948FFF713FA0848056000BF074869
:101FC00000680028FBD1002280210348FFF707FAB0
:101FD00070BD000054000020008002403C00002042
:101FE000F0B589B00446802600270A21E06890FBFE
:101FF000F1F201FB12000190E06890FBF1F0029019
:102000002069401C90FBF1F201FB12000390206953
:10201000401C90FBF1F00490606990FBF1F201FB31
:1020200012000590606990FBF1F090FBF1F201FB6A
:10203000120006906421606990FBF1F00A2190FB88
:10204000F1F201FB120007904FF47A71606990FB86
:10205000F1F00890002525E0022D01D0042D01D1DA
:10206000802000E000200746002206212220FFF702
:1020700033F801A850F825000C49085C40EA070233
:1020800005212220FFF728F80948007806EA000217
:1020900006212220FFF720F84FF47A70FEF7A8FE01
:1020A0006D1C7610082DD7DB09B0F0BD680000204C
:1020B0000C000020F0B587B00446802600270A21D6
:1020C000206890FBF1F201FB12000190206890FB68
:1020D000F1F00290606890FBF1F201FB12000390B6
:1020E000606890FBF1F00490A06890FBF1F201FBB6
:1020F00012000590A06890FBF1F00690002525E005
:10210000022D01D0042D01D1802000E000200746DF
:10211000002206212220FEF7DFFF01A850F825004B
:102120000C49085C40EA070205212220FEF7D4FF93
:102130000948007806EA000206212220FEF7CCFFBB
:102140004FF47A70FEF754FE6D1C7610062DD7DB27
:1021500007B0F0BD680000200C00002038B5044630
:102160000D46E06800902069431C03A1284662697F
:10217000FEF7B4F938BD0000446174652025642D74
:10218000253032642D253032640A000038B504460B
:102190000D462068009003A12846D4E90132FEF7DD
:1021A0009DF938BD54696D6520253032643A25307B
:1021B00032643A253032640A000000002DE9F04F05
:1021C0008DB004460F4690469946DDE916AB189E41
:1021D0003022284901A8FEF728FB2760C4F80480B4
:1021E000C4F80890C4F80CA00020A061C4F810B096
:1021F0006661642196FBF1F201FB126139B1304650
:10220000F11706EB91718910A6EB810131B14FF402
:10221000C87196FBF1F201FB126109B9012100E0DE
:102220000021E161002507E001A850F8251004F124
:10223000200040F825106D1C0B2DF5DDE169606A6A
:1022400001446162002507E004F1200050F82500F8
:10225000A1690844A0616D1C2069A842F4DCE06813
:10226000401EA1690844A061204600F05FF80DB04F
:10227000BDE8F08F103A00002DE9FE4306460F46F8
:1022800015461C46002C03DB0B2D01DC002D03DA68
:102290004FF0FF30BDE8FE83642194FBF1F201FBB7
:1022A000124139B12046E11704EB91718910A4EB7A
:1022B000810131B14FF4C87194FBF1F201FB12417D
:1022C00009B9012100E000218846012D02D108F161
:1022D0001C0003E006F1200050F825008146012F84
:1022E00001DB4F4502DD4FF0FF30D3E7CDE900754C
:1022F0000294304696E80E00FFF760FF0020C9E721
:1023000010B50446002909DB3B2907DC002A05DB60
:102310003B2A03DC002B01DB172B02DD4FF0FF30E3
:1023200010BD21606260A3600020F9E710B501686C
:102330003C290DDB3C22016891FBF2F1426811441B
:1023400041603C22016891FBF2F302FB1311016032
:1023500041683C290DDB3C22416891FBF2F1826827
:10236000114481603C22416891FBF2F302FB13119E
:1023700041608168182914DB1822816891FBF2F111
:102380008269114481611822816891FBF2F1C2686F
:102390001144C1601822816891FBF2F302FB131112
:1023A0008160D0E9062101F26D118A4226DB416984
:1023B000491C4161002181610121C160002101614D
:1023C0006423426992FBF3F403FB14223AB141699E
:1023D000CA1701EB92729210A1EB82023AB14FF44C
:1023E000C873426992FBF3F403FB14220AB9012279
:1023F00000E00022C261C1691C31416200F120018C
:10240000D0E9032351F823108A4204DD0121C16081
:102410000169491C016110BD0349086000BF024900
:1024200009680029FBD170473800002010B500F082
:1024300085F800212220FEF70DFE34490870084679
:10244000007833490978884242D01420FFF7E4FF2E
:1024500000212220FEF7FEFD2C49087000222C48A6
:1024600001782A48007800F0B9FD2A490860012265
:10247000274801782548007800F0B0FD264908601B
:102480000122234801782148007800F0A7FD234964
:10249000086006221E4801781C48007800F09EFD66
:1024A0001F49086007221A4801781848007800F090
:1024B00095FD1C49086004221548017813480078EE
:1024C00000F08CFD18490860104800781049087029
:1024D00001211648FEF764FD1549086008460068AA
:1024E00014490968884210D00520FFF795FF10486D
:1024F000006818B901201049086002E000200E4968
:1025000008600B4800680B49086010BD42000020BD
:1025100043000020100000201400002018000020BC
:102520001C000020200000202400002000D00340D8
:102530004800002044000020280000200020064918
:1025400008600649086006490860064908600649AF
:102550000860064908607047100000201400002041
:10256000180000201C000020200000202400002073
:102570002DE9F041C4B005460C46BAA12068FEF72B
:10258000D9F9002812D1B8A0FFF7DEFBBC48FFF74D
:10259000DBFBBCA0FFF7D8FBC6A0FFF7D5FBD3A0A1
:1025A000FFF7D2FB002044B0BDE8F081DCA1206839
:1025B000FEF71AF900281DD1022D15D1DAA16068A5
:1025C000FEF712F980B94FF4FA60002101220B46A0
:1025D000CDE9002102900A46D548FFF7EFFDD5A0CE
:1025E000FFF7B2FB0020DEE7DBA0FFF7ADFB4FF00B
:1025F000FF30D8E7DDA12068FEF7F6F8002849D1C2
:10260000022D10D1DAA16068FEF7EEF848B1DAA128
:102610006068FEF7E9F820B1D9A16068FEF7E4F838
:1026200008B9012000E0002006463EB3D0A1606852
:10263000FEF7DAF838B904A9BD48FFF7A7FD04A8EA
:10264000FFF782FB18E0CCA16068FEF7CDF838B93F
:1026500004A9B748FFF782FD04A8FFF775FB0BE05C
:10266000C7A16068FEF7C0F830B904A9C648FFF7F3
:10267000DBFB04A8FFF768FB002094E7C3A0FFF78B
:1026800063FBCCA0FFF760FBD4A0FFF75DFB4FF02E
:10269000FF3088E7DBA12068FEF7A6F8002872D19A
:1026A000032D10D1B2A16068FEF79EF848B1B2A127
:1026B0006068FEF799F820B1B1A16068FEF794F860
:1026C00008B9012000E000200646002E73D001ABBF
:1026D00002AA03A9A06800F0F3FB002821D0CAA039
:1026E000FFF732FBA4A16068FEF77EF808B9CDA021
:1026F00000E062A00746A0A16068FEF775F808B97F
:10270000C8A000E05DA0804600974346C6A104A88B
:102710006268FDF7E3FE04A8FFF716FB4FF0FF30F9
:1027200041E793A16068FEF75FF890B9804801A97E
:102730000EC9FFF7E5FD28B1C6A0FFF705FB4FF076
:10274000FF3030E70020C7490860C7A0FFF7FCFA58
:102750002EE089A16068FEF747F8A8B90298421EEA
:102760007348039B0199FFF787FD28B1C6A0FFF7C7
:10277000EBFA4FF0FF3016E70120BA490860C6A017
:10278000FFF7E2FA14E022E07DA16068FEF72CF882
:1027900070B97D4801A90EC9FFF7D7FB28B1C6A0C3
:1027A000FFF7D2FA4FF0FF30FDE6C8A0FFF7CCFAF2
:1027B0000020F8E6FFE7CDA0FFF7C6FADAA0FFF7A2
:1027C000C3FAE8A0FFF7C0FA4FF0FF30EBE6F4A140
:1027D0002068FEF709F8002842D1022D10D164A12B
:1027E0006068FEF701F848B163A16068FDF7FCFF7F
:1027F00020B1ECA16068FDF7F7FF08B9012000E007
:102800000020064646B35AA16068FDF7EDFF30B9D7
:10281000002094490860E5A0FFF796FA16E056A15B
:102820006068FDF7E1FF30B901208E490860E4A03F
:10283000FFF78AFA0AE0DBA16068FDF7D5FF28B947
:10284000032088490860E34800F08CFF0020E2493B
:102850000860E2490860A6E6E1A0FFF775FAD3E157
:10286000DBE100003F000000417661696C61626C51
:102870006520636F6D6D616E64733A0A000000003D
:10288000EC3F000009676574203C54494D452F44D6
:102890004154452F414C41524D3E202020202020C4
:1028A0002020202020203A206765742073746174F2
:1028B00075730A0009736574203C54494D452F41D6
:1028C0004C41524D2F444154453E203C78783A7853
:1028D000783A78783E203A2073657420636C6F6391
:1028E0006B207374617475730A0000000972756E51
:1028F000203C54494D452F444154452F5354574192
:102900005443483E202020202020202020203A2010
:1029100072756E2066756E6374696F6E730A00005F
:10292000696E697400000000636C6F636B000000E7
:1029300098000020436C6F636B2072657365742090
:10294000746F20323030302D312D312D30303A300F
:10295000303A30300A00000055736167653A2069EB
:102960006E697420636C6F636B0A000067657400A6
:1029700074696D650000000064617465000000000A
:10298000616C61726D000000E800002055736167A2
:10299000653A206765742074696D6520202D20726A
:1029A000657475726E20636C6F636B2074696D65FE
:1029B0000A00000020202020202020676574206469
:1029C00061746520202D2072657475726E20636CB1
:1029D0006F636B20646174650A0000002020202072
:1029E00020202067657420616C61726D202D20723B
:1029F000657475726E20616C61726D2073746174A0
:102A000075730A0073657400496E76616C696420A1
:102A100074696D652F6461746520666F726D617491
:102A20000A0000007878000055736167653A2073EA
:102A30006574202573203C257378783A79793A7A41
:102A40007A3E2F3C257378782D79792D7A7A3E0A53
:102A500000000000496E76616C69642074696D65E0
:102A60000A00000000000020436C6F636B20746953
:102A70006D65207365742073756363657373667524
:102A80006C6C790A00000000496E76616C69642004
:102A9000646174650A000000436C6F636B206461BD
:102AA00074652073657420737563636573736675ED
:102AB0006C6C790A00000000496E76616C696420D4
:102AC000616C61726D2074696D650A00416C6172A0
:102AD0006D2074696D65207365742073756363651B
:102AE000737366756C6C790A00000000557361673A
:102AF000653A207365742064617465203C79656172
:102B0000722D6D6F6E74682D6461793E20202020D7
:102B10002020202D2073657420636C6F636B20640C
:102B20006174650A0000000020202020202020730E
:102B300065742074696D65203C68683A6D6D3A7300
:102B4000733E2F3C68682D6D6D2D73733E20202DD4
:102B50002073657420636C6F636B2074696D650A04
:102B600000000000202020202020207365742061B8
:102B70006C61726D203C68683A6D6D3A73733E2FDC
:102B80003C68682D6D6D2D73733E202D2073657428
:102B900020616C61726D2074696D650A000000002F
:102BA00072756E0063646F776E0000004469737025
:102BB0006C617920636C6F636B2074696D650A00CA
:102BC000446973706C617920636C6F636B2064611E
:102BD00074650A00F80000200400002008000020AE
:102BE00055736167653A2072756E20646174652063
:102BF000202D20646973706C617920636C6F636B46
:102C000020646174650A000042A0FFF79DF84BA0A4
:102C1000FFF79AF84FF0FF30C5E456A12068FDF7A2
:102C2000E3FD002833D1022D0DD1AFF2AC21606855
:102C3000FDF7DAFD28B1AFF294016068FDF7D4FD2D
:102C400008B9012000E000200646BEB1AFF2D02155
:102C50006068FDF7C9FD30B901204849087348A0F4
:102C6000FFF772F808E0AFF2C4016068FDF7BCFD41
:102C700010B9494800F076FD002094E447A0FFF722
:102C800063F853A0FFF760F84FF0FF308BE45CA1CE
:102C90002068FDF7A9FD002836D1022D0DD1AFF235
:102CA00020316068FDF7A0FD28B1AFF2081160681F
:102CB000FDF79AFD08B9012000E000200646D6B1D4
:102CC000AFF244316068FDF78FFD30B900202B4929
:102CD00008734DA0FFF738F80BE0AFF238116068C9
:102CE000FDF782FD28B900202B4908734BA0FFF7A0
:102CF0002BF8002057E44EA0FFF726F85AA0FFF764
:102D000023F84FF0FF304EE463A0FFF71DF84FF0BB
:102D1000FF3048E42020202020202072756E20748F
:102D2000696D6520202D20646973706C6179206362
:102D30006C6F636B2074696D650A00002020202091
:102D400020202072756E2063646F776E202D2064C2
:102D50006973706C617920616E6420737461727440
:102D60002074696D657220636F756E74646F776E21
:102D70000A000000656E61626C650000E8000020DA
:102D8000416C61726D20697320656E61626C65646F
:102D9000206E6F770A000000F8000020557361670D
:102DA000653A20656E61626C6520616C61726D20B0
:102DB000202D20656E61626C652074686520616CF1
:102DC00061726D20746F20676F206F66660A000065
:102DD00020202020202020656E61626C65206364C5
:102DE0006F776E20202D2073746172742074696D6A
:102DF000657220636F756E74646F776E0A000000F1
:102E000064697361626C6500416C61726D20697305
:102E10002064697361626C65640A000050617573B7
:102E20006520636F756E74646F776E0A0000000032
:102E300055736167653A2064697361626C652061EE
:102E40006C61726D20202D2064697361626C652055
:102E500074686520616C61726D20746F20676F20EB
:102E60006F66660A000000002020202020202064D9
:102E7000697361626C652063646F776E20202D201A
:102E800073746F702074696D657220636F756E74F2
:102E9000646F776E0A000000436F6D6D616E642091
:102EA0006E6F7420666F756E642E20547970652085
:102EB000273F2720666F722068656C700A0000004B
:102EC0002DE9FF410D4616461F4642A10098FDF729
:102ED00079FC08B13A240BE03FA10098FDF772FCA1
:102EE00008B12D2404E04FF0FF3004B0BDE8F081BC
:102EF000002269460098FDF72DFC286000980078B4
:102F0000A04207D1FDF78CFA006800994978405C2F
:102F1000202802D04FF0FF30E7E700BF02E0009822
:102F2000401C00900098007878B1009800780D2837
:102F30000BD0009800780A2807D0FDF771FA0068D6
:102F400000990978405C2028E9D100BF0022694639
:102F50000098FDF7FFFB306000980078A04207D191
:102F6000FDF75EFA006800994978405C202802D09D
:102F70004FF0FF30B9E700BF02E00098401C00901E
:102F80000098007878B1009800780D280BD0009850
:102F900000780A2807D0FDF743FA006800990978FD
:102FA000405C2028E9D100BF002269460098FDF767
:102FB000D1FB38600098007850B1009800780D2857
:102FC00006D0009800780A2802D04FF0FF308CE736
:102FD00000208AE73A0000002D000000034601208F
:102FE0009040984328B101209040884308B90120BF
:102FF00070470020FCE7000010B50024114801686C
:103000000120884010490978FF2900D100E0002103
:10301000084004430D48007B08B1402000E0002038
:1030200004430B48007B20B10A48007808B1802097
:1030300000E000200443E043C2B201211820FEF763
:103040004BF810BD000000200C000020E80000201C
:10305000F800002033000020C4B00024FEF7C8F8B8
:1030600000F00CFBCE48CFA1026804A8FDF736FAA9
:1030700004A8FEF769FE40F2E77005210B22082341
:10308000CDE90021029000223B21CB48FFF796F8C2
:10309000CA48FEF751FFCA4800F08CFB00F07AFAEC
:1030A00004A9C548FFF75AF804A8FEF74DFE76E1DB
:1030B000FFF7BCF9FFF7A0FFBF49C048FEF7E2FEEB
:1030C000C0480068C0B1C048006850B9BF4909682D
:1030D000481CC11700EB91718910A0EB8101BB4A1C
:1030E00011600020B8490860B949086008460168C5
:1030F000B84800F093FB52E1B7480068C8B1B24845
:10310000006898B1B2480068401CB14908600846A0
:103110000168B04800F082FBAD480068032805DD77
:103120000020A9490860AA49086038E10020AA499E
:103130000860AA48006868B1A348006848B901203F
:10314000A1490860A249086008460168A14800F04A
:1031500065FB24E1A248006808B1012404E0A1480D
:10316000006808B14FF0FF349848006830B101287A
:1031700030D0022878D0032875D1BAE08E48FEF707
:1031800099FF9148006820B39548006810B99548A8
:103190000068F0B18E480068012804D0022809D0E8
:1031A000032814D10DE0182221468348083000F08E
:1031B00047F90DE03C2221467F48001D00F040F910
:1031C00006E03C2221467C4800F03AF900E000BFCE
:1031D00000BFDCE07848FEF703FF7B48006878B367
:1031E0007F48006810B97F48006848B37848006895
:1031F000012804D002280AD0032822D10EE042F28E
:10320000107221466C48143000F01AF91AE00C22B2
:1032100021466948103000F013F913E06648C06891
:10322000401E039064480169203050F82120214657
:1032300003A800F005F90398401C5F49C86001E04D
:103240000FE000BF00BF5C48416900695A4AD2687C
:10325000CDE9002002915848836842680168FEF772
:10326000ADFF94E000E091E05448FEF783FD56483E
:10327000006820B35A48006810B95A480068F0B195
:1032800053480068012804D0022809D0032814D12B
:103290000DE0182221464948083000F0D1F80DE031
:1032A0003C2221464548001D00F0CAF806E03C22B9
:1032B0002146424800F0C4F800E000BF00BF4A4881
:1032C0000068A8B13D48007B08B9012000E000205B
:1032D0003A4908730846007B08B144A000E049A0C1
:1032E00002464DA104A8FDF7F9F804A8FEF72CFD4D
:1032F0004DE0334800F0D8F93348006838B3384817
:10330000006810B93748006808B3314800680128E0
:1033100004D0022809D0032817D10DE03C22214611
:103320002748083000F08CF810E03C222146244861
:10333000001D00F085F809E004EB840041004FF423
:103340007A721F4800F07CF800E000BF00BF2648FA
:103350000068D0B100201E4908601B490860184869
:10336000007B08B9012000E00020154908730846D9
:10337000007B08B129A000E02DA0024626A104A8E8
:10338000FDF7ACF804A8FEF7DFFC00E000BF00BFCB
:10339000FFF7D4F84FF47A70FDF72AFD00BF87E6F7
:1033A0005400002053797374656D436C6F636B2018
:1033B0003D2025640A00000098000020E80000205D
:1033C000F800002010000020040000200000002071
:1033D000080000200C00002018000020140000202D
:1033E0001C0000202000002024000020416C61729D
:1033F0006D20697320656E61626C6564206E6F7705
:1034000000000000416C61726D2069732064697373
:1034100061626C656400000025730A0020537461CA
:10342000727420636F756E74646F776E00000000B5
:10343000506175736520636F756E74646F776E008D
:1034400030B503685C18144494FBF2F502FB154395
:10345000036030BD2DE9F041C0B004460E4617466A
:103460004FF0FF3500BF00E0641C207888B1207861
:103470000D280ED020780A280BD020782028F3D0F1
:1034800020780928F0D020780D28EDD020780A285F
:10349000EAD000BF44E0D6F80080002500E06D1CB3
:1034A000605D202810D0605D09280DD0605D0D287A
:1034B0000AD0605D0A2807D0605D28B1605D0D28E4
:1034C00002D0605D0A28EAD155B3681DFCF7B0FF51
:1034D00047F8280057F828002A462146FDF7FEF94C
:1034E000002057F8281048553068401C30602C44A4
:1034F00000BF00E0641C207888B120780D280ED031
:1035000020780A280BD020782028F3D020780928AA
:10351000F0D020780D28EDD020780A28EAD000BF1E
:1035200015B130681028B6DD306810280FDD0BA10A
:1035300068463268FCF7D2FF6846FEF705FC0AA031
:10354000FEF702FC4FF0FF3040B0BDE8F08130687C
:1035500010B94FF0FF30F7E70020F5E761726763BD
:10356000203D2025640A0000436F6D6D616E64206C
:103570007061727365206572726F723A20746F6F3A
:10358000206D616E7920617267756D656E74730A66
:103590000000000030B59DB01C22324916A8FDF78E
:1035A00044F938222F491C3108A8FDF73EF92022A2
:1035B0002C4954316846FDF738F98025002406E08F
:1035C00016A931F814006421FEF7D6FC641C072C00
:1035D000F6DB0120244908602449086040F6B83031
:1035E000234908602DE00024802528E000220621E0
:1035F0002220FDF771FDC4F107005DF820001D4990
:103600000A5C05212220FDF767FD2A4606212220BB
:10361000FDF762FD4FF47A70FDF7EAFB164800787B
:10362000FF2805D0002201211820FDF755FD04E0F8
:10363000FF2201211820FDF74FFD641C6D10082C9E
:10364000D4DB0B4800680028CDD1FF2201211820CF
:10365000FDF742FD002004490860044908601DB0E0
:1036600030BD00009C39000008000020040000204C
:1036700038000020680000200C00002000B5C1B018
:103680004FF48072074901A8FDF7CFF801A8FEF7B3
:103690005BFB01A8FEF758FB01A8FEF755FB41B004
:1036A00000BD00009C380000F0B589B004468026BB
:1036B00000270A21206890FBF1F090FBF1F201FB5A
:1036C000120001906421206890FBF1F002900A2121
:1036D000606890FBF1F201FB12000390606890FBC0
:1036E000F1F00490A06890FBF1F201FB120005904C
:1036F000A06890FBF1F006900D2007900C20089038
:10370000002527E0022D01D0042D01D1802000E00A
:1037100000200746002206212220FDF7DDFC01A83B
:1037200050F825000D49085C40EA070205212220D7
:10373000FDF7D2FC0A48007840F0030000EA0602D8
:1037400006212220FDF7C8FC4FF47A70FDF750FBEC
:103750006D1C7610082DD5DB09B0F0BD6800002087
:103760000C00002010B50446207B18B104A0FEF721
:10377000EBFA04E00AA0FEF7E7FA0120207310BD7F
:10378000436F756E74646F776E2068617320616C2F
:10379000726561647920737461727465640A0000F3
:1037A000537461727420636F756E74646F776E0A00
:1037B0000000000000210173E92101600D2141603A
:1037C000002181607047000010B504462068002881
:1037D00005DA6068401E606040F2E7302060606893
:1037E000002804DAA068401EA0603B206060A0684A
:1037F000002807DA0020207320606060A06002A02B
:10380000FEF7A2FA10BD00000A3E3E3E2054696D4C
:1038100065206973207570210A0000000246107847
:1038200031B1012906D002290AD0032914D10DE0B3
:10383000FF2013E080F00F00C3B243F0F0000DE072
:1038400080F03000C3B243F0CF0007E080F0C0004A
:10385000C3B243F03F0001E0FF2000BF00BF107083
:103860007047000010B500290AD00878002807D05A
:1038700005487844FDF75EF8002801D0002010BD0F
:103880000248784410BD0000E2070000DA0700009B
:103890004FF04070E1EE100A7047000030313233D3
:1038A0003435363738390D0A0000000000000000BA
:1038B0000000000000000000000000000000000008
:1038C00000000000000000000000000000000000F8
:1038D00000000000000000000000000000000000E8
:1038E00000000000000000000000000000000000D8
:1038F00000000000000000000000000000000000C8
:1039000000000000000000000000000000000000B7
:1039100000000000000000000000000000000000A7
:103920000000000000000000000000000000000097
:103930000000000000000000000000000000000087
:103940000000000000000000000000000000000077
:103950000000000000000000000000000000000067
:103960000000000000000000000000000000000057
:103970000000000000000000000000000000000047
:103980000000000000000000000000000000000037
:1039900000000000000000000000000005012601FA
:1039A0004A015D018801B801EE010B024B0293024E
:1039B000BA0210037003DC039001000090010000C4
:1039C00090010000900100009001000090010000B3
:1039D00090010000900100009001000090010000A3
:1039E0009001000090010000900100009001000093
:1039F00002000000010000000900000001000000BA
:103A000001000000010000000000000001000000B3
:103A10001F0000001C0000001F0000001E0000002E
:103A20001F0000001E0000001F0000001F0000001B
:103A30001E0000001F0000001E0000001F0000000C
:103A4000050126014A015D018801B801EE0100006F
:103A50000040004010000000008005401000000001
:103A600000500040110000000090054011000000CF
:103A7000006000401200000000A00540120000009D
:103A8000007000401300000000B00540130000006B
:103A9000004002401400000000C005401400000077
:103AA000005002402E00000000D005402E00000013
:103AB000006002402F00000000E005402F000000E1
:103AC000007002403000000000F0054030000000AF
:103AD00000D0034046000000000006404600000001
:103AE000001006404700000000200640480000008B
:103AF000003006407F0000000040064080000000CB
:103B00000050064084000000006006408C00000069
:103B10000040004010000000008005401000000040
:103B2000005000401100000000900540110000000E
:103B3000006000401200000000A0054012000000DC
:103B4000007000401300000000B0054013000000AA
:103B5000004002401400000000C0054014000000B6
:103B6000005002402E00000000D005402E00000052
:103B7000006002402F00000000E005402F00000020
:103B8000007002403000000000F0054030000000EE
:103B900000D0034043000000000006404300000046
:103BA00000100640440000000020064045000000D0
:103BB0000030064058000000004006405900000058
:103BC000005006405C0000000060064064000000F9
:103BD000007006406C000000008006406D00000090
:103BE000009006407F00000000400040008005403B
:103BF00000500040009005400060004000A00540DB
:103C00000070004000B005400040024000C0054088
:103C10000050024000D005400060024000E0054036
:103C20000070024000F0054000D003400000064054
:103C3000001006400010064000200640002006400C
:103C4000003006400030064000400640004006407C
:103C500000500640005006400060064000600640EC
:103C6000007006400070064000800640008006405C
:103C7000009006400090064000070000000600008B
:103C80000005000000040000000300000002000026
:103C900000010000000000000000000018ED00E03E
:103CA0001CED00E020ED00E000E400E004E400E0B2
:103CB00008E400E00CE400E010E400E014E400E0BC
:103CC00018E400E01CE400E020E400E024E400E06C
:103CD00028E400E02CE400E030E400E034E400E01C
:103CE00038E400E03CE400E040E400E044E400E0CC
:103CF00048E400E04CE400E050E400E054E400E07C
:103D000058E400E05CE400E060E400E064E400E02B
:103D100068E400E06CE400E070E400E074E400E0DB
:103D200078E400E07CE400E080E400E084E400E08B
:103D300088E400E000E100E004E100E008E100E0E8
:103D40000CE100E010E100E080E100E084E100E04F
:103D500088E100E08CE100E090E100E000E200E0BA
:103D600004E200E008E200E00CE200E010E200E023
:103D700080E200E084E200E088E200E08CE200E023
:103D800090E200E000688909001C4E0E40420F00DE
:103D900000201C0080841E0000802500999E3600B3
:103DA0000040380000093D0000803E0000004B004C
:103DB000404B4C0000204E00808D5B0000C05D0039
:103DC0000080700000127A0000007D00809698004C
:103DD000001BB7000080BB00C0E8CE00647ADA00A8
:103DE0000024F4000000FA0080A81201002D310127
:103DF00000366E0140787D014000000000000000A8
:103E0000000100003E00080000000000000100006A
:103E1000A000000002000000000100003454010076
:103E200000000000000100002B70060000000000F0
:103E30000001000028000000000000000001000058
:103E40002700010000000000000100002000000029
:103E5000000000000001000050000000020000000F
:103E6000000100001AAC000000000000000100008A
:103E700017940900000000000001000016980500DA
:103E8000000000000001000014000000000000001D
:103E90000001000013800800000000000001000085
:103EA000A000000008000000000100001000000059
:103EB00000000000000100002800000002000000D7
:103EC00000010000400000000400000000010000AC
:103ED0006000000000000000000100005D000C0018
:103EE0000000000000010000500000000000000081
:103EF000000100004E000200000000000001000070
:103F000041AC010000000000000100003C00000086
:103F100000000000000100003A80090000000000DD
:103F2000000100003000000000000000000100005F
:103F30002800000000000000000100002700010030
:103F400000000000000100002360060000000000E7
:103F500000010000216008000000000000010000D6
:103F60001E00000000000000000100001DC0040051
:103F700000000000000100005000000002000000EE
:103F80000001000018000000000000000001000017
:103F900014000000000000000001000060000000AC
:103FA00004000000000100000024F4003000300094
:103FB000005A62029100910000879303D200D20060
:103FC00000B4C4041301130100E1F50554015401C8
:103FD000000E27079501950104000008000000006D
:103FE00000000002000100001000000009696E6975
:103FF0007420636C6F636B20202020202020202001
:1040000020202020202020202020202020203A2096
:10401000696E7469616C697A652074686520636C87
:104020006F636B20746F2030303A30303A30300A92
:104030000000000064410000000000209800000023
:104040003C020000FC410000980000201003010029
:10405000580200001001000043000000F8FFFFFFBD
:10406000004040404040404040404141414141408B
:104070004040404040404040404040404040404040
:1040800040050202020202020202020202020202CF
:1040900002202020202020202020200202020202D4
:1040A000020290909090909010101010101010102C
:1040B0001010101010101010101010100202020238
:1040C000020288888888888808080808080808087C
:1040D0000808080808080808080808080202020278
:1040E0004000000000000000000000000000000090
:1040F00000000000000000000000000000000000C0
:1041000000000000000000000000000000000000AF
:10411000000000000000000000000000000000009F
:10412000000000000000000000000000000000008F
:10413000000000000000000000000000000000007F
:10414000000000000000000000000000000000006F
:10415000000000000000000000000000000000005F
:10416000000000000000000000000000000000004F
:10417000FF00000000000000000000000000000040
:10418000000000000000000000000000000000002F
:10419000000000000000000000000000000000001F
:1041A000000000000000FFFF010000000000000010
:1041B00000000000000000000000000000000000FF
:1041C0000000000000000000000000003F065B4F00
:1041D000666D7D077F6F777C585E79715C000000AB
:1041E00000000000000000000000000000000000CF
:0C41F00000000000000000000024F400AB
:0400000500000201F4
:00000001FF
