:020000040000FA
:1000000098020020D1020000D9020000DB020000AB
:10001000DD020000DF020000E1020000000000003D
:10002000000000000000000000000000E3020000EB
:10003000E502000000000000E7020000E5100000FB
:10004000EB020000ED020000EF020000F1020000F0
:10005000F302000089110000F7020000F90200001D
:10006000FB020000FD020000FF020000010300008F
:10007000030300000503000007030000090300005C
:100080000B0300000D0300000F030000110300002C
:1000900013030000150300001703000019030000FC
:1000A0001B0300001D0300001F03000021030000CC
:1000B000230300002503000027030000290300009C
:1000C0002B0300002D0300002F030000310300006C
:1000D000330300003503000037030000390300003C
:1000E0003B0300003D0300003F030000410300000C
:1000F00043030000450300004703000049030000DC
:100100004B0300004D0300004F03000051030000AB
:10011000530300005503000057030000590300007B
:100120005B0300005D0300005F030000610300004B
:10013000630300006503000067030000690300001B
:100140006B0300006D0300006F03000089030000D3
:1001500000000000000000008B0300008D03000081
:100160008F030000910300000000000093030000D3
:100170009503000097030000990300009B03000013
:100180009D0300009F030000A1030000A3030000E3
:10019000A5030000A7030000A9030000AB030000B3
:1001A000AD030000AF030000B1030000B303000083
:1001B000B5030000B7030000B9030000BB03000053
:1001C000BD030000BF030000C1030000C303000023
:1001D000C5030000C7030000C9030000CB030000F3
:1001E000CD030000CF030000D1030000D3030000C3
:1001F000D5030000D7030000D9030000DB03000093
:1002000000F002F800F040F80AA090E8000C8244E8
:100210008344AAF10107DA4501D100F035F8AFF2C5
:10022000090EBAE80F0013F0010F18BFFB1A43F0D4
:1002300001031847C4180000E4180000103A24BF56
:1002400078C878C1FAD8520724BF30C830C144BF3B
:1002500004680C607047000000230024002500267D
:10026000103A28BF78C1FBD8520728BF30C148BF19
:100270000B6070471FB501F03EF99DE8030000F0E8
:100280003DF91FBD10B510BD00F0BCF91146FFF7D8
:10029000F1FF01F0F5F800F0DAF903B4FFF7F2FF2F
:1002A00003BC00F00BFA0000EFF3108072B6704749
:1002B000EFF310807047EFF3108062B6704730BFE5
:1002C000704780F311887047EFF31180704700008A
:1002D0004548804745480047FEE7FEE7FEE7FEE762
:1002E000FEE7FEE7FEE7FEE7FEE7FEE7FEE7FEE7E6
:1002F000FEE7FEE7FEE7FEE7FEE7FEE7FEE7FEE7D6
:10030000FEE7FEE7FEE7FEE7FEE7FEE7FEE7FEE7C5
:10031000FEE7FEE7FEE7FEE7FEE7FEE7FEE7FEE7B5
:10032000FEE7FEE7FEE7FEE7FEE7FEE7FEE7FEE7A5
:10033000FEE7FEE7FEE7FEE7FEE7FEE7FEE7FEE795
:10034000FEE7FEE7FEE7FEE7FEE7FEE7FEE7FEE785
:10035000FEE7FEE7FEE7FEE7FEE7FEE7FEE7FEE775
:10036000FEE7FEE7FEE7FEE7FEE7FEE7FEE7FEE765
:10037000FEE7FEE7FEE7FEE7FEE7FEE7FEE7FEE755
:10038000FEE7FEE7FEE7FEE7FEE7FEE7FEE7FEE745
:10039000FEE7FEE7FEE7FEE7FEE7FEE7FEE7FEE735
:1003A000FEE7FEE7FEE7FEE7FEE7FEE7FEE7FEE725
:1003B000FEE7FEE7FEE7FEE7FEE7FEE7FEE7FEE715
:1003C000FEE7FEE7FEE7FEE7FEE7FEE7FEE7FEE705
:1003D000FEE7FEE7FEE7FEE7FEE7FEE70448054925
:1003E000034A054B7047000069110000010200003C
:1003F00098000020980200209800002070B5064662
:1004000000F060F8056806F10B0020F00704B44224
:100410009CBF002070BD2B466A68BAB11068A0422C
:1004200010D304F1080188423CBF5068586007D3DC
:100430005168101941601168091B0160586014600F
:10044000101D70BD13465268002AE7D12146284688
:1004500000F040F80028DED170BD10B5203AC0F0A1
:100460000B80B1E81850203AA0E81850B1E81850B5
:10047000A0E81850BFF4F5AF5FEA027C24BFB1E8F2
:100480001850A0E8185044BF18C918C0BDE8104063
:100490005FEA827C24BF51F8043B40F8043B08BF6C
:1004A0007047D20728BF31F8023B48BF11F8012B33
:1004B00028BF20F8023B48BF00F8012B7047704767
:1004C00070477047004870474000002070477047F1
:1004D0007047704738B504460A4600206946AFF3B6
:1004E0000080002808BF38BD02460099204600F071
:1004F00067F8012038BD012000F07CB8F8B5AFF3F3
:100500000080054600200C46102000BF0646A819B2
:10051000A0420DD9324669460020AFF300800700A3
:1005200008BF00F067F80098A04218BF0546C4193C
:10053000FFF7C8FF05600746F01D20F007004619C9
:10054000284600F00AF8B44208BFF8BDA21B3146A5
:100550003868BDE8F84000F033B800210160C0E918
:10056000011070471020704770B50446051FFFF753
:10057000A9FF0068002C14BF446870BD002C18BF90
:10058000AC423CBF20466468F8D301680A18AA420E
:1005900018BF456003D12A680546114401602868E8
:1005A0004119A1421CBF6C6070BD6168696021681F
:1005B0000844286070BD00000048704738000020E3
:1005C000034640688C46002818BF88423CBF03465B
:1005D0004068F8D318681844884207D00CF103002B
:1005E00020F00700001D411A521A0146081D0A603A
:1005F000FFF7BABF10B500F039F8BDE8104000F0C1
:100600002FB870477546FFF7D7FFAE46050069461D
:10061000534620F00700854618B020B5FFF7DEFEF0
:10062000BDE820404FF000064FF000074FF00008F3
:100630004FF0000B21F00701AC46ACE8C009ACE874
:10064000C009ACE8C009ACE8C0098D46704710B5D8
:100650000446AFF300802046BDE81040FFF71DBE02
:10066000002801D000F02AB87047000010B501281A
:1006700005D0002103A000F027F8012010BD09A13A
:10068000F8E7000053494752544D454D3A204F7505
:1006900074206F662068656170206D656D6F72797A
:1006A000000000003A2048656170206D656D6F7232
:1006B0007920636F72727570746564000149182047
:1006C000ABBEFEE72600020070B505460C460A20C8
:1006D00000E06D1C00F011F835B128780028F8D141
:1006E00002E0641C00F009F814B120780028F8D169
:1006F000BDE870400A20AFF3008008B569468DF868
:1007000000000320ABBE08BDD0F8003412F0010F8A
:1007100014BF0B438B43C0F8003412F0020FD0F823
:10072000202414BF114322EA0101C0F820147047AD
:100730002DE9F00301264FF0000C0325C2F3411709
:1007400006FA0CF40C4211D0D0F8C48F4FEA4C04D6
:1007500005FA04F928EA0908C0F8C48FD0F8C48F54
:1007600007FA04F448EA0404C0F8C44F0CF1010C81
:100770000CF0FF0CBCF1080FE2D3D0F800C512F06A
:10078000010F14BF4CEA010C2CEA010CC0F800C5A3
:10079000D0F804C512F0020F14BF4CEA010C2CEA89
:1007A000010CC0F804C5D0F808C512F0040F14BF3E
:1007B0004CEA010C2CEA010CC0F808C5D0F818C5A9
:1007C00012F0080F14BF4CEA010C2CEA010CC0F81F
:1007D00018C512F0100FD0F83C2514BF0A438A4305
:1007E000C0F83C25D0F80C2513F0010F14BF0A43C4
:1007F0008A43C0F80C25D0F8102513F0020F14BF5F
:100800000A438A43C0F81025D0F8142513F0040FCA
:1008100014BF0A438A43C0F81425D0F81C2513F0EE
:10082000080F14BF0A438A43C0F81C25D0F844259A
:1008300013F4007F14BF0A438A43C0F84425D0F85C
:10084000402513F4407F14BF0A438A43C0F8402573
:10085000D0F82825002B0CBF114322EA0101C0F873
:100860002815BDE8F00370470E4AC0F30741D26E69
:1008700001238B401A420C4A1ABF02EBC10149689E
:1008800052F83110020AD1F82C354FF00F0C0CFA47
:1008900002FC00F00F0023EA0C0390401843C1F85B
:1008A0002C05704700E00F400817000050F82100A9
:1008B000704730B50C4605460022FFF725FF21465C
:1008C0002846BDE8304008230122FFF731BF30B58C
:1008D0000C46054608230122FFF72AFF2146284639
:1008E000BDE830400122FFF70FBF30B50C4605468A
:1008F0000222FFF709FF21462846BDE830400923C0
:100900000122FFF715BF30B50C4605460222FFF75E
:10091000FBFE21462846BDE8304008230122FFF7B0
:1009200007BF30B50C4605460222FFF7EDFE214613
:100930002846BDE8304008230122FFF7F9BE40F801
:10094000212070472DE9F04104460F46154600BFAF
:10095000184800F031F80028FAD100222146154845
:1009600000F070F83946134800F02EF803211148C2
:1009700000F028F800BF0F4800F01EF80028FAD158
:100980000C4800F028F8C6B229460A4800F01CF8C6
:100990000521084800F016F800BF064800F00CF8E2
:1009A0000028FAD1034800F016F8C6B23046BDE878
:1009B000F081000000000240406810F0010018BF04
:1009C000012070474160704781607047016A41F0C3
:1009D000100101627047406810F0010F05D110F05E
:1009E000120F1CBF00F01C00704700207047000071
:1009F000036A43F010030362002A14BF0E4A0F4A31
:100A000002EB820301EB830302EB820292005B1E86
:100A1000B3FBF2F2521EC260D0F8C02F12F0010FE9
:100A200008BF7047064A1144521CB1FBF2F1491E3F
:100A300041F08001C1607047801A0600A086010065
:100A40007F47370142EA41010160704710B52049F4
:100A5000204800F093F920490860084600684FF4E8
:100A60007A71B0FBF1F4204600F036FB00F026FB73
:100A700000F02BFB00F0BAF800F0F8F800F042F9B3
:100A8000152000F035F85021144800F00AFC00F061
:100A900061F800F095F812490860032000F082F830
:100AA000E021152000F08EF803210F2000F08AF8D5
:100AB00000F066F80B490860152000F053F80A4969
:100AC00008600F2000F04EF80849086010BD0000D3
:100AD000002D3101500500F10C00002000C0004045
:100AE00014000020100000201C000020180000202E
:100AF0001649042804BF086840F4803018D005283F
:100B000004BF086840F4003012D0062812D00F2825
:100B100015D0102838BF7047103800F01F0101228F
:100B200002FA01F142090A4850F8220001607047B8
:100B300008607047086840F48020086070474FF0F4
:100B4000E020016941F002010161704724ED00E0FD
:100B50005418000010B5FFF7AEFB002818BF0120A5
:100B600010BD0000054A20F00301515809688007B4
:100B7000C00E21FA00F0C0B270470000B8170000A4
:100B800006480068064A00F4E061002052F8203070
:100B90008B421CBF401C0828F8D370470CED00E0C6
:100BA00098170000044951F82000044940F0FD70F6
:100BB00040F0806008607047981700000CED00E07E
:100BC000FFF782BB084A20F00303D258136880075E
:100BD000C00E4FF0FF0C0CFA00FC23EA0C0301FAE4
:100BE00000F0184310607047B817000010B51B489C
:100BF00000F03AFA00BF194800F04AFA0028FAD08B
:100C00001648C01C00F030FA00BF1448C01C00F0A9
:100C10003FFA0028F9D01148C01D00F025FA00BFA6
:100C20000E48C01D00F034FA0028F9D001210C480C
:100C3000FFF74DFE01210B48FFF749FE022109484D
:100C4000FFF745FE03210848FFF733FE0A23012280
:100C500003210548FFF76CFD10BD0000050800F0FA
:100C6000005002400040064000D0034010B51E482E
:100C700000F0FAF91D4800F0F7F91D48FFF7F4FD00
:100C80001C48FFF7F1FD04211B48FFF73CFE08213B
:100C90001948FFF72AFE0122184801681848FFF793
:100CA000A7FE1748FFF792FEFF220C212220FFF734
:100CB00049FE044600220D212220FFF743FE044690
:100CC00000220E212220FFF73DFE044600220321D0
:100CD0001820FFF737FE0446FF2201211820FFF7F6
:100CE00031FE044610BD0000002000F0010800F0B5
:100CF00002080100020C0100005000400C0000201E
:100D00000000024010B5144800F0AEF9134800F09E
:100D1000ABF900BF114800F0BBF90028FAD0012060
:100D2000FFF7A2FD40F20140FFF79EFD03214FF0C7
:100D30004020FFF7F6FD60234FF4E13208480168D8
:100D4000084800F072FA08A000F0B4FA202201214D
:100D5000044800F0A1FA10BD001800F0000800F0EF
:100D60000C00002000C000400D0A48656C6C6F2C20
:100D700020776F726C64210D0A0000002DE9F003EA
:100D8000AF4D02462868AF4B1840A0F18053B3F531
:100D9000A02359D002F03809DFF8AC82C2F38414E2
:100DA000B9F1100F25D0B9F1300F04BF47F2305020
:100DB0004FF400130DD04FF03800904304BF4FF4B0
:100DC0000040C30105D012F0380F1CBF00200346BD
:100DD00013D09E4F12F4605F4FF0000618BF002240
:100DE0002CD057F8324044457DD307EBC2025268FD
:100DF000E1E0002340461524EBE7A4F109001228A6
:100E000022D29348D5F87CC04FF04C7350F82400A0
:100E10002CF01C0C072CA8BF4CF0100CC5F87CC0A3
:100E20002E6D4FF4002C16F4807FD2D1BCF1010C52
:100E30000AD02E6D16F4807FF8D0CAE712F0380F72
:100E400018BFB9F1100F04D0BDE8F0034FF0000057
:100E50007047C2F30268DFF8FCC14FF0000257F898
:100E60003290E14503D307EBC202526803E0521C03
:100E7000062AF4D33246C5F8C020D5F8B020DFF8F2
:100E8000D8C102EA0C0242F00042C5F8B020DFF8F7
:100E9000CCC1A4F109024C1E5CF828C0A444BCFBE0
:100EA000F1FCD5F8B0101943C5F8B01008EBC80133
:100EB00001EB41046A4902EB420201EBC40101EB80
:100EC00082046468C5F86441D5F864416FF0FF0896
:100ED00008EB0C2C44EA0C0CC5F864C151F8221044
:100EE000D5F8602100E061E002F400021143C5F88A
:100EF0006011D5F86011D5F86021C1F38921C2F3E2
:100F00000904D5F86421C2F3042202F1010CD5F8DA
:100F1000642102F01F02521CB0FBF2F04A09C2F138
:100F200000084443424301EB481104EB521248438A
:100F300002EB9020B0FBFCF041080846002257F875
:100F400032C0844503D307EBC200466802E0521C5E
:100F5000062AF4D3C5F8C060D5F8600110F4000F7C
:100F60001DBFD5F8B00040F08040C5F8B000D5F8FE
:100F7000600104BF40F40000C5F860014FF4004078
:100F8000D5F8682112F0010F02D1401E0028F7DCCD
:100F9000002808BF002148D0D5F8B000184340F021
:100FA000010040F01040C5F8B0003EE0521C062A97
:100FB000FFF417AF3246C5F8C020D5F8602122F4FF
:100FC0000002C5F86021D5F8B020DFF898C002EA29
:100FD0000C0242F00042C5F8B020002908BF4FF0D3
:100FE000000C0AD0B0FBF1FCBCF1000F18BFACF153
:100FF000010C0CF10101B0FBF1F10846002257F899
:101000003240844203D307EBC200466802E0521C20
:10101000062AF4D3C5F8C060D5F8B00043EA8C22A4
:10102000104340F00040C5F8B000D5F8B00020F4FF
:101030007000C5F8B000BDE8F00308467047000036
:1010400000E00F400000FF700024F400C81A000008
:10105000AC18000040787D0100FC0FE0A4180000EF
:1010600018190000FF0300EFC0F307230749C0B2BF
:10107000194401F07043C1F3130143EA411141EAFD
:10108000800040F0007001220260704700E60F40CF
:10109000C0F307220849C0B2114401F07042C1F305
:1010A000130142EA411141EA800040F000700068FB
:1010B000002818BF0120704700EA0F404FF0E020E1
:1010C000016941F00501016170474FF0E0200169BD
:1010D00041F00201016170474FF0E021401E48617C
:1010E0007047000010B51A48008828B118480088D9
:1010F000401E1749088005E064201549088001203A
:10110000144908701448008828B113480088401E0C
:101110001149088005E00A200F49088001200F4985
:10112000087009E000200D4908700A490870012282
:1011300011460B48FFF703FC01210A48FFF7B6FBF5
:101140000028EFD0002201210548FFF7F8FB10BD71
:10115000060000200B000020040000200A000020F0
:101160000040064000D003400448006840F470008E
:1011700002490860024803490860704788ED00E0B2
:101180000024F4003400002030B591B00024012187
:10119000194800F08AF805462946174800F07FF8FC
:1011A00007E0154800F02EF8C2B22046641C01A9E1
:1011B0000A54114800F034F80028F2D101A908556A
:1011C000002401A800F084F8002202210B48FFF758
:1011D000B6FB04E0022211460848FFF7B0FB0221EB
:1011E0000748FFF763FB0028F4D0002202210348E0
:1011F000FFF7A5FB11B030BD00C000400040064025
:1012000000D00340816911F0100F0CBF00684FF04F
:10121000FF307047826912F0200FFBD101607047E8
:101220008069012121EA10107047D0F818C01CF025
:10123000080FFAD1D0F82CC02CF0100CC0F82CC03C
:10124000D0F830C02CF0010C2CF4407CC0F830C039
:10125000D0F830C0B1EB021F34BF4CF0200C2CF0A2
:10126000200CC0F830C038BF5208C900B1FBF2F101
:10127000491C49088A09426201F03F018162C36248
:1012800000218161C16A41F01001C162016B40F22D
:101290000132114301637047114341637047416458
:1012A0007047826B114381637047002914BF006C43
:1012B000C06B704710B5044604E014F8011B0348E6
:1012C000FFF7A8FF20780028F7D110BD00C000402C
:1012D000704770472DE9F04F8DB004460F46904699
:1012E0009946DDE916AB189E3022294901A8FFF77F
:1012F000B4F82760C4F80480C4F80890C4F80CA0BF
:101300000020A061ABF1010020616661642196FBC1
:10131000F1F201FB126139B13046F11706EB917120
:101320008910A6EB810131B14FF4C87196FBF1F23F
:1013300001FB126109B9012100E00021E1610025F2
:1013400007E001A850F8251004F1200040F825100E
:101350006D1C0B2DF5DDE169606A014461620025B9
:1013600007E004F1200050F82500A1690844A061BD
:101370006D1C2069A842F4DCE068401EA1690844A5
:10138000A061204600F006F80DB0BDE8F08F000027
:101390004015000010B501683C290DDB3C220168B6
:1013A00091FBF2F14268114441603C22016891FBDB
:1013B000F2F302FB1311016041683C290DDB3C2272
:1013C000416891FBF2F18268114481603C224168DE
:1013D00091FBF2F302FB131141608168182914DBC1
:1013E0001822816891FBF2F182691144816118220F
:1013F000816891FBF2F1C2681144C16018228168D2
:1014000091FBF2F302FB13118160D0E9062101F296
:101410006D118A4226DB4169491C416100218161CD
:101420000121C160002101616423426992FBF3F450
:1014300003FB14223AB14169CA1701EB9272921070
:10144000A1EB82023AB14FF4C873426992FBF3F404
:1014500003FB14220AB9012200E00022C261C16923
:101460001C31416200F12001D0E9032351F823101F
:101470008A4204DD0121C1600169491C016110BD7E
:101480000EB55020FEF7BAFF04460C20FEF7B6FF5B
:1014900005461020FEF7B2FF0646FFF7D7FA00F028
:1014A00015F840F2E77006210B220823CDE9002150
:1014B000029000223B212046FFF70CFF2846FFF751
:1014C00008FF304600F016F800BFFEE700B591B007
:1014D0004022074901A8FEF7C0FF01A8FFF7EAFE76
:1014E00001A8FFF7E7FE01A8FFF7E4FE11B000BD79
:1014F0000015000070474FF04070E1EE100A704791
:1015000030313233343536373839000000000000CE
:1015100000000000000000000000000000000000CB
:1015200000000000000000000000000000000000BB
:1015300000000000000000000000000000000000AB
:101540001F0000001C0000001F0000001E00000023
:101550001F0000001E0000001F0000001F00000010
:101560001E0000001F0000001E0000001F00000001
:101570000040004010000000008005401000000006
:1015800000500040110000000090054011000000D4
:10159000006000401200000000A0054012000000A2
:1015A000007000401300000000B005401300000070
:1015B000004002401400000000C00540140000007C
:1015C000005002402E00000000D005402E00000018
:1015D000006002402F00000000E005402F000000E6
:1015E000007002403000000000F0054030000000B4
:1015F00000D0034046000000000006404600000006
:10160000001006404700000000200640480000008F
:10161000003006407F0000000040064080000000CF
:101620000050064084000000006006408C0000006E
:101630000040004010000000008005401000000045
:101640000050004011000000009005401100000013
:10165000006000401200000000A0054012000000E1
:10166000007000401300000000B0054013000000AF
:10167000004002401400000000C0054014000000BB
:10168000005002402E00000000D005402E00000057
:10169000006002402F00000000E005402F00000025
:1016A000007002403000000000F0054030000000F3
:1016B00000D003404300000000000640430000004B
:1016C00000100640440000000020064045000000D5
:1016D000003006405800000000400640590000005D
:1016E000005006405C0000000060064064000000FE
:1016F000007006406C000000008006406D00000095
:10170000009006407F00000000400040008005403F
:1017100000500040009005400060004000A00540DF
:101720000070004000B005400040024000C005408D
:101730000050024000D005400060024000E005403B
:101740000070024000F0054000D003400000064059
:101750000010064000100640002006400020064011
:101760000030064000300640004006400040064081
:1017700000500640005006400060064000600640F1
:101780000070064000700640008006400080064061
:101790000090064000900640000700000006000090
:1017A000000500000004000000030000000200002B
:1017B00000010000000000000000000018ED00E043
:1017C0001CED00E020ED00E000E400E004E400E0B7
:1017D00008E400E00CE400E010E400E014E400E0C1
:1017E00018E400E01CE400E020E400E024E400E071
:1017F00028E400E02CE400E030E400E034E400E021
:1018000038E400E03CE400E040E400E044E400E0D0
:1018100048E400E04CE400E050E400E054E400E080
:1018200058E400E05CE400E060E400E064E400E030
:1018300068E400E06CE400E070E400E074E400E0E0
:1018400078E400E07CE400E080E400E084E400E090
:1018500088E400E000E100E004E100E008E100E0ED
:101860000CE100E010E100E080E100E084E100E054
:1018700088E100E08CE100E090E100E000E200E0BF
:1018800004E200E008E200E00CE200E010E200E028
:1018900080E200E084E200E088E200E08CE200E028
:1018A00090E200E000688909001C4E0E40420F00E3
:1018B00000201C0080841E0000802500999E3600B8
:1018C0000040380000093D0000803E0000004B0051
:1018D000404B4C0000204E00808D5B0000C05D003E
:1018E0000080700000127A0000007D008096980051
:1018F000001BB7000080BB00C0E8CE00647ADA00AD
:101900000024F4000000FA0080A81201002D31012B
:1019100000366E0140787D014000000000000000AC
:10192000000100003E00080000000000000100006F
:10193000A00000000200000000010000345401007B
:1019400000000000000100002B70060000000000F5
:10195000000100002800000000000000000100005D
:10196000270001000000000000010000200000002E
:101970000000000000010000500000000200000014
:10198000000100001AAC000000000000000100008F
:1019900017940900000000000001000016980500DF
:1019A0000000000000010000140000000000000022
:1019B000000100001380080000000000000100008A
:1019C000A00000000800000000010000100000005E
:1019D00000000000000100002800000002000000DC
:1019E00000010000400000000400000000010000B1
:1019F0006000000000000000000100005D000C001D
:101A00000000000000010000500000000000000085
:101A1000000100004E000200000000000001000074
:101A200041AC010000000000000100003C0000008B
:101A300000000000000100003A80090000000000E2
:101A40000001000030000000000000000001000064
:101A50002800000000000000000100002700010035
:101A600000000000000100002360060000000000EC
:101A700000010000216008000000000000010000DB
:101A80001E00000000000000000100001DC0040056
:101A900000000000000100005000000002000000F3
:101AA000000100001800000000000000000100001C
:101AB00014000000000000000001000060000000B1
:101AC00004000000000100000024F4003000300099
:101AD000005A62029100910000879303D200D20065
:101AE00000B4C4041301130100E1F50554015401CD
:101AF000000E270795019501181B0000000000202B
:101B0000380000003C020000501B0000380000209C
:101B10006002000058020000000000000000000009
:101B200000000000000000000000000000000000B5
:101B300000000000000000003F065B4F666D7D075F
:101B40007F6F777C585E79715C0000000024F400A0
:0400000500000201F4
:00000001FF
