:020000040000FA
:10000000080B0120F90200000103000003030000B7
:1000100005030000070300000903000000000000C2
:100020000000000000000000000000000B030000C2
:100030000D030000000000000F030000C51D0000BC
:10004000130300001503000017030000190300004C
:100050001B030000392000001F03000021030000E3
:1000600023030000250300002703000029030000EC
:100070002B0300002D0300002F03000031030000BC
:10008000330300003503000037030000390300008C
:100090003B0300003D0300003F030000410300005C
:1000A000430300004503000047030000490300002C
:1000B0004B0300004D0300004F03000051030000FC
:1000C00053030000550300005703000059030000CC
:1000D0005B0300005D0300005F030000610300009C
:1000E000630300006503000067030000690300006C
:1000F0006B0300006D0300006F030000710300003C
:10010000730300007503000077030000790300000B
:100110007B0300007D0300007F03000081030000DB
:1001200083030000850300008703000089030000AB
:100130008B0300008D0300008F030000910300007B
:10014000930300009503000097030000B103000033
:100150000000000000000000B3030000B503000031
:10016000B7030000B903000000000000BB0300005B
:10017000BD030000BF030000C1030000C303000073
:10018000C5030000C7030000C9030000CB03000043
:10019000CD030000CF030000D1030000D303000013
:1001A000D5030000D7030000D9030000DB030000E3
:1001B000DD030000DF030000E1030000E3030000B3
:1001C000E5030000E7030000E9030000EB03000083
:1001D000ED030000EF030000F1030000F303000053
:1001E000F5030000F7030000F9030000FB03000023
:1001F000FD030000FF0300000104000003040000F1
:1002000000F002F800F054F80AA090E8000C8244D4
:100210008344AAF10107DA4501D100F049F8AFF2B1
:10022000090EBAE80F0013F0010F18BFFB1A43F0D4
:1002300001031847244B0000444B0000103A24BF30
:1002400078C878C1FAD8520724BF30C830C144BF3B
:1002500004680C607047000000230024002500267D
:10026000103A28BF78C1FBD8520728BF30C148BF19
:100270000B607047642900F09981782900F0D281E1
:10028000732900F0BA84002070471FB504F012F9FA
:100290009DE8030000F0E6FB00F0C4FB0400002032
:1002A000002104F0F1F8401C60601FBD10B510BDC6
:1002B00000F04CFD1146FFF7E8FF03F083FB00F070
:1002C0006AFD03B4FFF7F2FF03BC00F09BFD0000E2
:1002D000EFF3108072B67047EFF310807047EFF3C2
:1002E000108062B6704730BF704780F31188704746
:1002F000EFF31180704700004548804745480047AC
:10030000FEE7FEE7FEE7FEE7FEE7FEE7FEE7FEE7C5
:10031000FEE7FEE7FEE7FEE7FEE7FEE7FEE7FEE7B5
:10032000FEE7FEE7FEE7FEE7FEE7FEE7FEE7FEE7A5
:10033000FEE7FEE7FEE7FEE7FEE7FEE7FEE7FEE795
:10034000FEE7FEE7FEE7FEE7FEE7FEE7FEE7FEE785
:10035000FEE7FEE7FEE7FEE7FEE7FEE7FEE7FEE775
:10036000FEE7FEE7FEE7FEE7FEE7FEE7FEE7FEE765
:10037000FEE7FEE7FEE7FEE7FEE7FEE7FEE7FEE755
:10038000FEE7FEE7FEE7FEE7FEE7FEE7FEE7FEE745
:10039000FEE7FEE7FEE7FEE7FEE7FEE7FEE7FEE735
:1003A000FEE7FEE7FEE7FEE7FEE7FEE7FEE7FEE725
:1003B000FEE7FEE7FEE7FEE7FEE7FEE7FEE7FEE715
:1003C000FEE7FEE7FEE7FEE7FEE7FEE7FEE7FEE705
:1003D000FEE7FEE7FEE7FEE7FEE7FEE7FEE7FEE7F5
:1003E000FEE7FEE7FEE7FEE7FEE7FEE7FEE7FEE7E5
:1003F000FEE7FEE7FEE7FEE7FEE7FEE7FEE7FEE7D5
:10040000FEE7FEE704480549054A064B7047000031
:10041000192000000102000008090020080B01203B
:10042000080901200809012010B500F0FBFA001DA1
:1004300010BD00BF5540000070B5064600F0EEFA52
:10044000056806F10B0020F00704B4429CBF0020B1
:1004500070BD2B466A68BAB11068A04210D304F18F
:10046000080188423CBF5068586007D35168101992
:1004700041601168091B016058601460101D70BD57
:1004800013465268002AE7D12146284600F0D6FAE2
:100490000028DED170BD70B50446051F00F0BEFA1D
:1004A0000068002C14BF446870BD002C18BFAC421B
:1004B0003CBF20466468F8D301680A18AA4218BFF6
:1004C000456003D12A680546114401602868411936
:1004D000A1421CBF6C6070BD6168696021680844FE
:1004E000286070BD0FB41CB5074B06AA7B44694653
:1004F0000090059800F057FB0020694600F066FB6D
:100500001CBC5DF814FB0000DD06000070B504465D
:1005100085690068C10601D5302600E02026C007A5
:1005200007D070BDD4E9012130469047206A401CB5
:1005300020626D1EF6D570BD70B5044685690078E1
:10054000C00707D170BDD4E9012120209047206A5F
:10055000401C20626D1EF6D570BD70B50C46054678
:10056000012A05D02878800600D5EA69002302E038
:10057000012305E05B1C934202D2E05C0028F9D124
:10058000A869E618C01AA861286A18442862284693
:10059000FFF7BCFF04E0D5E9012114F8010B9047F7
:1005A000B442F8D32846FFF7C7FF70BD2DE9F041EC
:1005B0000646002410687529314616A510D0AFF301
:1005C0000080002802DA404213A507E031688A075C
:1005D00001D512A502E0490704D511A5012401E0C7
:1005E000AFF3008000210A2206F1240709E0B0FBE6
:1005F000F2FCB0FBF2F302FB1C00303078541846DA
:10060000491C0028F3D123462A463046BDE8F04174
:1006100000F06BBA000000002D0000002B0000006D
:100620002000000070B504460D4621461068AFF367
:1006300000802188090502D50F4A7A4402E00E4A5B
:100640007A440E32002104F1240305E000F00F0685
:100650000009965D5E54491C0028F7D120780023DC
:10066000000704D5702D02D009B1022311322046B3
:10067000BDE8704000F039BA064600002DE9F05F91
:10068000894604464FF0000ADFF824B1FB44C0F865
:1006900020A02046E168884700287DD0252806D084
:1006A000D4E901219047206A401C2062F1E700252F
:1006B0005F462046E16888472028064607DB312E42
:1006C00005D2B81910F8200C08B10543F1E7A807C6
:1006D00001D525F00405C4F81CA00027C4F818A013
:1006E0002A2E09D0304601F06DFD38B304EB87089F
:1006F000303EC8F8186019E059F8041B204604EB96
:1007000087029161E1688847012F064618D1E069A8
:10071000002820DA25F020051DE0D8F8180000EBAD
:10072000800006EB40003038C8F818002046E16829
:100730008847064601F046FD0028EED1012F0AD079
:100740002E2E08D12046E16888477F1C0646022FDE
:1007500045F02005C4DBA069002803DA404245F0DB
:100760000105A061E80701D025F01005A6B1A6F1AA
:100770004100192802D8203645F400654A46314622
:10078000204625604D46FFF775FD60B1012807D072
:10079000ED1D25F0070000E007E000F1080978E70B
:1007A00005F1040975E730467AE7206ABDE8F09F55
:1007B000DC4500002DE9F04791460F46804604468F
:1007C000002614F8015B2DB1FFF72EFE0068405D96
:1007D000C007F6D12B2D02D02D2D18D0641E4A460D
:1007E0003946204600F00DFA27B13968A14201D1FF
:1007F000C7F800804FF0020471050BD54042002875
:1008000003DD00F013F90460A007BDE8F08746F4AB
:100810008066E4E70028F8DA00F008F904606FF079
:100820000040F2E730B505460B462A4613F8014B67
:1008300012F8010B08B1A042F8D01CB1002802D078
:100840006D1CF1E7284630BD2DE9F0410E46054606
:10085000002400E0641C285D00F03AF90746305D92
:1008600000F036F9381A02D1295D0029F2D1BDE82D
:10087000F081421E12F8013F002BFBD111F8013B21
:10088000002B02F8013BF9D1704710B5203AC0F0B7
:100890000B80B1E81850203AA0E81850B1E8185081
:1008A000A0E81850BFF4F5AF5FEA027C24BFB1E8BE
:1008B0001850A0E8185044BF18C918C0BDE810402F
:1008C0005FEA827C24BF51F8043B40F8043B08BF38
:1008D0007047D20728BF31F8023B48BF11F8012BFF
:1008E00028BF20F8023B48BF00F8012B70474FF0AB
:1008F000000200B5134694469646203922BFA0E870
:100900000C50A0E80C50B1F12001BFF4F7AF09077B
:1009100028BFA0E80C5048BF0CC05DF804EB89006C
:1009200028BF40F8042B08BF704748BF20F8022BAF
:1009300011F0804F18BF00F8012B704710B5044626
:1009400010F0030F08BF11F0030F40F015804FF0B7
:10095000013E121FC0F20E8051F8043BA3EB0E0CB7
:100960002CEA030C1CEACE1C08BF40F8043BF0D074
:10097000A1F1040102F10402521E08DB11F8013B4F
:10098000002B00F8013BF7D1114600F089F9204611
:1009900010BD00004FF0013C50F8042B51F8043B0F
:1009A0009A4221D1A2EB0C03934313EACC1317D143
:1009B00050F8042B51F8043B9A4215D1A2EB0C03DA
:1009C000934313EACC130BD150F8042B51F8043B9A
:1009D0009A4209D1A2EB0C03934313EACC13DBD068
:1009E0004FF00000704700BFD01A01BAB1FA81F190
:1009F00001F0180122FA01F0CB40C1F12001DBB275
:100A0000C0B2C01A2CFA01F3D11A914311EAC311F2
:100A1000E6D1704770477047704700000048704744
:100A2000B008002000487047C80800200048704700
:100A3000A8080020704770477047704738B50446D3
:100A40000A4600206946AFF30080002808BF38BD81
:100A500002460099204600F049F9012038BD0120E6
:100A600000F06CB9F8B5AFF30080054600200C46E5
:100A7000102000BF0646A819A0420DD9324669468B
:100A80000020AFF30080070008BF00F057F900987E
:100A9000A04218BF0546C419FFF7C0FF056007460E
:100AA000F01D20F007004619284600F00AF8B4426D
:100AB00008BFF8BDA21B31463868BDE8F84000F019
:100AC00015B900210160C0E901107047102070477E
:100AD00010B50446FFF7A8FC0068005DC00602D50B
:100AE00004F1200010BD204610BD2DE9F0470D4651
:100AF00099469246044600F124080168880604D508
:100B0000E06921F01001216000E00120A84201DD30
:100B1000471B00E00027A1697A1902EB0900081AB7
:100B2000A0612078C00602D42046FFF7EFFC002623
:100B300008E0D4E901211AF806009047206A401C19
:100B4000761C20624E45F4DB2078C0060AD520468C
:100B5000FFF7DCFC06E0D4E9012130209047206A51
:100B6000401C2062381EA7F10107F4DC07E0D4E93D
:100B7000012118F805009047206A401C2062281EB9
:100B8000A5F10105F3DC2046FFF7D6FC207800062E
:100B900002D50220BDE8F0870120FBE701694A1C6D
:100BA00002610878704700B58FB0CDE901310021AE
:100BB000059105497944CDE9031011466846FFF7D0
:100BC0005DFD0FB000BD0000E5FFFFFF0A6802F801
:100BD000010B0A60704710B5436913B1AFF3008091
:100BE00001E0FFF7BAFC012010BD127800F12401EA
:100BF0000A7000224A700122EDE711684FF0FF32BF
:100C0000E9E72DE9F05F824615468B4600270AF199
:100C10000104B9460078302801D09DB113E014F8E2
:100C2000010B0127782803D0582801D045B10AE0EC
:100C30000DB1102D07D1002714F8010B102502E08B
:100C4000082500E00A250026B0460EE005FB080056
:100C500005FB06F101271FFA80F801EB1046B6F5F7
:100C6000803F00D3B94614F8010B294600F058F82C
:100C70000028EBDABBF1000F05D00FB1641E00E0D5
:100C80005446CBF80040B9F1000F06D0FFF7CEFE76
:100C900002210160C81EBDE8F09F48EA0640FAE75D
:100CA0004FF000020429C0F0128010F0030C3FF452
:100CB00020AECCF1040CBCF1020F18BF00F8012BE0
:100CC000A8BF20F8022BA1EB0C01FFF712BE5FEAD0
:100CD000C17C24BF00F8012B00F8012B48BF00F8AD
:100CE000012B704700487047A80800200346406861
:100CF0008C46002818BF88423CBF03464068F8D3A2
:100D000018681844884207D00CF1030020F007004F
:100D1000001D411A521A0146081D0A60FFF7BBBBAD
:100D20003A2800D2303820F02002412A01D3A2F123
:100D30003700884201D34FF0FF30704710B500F004
:100D400039F8BDE8104000F02FB870477546FFF73E
:100D5000C9FFAE4605006946534620F007008546A8
:100D600018B020B5FFF74EFBBDE820404FF000065D
:100D70004FF000074FF000084FF0000B21F0070183
:100D8000AC46ACE8C009ACE8C009ACE8C009ACE8C6
:100D9000C0098D46704710B50446AFF30080204669
:100DA000BDE81040FFF78DBA002801D000F02AB846
:100DB0007047000010B5012805D0002103A000F005
:100DC00027F8012010BD09A1F8E700005349475258
:100DD000544D454D3A204F7574206F66206865610B
:100DE00070206D656D6F7279000000003A204865D3
:100DF0006170206D656D6F727920636F72727570AE
:100E00007465640001491820ABBEFEE726000200AD
:100E100070B505460C460A2000E06D1C00F011F884
:100E200035B128780028F8D102E0641C00F009F8F8
:100E300014B120780028F8D1BDE870400A20AFF343
:100E4000008008B569468DF800000320ABBE08BDE0
:100E5000002100E0491C8142FCD37047D0F80034E7
:100E600012F0010F14BF0B438B43C0F8003412F093
:100E7000020FD0F8202414BF114322EA0101C0F868
:100E8000201470472DE9F00301264FF0000C0325D4
:100E9000C2F3411706FA0CF40C4211D0D0F8C48FFB
:100EA0004FEA4C0405FA04F928EA0908C0F8C48F8F
:100EB000D0F8C48F07FA04F448EA0404C0F8C44F19
:100EC0000CF1010C0CF0FF0CBCF1080FE2D3D0F8D0
:100ED00000C512F0010F14BF4CEA010C2CEA010C02
:100EE000C0F800C5D0F804C512F0020F14BF4CEAD8
:100EF000010C2CEA010CC0F804C5D0F808C512F0AA
:100F0000040F14BF4CEA010C2CEA010CC0F808C510
:100F1000D0F818C512F0080F14BF4CEA010C2CEAE7
:100F2000010CC0F818C512F0100FD0F83C2514BF02
:100F30000A438A43C0F83C25D0F80C2513F0010F72
:100F400014BF0A438A43C0F80C25D0F8102513F0CB
:100F5000020F14BF0A438A43C0F81025D0F81425A5
:100F600013F0040F14BF0A438A43C0F81425D0F8C5
:100F70001C2513F0080F14BF0A438A43C0F81C2530
:100F8000D0F8442513F4007F14BF0A438A43C0F805
:100F90004425D0F8402513F4407F14BF0A438A4308
:100FA000C0F84025D0F82825002B0CBF114322EAB9
:100FB0000101C0F82815BDE8F00370470E4AC0F3E0
:100FC0000741D26E01238B401A420C4A1ABF02EB32
:100FD000C101496852F83110020AD1F82C354FF09E
:100FE0000F0C0CFA02FC00F00F0023EA0C039040F7
:100FF0001843C1F82C05704700E00F40544800002A
:1010000050F82100704730B50C4605460022FFF726
:1010100025FF21462846BDE8304008230122FFF77E
:1010200031BF30B50C46054608230122FFF72AFFE1
:1010300021462846BDE830400122FFF70FBF30B5FA
:101040000C4605460222FFF709FF21462846BDE867
:10105000304009230122FFF715BF30B50C46054685
:101060000222FFF7FBFE21462846BDE83040082358
:101070000122FFF707BF30B50C4605460222FFF7F5
:10108000EDFE21462846BDE8304008230122FFF747
:10109000F9BE30B50C4605460222FFF7DFFE2146B9
:1010A0002846BDE8304008230122FFF7EBBE40F898
:1010B000212070470F4A116900F4302321F43021B8
:1010C000194310F4002F18BF41F04001116111695C
:1010D00011F0004FFBD008490968084A1140A1F1FE
:1010E0008052B2F5202218BF704700F00300044977
:1010F0000860704700C00F4000E00F400000FF7024
:10110000C8CF0F400022002998BF7047930003F119
:10111000804303F57C231B6B40F82230521C914224
:10112000F4D87047002200298CBF0B4B704710B4D5
:10113000940004F1804404F57C2450F822C0C4F8E3
:1011400030C0D3F810C01CF0004FFAD0521C9142AE
:10115000EED810BC7047000000C00F400448016981
:1011600041F040010161016911F0004FFBD070476F
:1011700000C00F4004490A6A10430862086910F071
:10118000004FFBD07047000000C00F40024900280C
:1011900014BFC8698869704700C00F4002480069E1
:1011A00046F2A0010840704700C00F4006490A6996
:1011B00022F0A00222F4C04210430861086910F036
:1011C000004FFBD07047000000C00F400448016989
:1011D00041F001010161016911F0004FFBD070473E
:1011E00000C00F40014800687047000000C00F4079
:1011F000014840687047000000C00F40034841604C
:10120000016911F0004FFBD07047000000C00F4093
:101210000B490A4AC1F860230A6912F0004FFBD05B
:10122000C860086910F0004FFBD00020C1F86003CF
:10123000086910F0004FFBD070470000549535A3AB
:1012400000C00F4010B5C0B0214800F07DFD00BFC8
:101250001F4800F08DFD0028FAD000F0CBFC0446BA
:10126000FFF77CFF0020FFF725FF44F22000FFF787
:101270009DFFFFF793FF0446224616A16846FFF73D
:1012800031F9684600F090FFFFF7A0FFFFF7AAFFD3
:101290000446224613A16846FFF724F9684600F089
:1012A00083FF0020FFF7A4FF0446224610A16846F2
:1012B000FFF718F9684600F077FF0020FFF766FF98
:1012C0000F49086008460068FFF754FF40B010BDA2
:1012D000001400F04C6F77426174203D2030782577
:1012E000780A0000525443203D2025640A00000083
:1012F0005254434D61746368203D2025640A000008
:10130000C40000202DE9F04104460E4600BF1D48F0
:1013100000F07AF80028FAD100222146194800F09E
:10132000BBF83146174800F079F80721154800F05E
:1013300071F800BF134800F061F80028FAD1114895
:1013400000F073F8C7B24FF47A70FFF781FD012205
:1013500021460C4800F0A0F807210A4800F05AF88E
:1013600000BF084800F04AF80028FAD1054800F00C
:1013700053F8C5B24FF47A70FFF76AFD2846BDE80E
:10138000F0810000000002402DE9F04104460F46C4
:10139000154600BF184800F037F80028FAD100229F
:1013A0002146154800F078F83946134800F036F821
:1013B0000321114800F02EF800BF0F4800F024F878
:1013C0000028FAD10C4800F030F8C6B229460A4885
:1013D00000F024F80521084800F01CF800BF06487A
:1013E00000F012F80028FAD1034800F01EF8C6B247
:1013F0003046BDE8F081000000000240406810F077
:10140000400018BF01207047406810F0010018BF6D
:101410000120704741607047806870478160704765
:10142000016A41F0100101627047406810F0010F3D
:1014300005D110F0120F1CBF00F01C0070470020F7
:1014400070470000036A43F010030362002A14BFD0
:101450000E4A0F4A02EB820301EB830302EB820286
:1014600092005B1EB3FBF2F2521EC260D0F8C02F96
:1014700012F0010F08BF7047064A1144521CB1FB1D
:10148000F2F1491E41F08001C1607047801A0600E8
:10149000A08601007F47370142EA410101607047A1
:1014A00010B5382024494875072024494875244937
:1014B000244800F029FA24490860084600684FF4DF
:1014C0007A71B0FBF1F4204600F076FC00F066FC87
:1014D00000F06BFC00F048F900F086F900F0D0F95C
:1014E000FFF7B0FE152000F03BF85021174800F040
:1014F00052FE00F067F800F09BF8154908600320E1
:1015000000F088F8E021152000F094F803210F2066
:1015100000F090F800F06CF80E490860152000F01B
:1015200059F80D4908600F2000F054F80B49086085
:1015300000F0CEF810BD00007000002098000020E0
:10154000002D3101500500F15C00002000C000407A
:1015500064000020600000206C0000206800002073
:101560001649042804BF086840F4803018D00528C4
:1015700004BF086840F4003012D0062812D00F28AB
:1015800015D0102838BF7047103800F01F01012215
:1015900002FA01F142090A4850F82200016070473E
:1015A00008607047086840F48020086070474FF07A
:1015B000E020016941F002010161704724ED00E083
:1015C000A049000010B5FEF78AFE002818BF0120D0
:1015D00010BD0000054A20F003015158096880073A
:1015E000C00E21FA00F0C0B27047000004490000AC
:1015F00006480068064A00F4E061002052F82030F6
:101600008B421CBF401C0828F8D370470CED00E04B
:10161000E4480000044951F82000044940F0FD70FE
:1016200040F0806008607047E44800000CED00E086
:10163000FEF75EBE084A20F00303D2581368800705
:10164000C00E4FF0FF0C0CFA00FC23EA0C0301FA69
:1016500000F0184310607047044900000844016816
:101660006FF352011143016012F0020F14BFB02159
:101670008C21016214BF4FF4306140F60C014162CD
:101680007047425842F001024250704708440168D6
:1016900011F0020F14BF5108511E01617047002A5A
:1016A000826814BF114322EA01018160704721F072
:1016B0003F031844036813F0020F18BF5208036970
:1016C0009A1A11F0010F14BFC261826170470000C5
:1016D00010B5204800F038FB1F4800F035FB00BF74
:1016E0001D4800F045FB0028FAD020211B48FFF7D9
:1016F00098FC0A23022220211848FFF7C3FB184850
:10170000FFF75CFC20211548FFF7B5FC0222D10150
:101710001448FFF7A3FF4FF47A624FF48071114829
:10172000FFF7B4FF4FF47A7240F207110D48FFF74C
:10173000BEFF012280210B48FFF7B1FF4FF48071FB
:101740000848FFF79EFF002280210648FFF7A7FF09
:1017500010BD0000004000F0090800F00010064035
:10176000061409000080024010B51B4800F0ECFA96
:1017700000BF194800F0FCFA0028FAD01648C01C37
:1017800000F0E2FA00BF1448C01C00F0F1FA002893
:10179000F9D01148C01D00F0D7FA00BF0E48C01D97
:1017A00000F0E6FA0028F9D001210C48FFF739FCD7
:1017B00001210B48FFF735FC02210948FFF731FCF6
:1017C00003210848FFF71FFC0A23012203210548D3
:1017D000FFF758FB10BD0000050800F00050024064
:1017E0000040064000D0034010B51E4800F0ACFA9F
:1017F0001D4800F0A9FA1D48FFF7E0FB1C48FFF761
:10180000DDFB04211B48FFF728FC08211948FFF7DE
:1018100016FC0122184801681848FFF713FE174804
:10182000FFF7FEFDFF220C212220FFF7ADFD04464D
:1018300000220D212220FFF7A7FD044600220E21E1
:101840002220FFF7A1FD0446002203211820FFF704
:101850009BFD0446FF2201211820FFF795FD044659
:1018600010BD0000002000F0010800F00208010097
:10187000020C0100005000405C000020000002400B
:1018800010B5144800F060FA134800F05DFA00BF8C
:10189000114800F06DFA0028FAD00120FFF78EFB06
:1018A00040F20140FFF78AFB03214FF04020FFF791
:1018B000F0FB60234FF4E13208480168084800F06B
:1018C0002EFC08A000F070FC20220121044800F04A
:1018D0005DFC10BD001800F0000800F05C00002066
:1018E00000C000400D0A4469676974616C20636C34
:1018F0006F636B206973207374617274696E672EF5
:101900002E2E0D0A000000002DE9F003AF4D024617
:101910002868AF4B1840A0F18053B3F5A02359D0ED
:1019200002F03809DFF8AC82C2F38414B9F1100F69
:1019300025D0B9F1300F04BF47F230504FF40013F7
:101940000DD04FF03800904304BF4FF40040C30166
:1019500005D012F0380F1CBF0020034613D09E4F55
:1019600012F4605F4FF0000618BF00222CD057F829
:10197000324044457DD307EBC2025268E1E00023C8
:1019800040461524EBE7A4F10900122822D293481F
:10199000D5F87CC04FF04C7350F824002CF01C0C90
:1019A000072CA8BF4CF0100CC5F87CC02E6D4FF46E
:1019B000002C16F4807FD2D1BCF1010C0AD02E6D20
:1019C00016F4807FF8D0CAE712F0380F18BFB9F1CB
:1019D000100F04D0BDE8F0034FF000007047C2F3D1
:1019E0000268DFF8FCC14FF0000257F83290E14581
:1019F00003D307EBC202526803E0521C062AF4D359
:101A00003246C5F8C020D5F8B020DFF8D8C102EAC8
:101A10000C0242F00042C5F8B020DFF8CCC1A4F1BE
:101A200009024C1E5CF828C0A444BCFBF1FCD5F8AC
:101A3000B0101943C5F8B01008EBC80101EB410420
:101A40006A4902EB420201EBC40101EB82046468C3
:101A5000C5F86441D5F864416FF0FF0808EB0C2C21
:101A600044EA0C0CC5F864C151F82210D5F8602185
:101A700000E061E002F400021143C5F86011D5F8FE
:101A80006011D5F86021C1F38921C2F30904D5F8AA
:101A90006421C2F3042202F1010CD5F8642102F0A2
:101AA0001F02521CB0FBF2F04A09C2F10008444385
:101AB000424301EB481104EB5212484302EB9020E1
:101AC000B0FBFCF041080846002257F832C08445BC
:101AD00003D307EBC200466802E0521C062AF4D387
:101AE000C5F8C060D5F8600110F4000F1DBFD5F82F
:101AF000B00040F08040C5F8B000D5F8600104BFE8
:101B000040F40000C5F860014FF40040D5F86821AA
:101B100012F0010F02D1401E0028F7DC002808BF98
:101B2000002148D0D5F8B000184340F0010040F043
:101B30001040C5F8B0003EE0521C062AFFF417AF73
:101B40003246C5F8C020D5F8602122F40002C5F85D
:101B50006021D5F8B020DFF898C002EA0C0242F00C
:101B60000042C5F8B020002908BF4FF0000C0AD091
:101B7000B0FBF1FCBCF1000F18BFACF1010C0CF193
:101B80000101B0FBF1F10846002257F832408442CF
:101B900003D307EBC200466802E0521C062AF4D3C6
:101BA000C5F8C060D5F8B00043EA8C22104340F07D
:101BB0000040C5F8B000D5F8B00020F47000C5F8BA
:101BC000B000BDE8F00308467047000000E00F4099
:101BD0000000FF700024F400144C0000F8490000DD
:101BE00040787D0100FC0FE0F0490000644A0000ED
:101BF000FF0300EF70B44B4D2A6E296F11F0004FB8
:101C000014BF01F0700002F03000202808BF4648E1
:101C100018D005DC88B1102808BF444812D009E06C
:101C2000302808BF47F230500CD0702808BF4FF45E
:101C3000004007D070BC002070477C203C4B00EA7D
:101C4000121018584FF0FF3311F0004F02D011F46A
:101C5000006F06D001F0004C02F400645CEA040C52
:101C600036D1D5F860C1D5F8644104F01F06C4F33D
:101C70000424641C761C16FB04F46400B0FBF4F02E
:101C8000CCF309044443CCF3892C00FB0CF0D5F8C9
:101C900010C004EB902042F480020CF4704CBCF5B0
:101CA000804F08BF234B13D009DCBCF5005F08BF91
:101CB000214B0DD0BCF5405F08BF204B08E0BCF5C0
:101CC000E04F08BF1E4B03D0BCF5104F08BF1D4BA3
:101CD00012F4800F21D011F0004F19D011F0804F75
:101CE00009D011F4006F0CD001F0004C02F4006236
:101CF0005CEA020205D0C1F3C551491CB0FBF1F00A
:101D00000BE04000C1F38651491CB0FBF1F004E048
:101D1000C2F3C351491CB0FBF1F0834238BF1846EF
:101D200070BC704700E00F4000093D000024F40043
:101D3000F8490000005A620200B4C40480F0FA02BC
:101D400040787D01002D3101C0F307230749C0B25F
:101D5000194401F07043C1F3130143EA411141EA10
:101D6000800040F0007001220260704700E60F40E2
:101D7000C0F307220849C0B2114401F07042C1F318
:101D8000130142EA411141EA800040F0007000680E
:101D9000002818BF0120704700EA0F404FF0E020F4
:101DA000016941F00501016170474FF0E0200169D0
:101DB00041F00201016170474FF0E021401E48618F
:101DC00070470000F0B5C3B069480068401C68491E
:101DD00008606848006810B367480068A0B9084602
:101DE00000684FF47A71B0FBF1F201FB1204604815
:101DF0000068B0FBF1F523462A4660A103A8FEF770
:101E000071FB03A800F0D0F95B480068401C5A49F8
:101E10000860012211466248FFF749F92BE0564855
:101E2000006800B3544800684FF47A71B0FBF1F2D7
:101E300001FB120450480068B0FBF1F54C48006803
:101E4000B0FBF1F201FB120649480068B0FBF1F764
:101E500033463A4653A103A8CDE90054FEF742FBAE
:101E600003A800F0A1F900204349086000220121E5
:101E70004B48FFF71CF95A48007B70B1594800687D
:101E800018B159480068032804D055480068401E1E
:101E900053490860524802F08EFA01F03FFD534862
:101EA000006848B1012001F02DFD28B900231A4631
:101EB0001946184600F0F6FA4D48008828B14C48FB
:101EC0000088401E4A4908802BE04FF47A70484948
:101ED00008800120474908704248006810B1424814
:101EE000006820B144480068401C434908604248EB
:101EF00000F0FCFD4148006898B1FFF773F9044613
:101F000021460020FFF77AF93B49086800EBD071C1
:101F10004910A0EB410121B9314A3949364801F055
:101F200063FC3848008828B136480088401E35498F
:101F3000088009E04FF4FA7032490880324800788E
:101F400080F00100304908703048008828B12F48DF
:101F50000088401E2D49088008E04FF4FA702B4994
:101F600008802B4801682B4802F046FA43B0F0BDC8
:101F700054000020340000205800002055535230F7
:101F80005F425554544F4E207072657373656420E0
:101F900061742025642E25303364730A000000002C
:101FA00000400640555352305F425554544F4E2026
:101FB00072656C65617365642061742025642E25EB
:101FC000303364730A4475726174696F6E2074698A
:101FD0006D653A2025642E25303364730A0A0000AB
:101FE0005401002004000020000000201800002000
:101FF0004000002044000020F400002010000020D9
:10200000440100203E000020430000203C0000204E
:10201000080000200C0000200448006840F4700014
:1020200002490860024803490860704788ED00E0F3
:102030000024F400C800002030B5C3B00020019097
:102040004FF4807103A8FEF752FC0121284800F0EC
:10205000A6F805462946264800F09BF814E02448D7
:1020600000F04CF8C0B2029002A903A8FEF701FCF0
:102070009DF808000D2800D10BE01D4800F04AF83B
:1020800010B9052000F0B5FD194800F043F800280C
:10209000E5D100BF174A01A903A801F019FE60B1FC
:1020A000002405E0134951F82400FEF7F4F9641CFC
:1020B00001988442F6DB43B030BD0E49019800F030
:1020C00053FE002405E00B4951F82400FEF7E3F924
:1020D000641C01988442F6DB002202210648FEF7C8
:1020E000E6FF002202210448FEF7E1FF00BFE2E71D
:1020F00000C000406807002000400640816911F0E0
:10210000100FFBD100687047826912F0200FFBD1DD
:10211000016070478069012121EA10107047D0F8F2
:1021200018C01CF0080FFAD1D0F82CC02CF0100CFD
:10213000C0F82CC0D0F830C02CF0010C2CF4407C3E
:10214000C0F830C0D0F830C0B1EB021F34BF4CF043
:10215000200C2CF0200CC0F830C038BF5208C90049
:10216000B1FBF2F1491C49088A09426201F03F01C2
:102170008162C36200218161C16A41F01001C162C4
:10218000016B40F201321143016370471143416317
:10219000704741647047826B114381637047002927
:1021A00014BF006CC06B704710B5044604E014F80F
:1021B000011B0348FFF7A8FF20780028F7D110BDC6
:1021C00000C0004030380A2801D2012070470020AA
:1021D000704730B5012A04D0022A0CD0032A1ED140
:1021E00013E083680B441833182493FBF4F504FBC5
:1021F0001533836014E043680B443C333C2493FB69
:10220000F4F504FB153343600AE003680B443C33E8
:102210003C2493FBF4F504FB1533036000E000BF9E
:1022200000BF30BDF0B589B0054600270A212868F7
:1022300090FBF1F201FB12000190286890FBF1F095
:102240000290686890FBF1F201FB1200039068684D
:1022500090FBF1F00490A86890FBF1F201FB1200F2
:102260000590A86890FBF1F00690152007900A20D1
:1022700008903048006868BB0024802627E0022CC4
:1022800001D0042C01D1802000E00020074600226C
:1022900006212220FFF778F801A850F824002649EB
:1022A000085C40EA070205212220FFF76DF8234869
:1022B000007840F0030000EA060206212220FFF722
:1022C00063F84FF47A70FEF7C3FD641C7610082C97
:1022D000D5DB2DE00024012628E0012C01D0032CC1
:1022E00001D1802000E000200746002206212220A4
:1022F000FFF74AF801A850F824001149085C40EAA9
:10230000070205212220FFF73FF80C48007840F033
:10231000030000EA060206212220FFF735F84FF4F9
:102320007A70FEF795FD641C7006060E082CD4DB4F
:1023300009B0F0BD14000020700000200C00002047
:102340009800002038B504460D462068009008A18A
:102350002846D4E90132FEF7C5F8207B08B10CA06D
:1023600000E00DA001462846FEF783FA38BD0000C4
:10237000416C61726D20253032643A253032643A06
:10238000253032640A456E61626C65643A20000053
:10239000547275650A00000046616C73650A00009E
:1023A00030B58BB004460D46284B0FCBCDE9092341
:1023B000CDE907011C22254910316846FEF765FA70
:1023C000207B58B1A068A968884207D16068696815
:1023D000884203D120682968884201D00BB030BD03
:1023E00002201B49086000201A4908601A49086049
:1023F00042F21071022001F07FFA16E000F006FCB4
:102400001648007818B12046FFF70CFF04E00022C0
:1024100006212220FEF7B8FF1148006828B90123E1
:102420006A4607A9072000F03DF8022001F06AFA89
:1024300018B10C4800680028E0D000F07BFC00F0E8
:10244000BBF800200249086000BFC7E764460000EF
:1024500000000020080000200400002043000020AD
:10246000180000203000002010B5002404738360A1
:102470004260016010BD10B50446002909DB3B290C
:1024800007DC002A05DB3B2A03DC002B01DB172BD2
:1024900002DD4FF0FF3010BD21606260A3600020BC
:1024A000F9E700002DE9F04104460D4616461F46A7
:1024B000002280213A48FFF7F2F847B33948046018
:1024C00000203949086017E03748006835F81010D7
:1024D0003448001D344A126820F81210324800684F
:1024E00056F820103148304A126840F822102E4821
:1024F0000068401C2C4908602B480068A042E3DBC0
:1025000000202949086001202949086045E0254844
:10251000006825490968884204DC002024490860D5
:10252000BDE8F0811F48001D1F49096830F81100FF
:1025300030B31C48001D1C49096830F811001D49C2
:102540000968B1FBF0F842464FF480711448FFF778
:102550009DF81448001D1449096830F81100154908
:102560000968B1FBF0F04FEA9008424640F20711CB
:102570000B48FFF79CF8012280210948FFF78FF8EC
:102580000A48094A126850F82210012001F0B4F9F3
:1025900005480068401C0449086000BFC0E700000F
:1025A00000800240640100205000002068030020E9
:1025B000180000205C00002010B5002003490860CE
:1025C000002280210248FFF76AF810BD18000020A1
:1025D00000800240FEB504460D461646072E70D216
:1025E000DFE806F06F040E1822384D00A06828447A
:1025F0001830182190FBF1F201FB1200A06061E09D
:10260000606828443C303C2190FBF1F201FB120051
:10261000606057E0206828443C303C2190FBF1F298
:1026200001FB120020604DE06069284442F2107105
:10263000084490FBF1F201FB12006061D4E903123F
:102640006069CDE900120290204694E80E0000F087
:1026500091F937E0206928440C300C2190FBF1F20D
:1026600001FB12002061D4E903126069CDE9001278
:102670000290204694E80E0000F07CF922E0E06829
:10268000401E411904F12000226950F82200014443
:1026900004F1200050F8220091FBF0F200FB121030
:1026A000E060E068401CE060D4E90421E068CDE926
:1026B00001210090204694E80E0000F05BF901E053
:1026C000FFE700BF00BFFEBDF0B589B0054680261C
:1026D00000270A21E86890FBF1F201FB120001904B
:1026E000E86890FBF1F002902869401C90FBF1F241
:1026F00001FB120003902869401C90FBF1F004904C
:10270000686990FBF1F201FB12000590686990FB8B
:10271000F1F090FBF1F201FB120006906421686970
:1027200090FBF1F00A2190FBF1F201FB12000790FF
:102730004FF47A71686990FBF1F008902D480068B9
:1027400050BB002425E0022C01D0042C01D18020B4
:1027500000E000200746002206212220FEF714FE9A
:1027600001A850F824002449085C40EA070205212A
:102770002220FEF709FE2148007806EA0002062121
:102780002220FEF701FE4FF47A70FEF761FB641C15
:102790007610082CD7DB2BE00126002426E0012C44
:1027A00001D0032C01D1802000E000200746002248
:1027B00006212220FEF7E8FD01A850F82400104968
:1027C000085C40EA070205212220FEF7DDFD0B48E8
:1027D000007806EA000206212220FEF7D5FD4FF41C
:1027E0007A70FEF735FB641C7006060E082CD6DBEB
:1027F00009B0F0BD14000020700000200C00002083
:1028000098000020F0B587B00546802600270A21F1
:10281000286890FBF1F201FB12000190286890FB00
:10282000F1F00290686890FBF1F201FB1200039056
:10283000686890FBF1F00490A86890FBF1F201FB4E
:1028400012000590A86890FBF1F006902D480068F2
:1028500050BB002425E0022C01D0042C01D18020A3
:1028600000E000200746002206212220FEF78CFD12
:1028700001A850F824002449085C40EA0702052119
:102880002220FEF781FD2148007806EA0002062199
:102890002220FEF779FD4FF47A70FEF7D9FA641C16
:1028A0007610062CD7DB2BE00024012626E0012C35
:1028B00001D0032C01D1802000E000200746002237
:1028C00006212220FEF760FD01A850F824001049DF
:1028D000085C40EA070205212220FEF755FD0B485F
:1028E000007806EA000206212220FEF74DFD4FF493
:1028F0007A70FEF7ADFA641C7006060E062CD6DB65
:1029000007B0F0BD14000020700000200C00002073
:102910009800002038B504460D46E0680090206914
:10292000431C03A128466269FDF7DCFD38BD0000A9
:10293000446174652025642D253032642D253032A4
:10294000640A000038B504460D462068009003A1D3
:102950002846D4E90132FDF7C5FD38BD54696D65DF
:1029600020253032643A253032643A253032640A08
:10297000000000002DE9F04F8DB004460F46904650
:102980009946DDE916AB189E3022284901A8FDF7CB
:102990007CFF2760C4F80480C4F80890C4F80CA039
:1029A0000020A061C4F810B06661642196FBF1F2CA
:1029B00001FB126139B13046F11706EB91718910B4
:1029C000A6EB810131B14FF4C87196FBF1F201FB26
:1029D000126109B9012100E00021E161002507E051
:1029E00001A850F8251004F1200040F825106D1CB6
:1029F0000B2DF5DDE169606A01446162002507E0A5
:102A000004F1200050F82500A1690844A0616D1C64
:102A10002069A842F4DCE068401EA1690844A06176
:102A2000204600F063F80DB0BDE8F08F344600009A
:102A30002DE9FE4306460F4615461C4642F20F702E
:102A4000844205DC002C03DB0B2D01DC002D03DAB6
:102A50004FF0FF30BDE8FE83642194FBF1F201FBEF
:102A6000124139B12046E11704EB91718910A4EBB2
:102A7000810131B14FF4C87194FBF1F201FB1241B5
:102A800009B9012100E000218846012D02D108F199
:102A90001C0003E006F1200050F825008146012FBC
:102AA00001DB4F4502DD4FF0FF30D3E7CDE9007584
:102AB0000294304696E80E00FFF75CFF0020C9E75D
:102AC00010B50446002909DB3B2907DC002A05DB99
:102AD0003B2A03DC002B01DB172B02DD4FF0FF301C
:102AE00010BD21606260A3600020F9E710B50168A5
:102AF0003C290DDB3C22016891FBF2F14268114454
:102B000041603C22016891FBF2F302FB131101606A
:102B100041683C290DDB3C22416891FBF2F182685F
:102B2000114481603C22416891FBF2F302FB1311D6
:102B300041608168182914DB1822816891FBF2F149
:102B40008269114481611822816891FBF2F1C268A7
:102B50001144C1601822816891FBF2F302FB13114A
:102B600081602BE04169491C4161D0E9062101F2F5
:102B70006D11511A81618169491CC1600021016197
:102B80006423426992FBF3F403FB14223AB14169D6
:102B9000CA1701EB92729210A1EB82023AB14FF484
:102BA000C873426992FBF3F403FB14220AB90122B1
:102BB00000E00022C261C1691C314162D0E90621F6
:102BC00001F26D118A42CDDA0AE000F12001D0E96C
:102BD000032351F82310511AC1600169491C016196
:102BE00000F12001D0E9032351F823108A42ECDCE4
:102BF00010BD00B503461946002000F07DFE00BF61
:102C0000002000F07FFE0028FAD100BD10B500F0D2
:102C100091F800212220FEF775FB3949087008461B
:102C200000783849097888424BD01420FFF7E1FF3B
:102C300000212220FEF766FB31490870002231484E
:102C400001782F48007800F07FFE2F4908600122AC
:102C50002C4801782A48007800F076FE2B4908605D
:102C60000122284801782648007800F06DFE2849A6
:102C700008600622234801782148007800F064FEAD
:102C80002449086007221F4801781D48007800F099
:102C90005BFE2149086004221A4801781848007830
:102CA00000F052FE1D4908600322164801781448BE
:102CB000007800F049FE1A4908601148007811496F
:102CC000087001211748FEF79BF91749086008466C
:102CD000006816490968884210D00520FFF789FF6F
:102CE0001148006818B901201149086002E000206D
:102CF0000F4908600C4800680C49086010BD0000CE
:102D000045000020460000201C000020200000207C
:102D100024000020280000202C000020300000208B
:102D20003800002000D003404C0000204800002064
:102D30003400002000200649086006490860064962
:102D4000086006490860064908600649086070473F
:102D50001C0000202000002024000020280000206B
:102D60002C000020300000202DE9F041C4B00546C1
:102D70000C46BAA12068FDF70DFE002812D1B8A0BC
:102D8000FFF712FABC48FFF70FFABCA0FFF70CFAE6
:102D9000C6A0FFF709FAD3A0FFF706FA002044B057
:102DA000BDE8F081DCA12068FDF74EFD00281DD1B3
:102DB000022D15D1DAA16068FDF746FD80B94FF408
:102DC000FA60002101220B46CDE9002102900A465B
:102DD000D548FFF7CFFDD5A0FFF7E6F90020DEE7E5
:102DE000DBA0FFF7E1F94FF0FF30D8E7DDA1206865
:102DF000FDF72AFD002849D1022D10D1DAA1606823
:102E0000FDF722FD48B1DAA16068FDF71DFD20B194
:102E1000D9A16068FDF718FD08B9012000E0002085
:102E200006463EB3D0A16068FDF70EFD38B904A98F
:102E3000BD48FFF787FD04A8FFF7B6F918E0CCA15D
:102E40006068FDF701FD38B904A9B748FFF762FDD6
:102E500004A8FFF7A9F90BE0C7A16068FDF7F4FC2F
:102E600030B904A9C648FFF76DFA04A8FFF79CF92A
:102E7000002094E7C3A0FFF797F9CCA0FFF794F9DF
:102E8000D4A0FFF791F94FF0FF3088E7DBA120686D
:102E9000FDF7DAFC002872D1032D10D1B2A16068D1
:102EA000FDF7D2FC48B1B2A16068FDF7CDFC20B1BE
:102EB000B1A16068FDF7C8FC08B9012000E000205E
:102EC0000646002E73D001AB02AA03A9A06800F049
:102ED000F3FB002821D0CAA0FFF766F9A4A160681F
:102EE000FDF7B2FC08B9CDA000E062A00746A0A1A2
:102EF0006068FDF7A9FC08B9C8A000E05DA08046A5
:102F000000974346C6A104A86268FDF7EBFA04A83F
:102F1000FFF74AF94FF0FF3041E793A16068FDF7F2
:102F200093FC90B9804801A90EC9FFF7C9FD28B1EB
:102F3000C6A0FFF739F94FF0FF3030E70020C7494E
:102F40000860C7A0FFF730F92EE089A16068FDF79F
:102F50007BFCA8B90298421E7348039B0199FFF7B6
:102F600067FD28B1C6A0FFF71FF94FF0FF3016E745
:102F70000120BA490860C6A0FFF716F914E022E064
:102F80007DA16068FDF760FC70B97D4801A90EC99C
:102F9000FFF771FA28B1C6A0FFF706F94FF0FF302E
:102FA000FDE6C8A0FFF700F90020F8E6FFE7CDA096
:102FB000FFF7FAF8DAA0FFF7F7F8E8A0FFF7F4F860
:102FC0004FF0FF30EBE6F4A12068FDF73DFC002850
:102FD00042D1022D10D164A16068FDF735FC48B1E3
:102FE00063A16068FDF730FC20B1ECA16068FDF7DB
:102FF0002BFC08B9012000E00020064646B35AA188
:103000006068FDF721FC30B9002094490860E5A014
:10301000FFF7CAF816E056A16068FDF715FC30B955
:1030200001208E490860E4A0FFF7BEF80AE0DBA1AA
:103030006068FDF709FC28B9032088490860E34867
:1030400001F01EF90020E2490860E2490860A6E6A6
:10305000E1A0FFF7A9F8D3E1DBE100003F000000A9
:10306000417661696C61626C6520636F6D6D616E44
:1030700064733A0A00000000C84C000009676574D8
:10308000203C54494D452F444154452F414C415219
:103090004D3E2020202020202020202020203A20CB
:1030A000676574207374617475730A0009736574BD
:1030B000203C54494D452F414C41524D2F444154E1
:1030C000453E203C78783A78783A78783E203A2025
:1030D00073657420636C6F636B20737461747573B4
:1030E0000A0000000972756E203C54494D452F447A
:1030F0004154452F535457415443483E20202020EB
:103100002020202020203A2072756E2066756E6384
:1031100074696F6E730A0000696E697400000000C4
:10312000636C6F636B000000F4000020436C6F63FE
:103130006B20726573657420746F20323030302DCF
:10314000312D312D30303A30303A30300A00000025
:1031500055736167653A20696E697420636C6F63AB
:103160006B0A00006765740074696D6500000000FB
:103170006461746500000000616C61726D000000A4
:103180004401002055736167653A206765742074B7
:10319000696D6520202D2072657475726E20636CD8
:1031A0006F636B2074696D650A0000002020202089
:1031B000202020676574206461746520202D2072B2
:1031C000657475726E20636C6F636B2064617465E7
:1031D0000A00000020202020202020676574206144
:1031E0006C61726D202D2072657475726E20616C39
:1031F00061726D207374617475730A007365740075
:10320000496E76616C69642074696D652F646174C0
:103210006520666F726D61740A00000078780000A6
:1032200055736167653A20736574202573203C25CA
:103230007378783A79793A7A7A3E2F3C25737878A0
:103240002D79792D7A7A3E0A00000000496E766168
:103250006C69642074696D650A000000000000203C
:10326000436C6F636B2074696D65207365742073A4
:1032700075636365737366756C6C790A0000000092
:10328000496E76616C696420646174650A000000AF
:10329000436C6F636B206461746520736574207385
:1032A00075636365737366756C6C790A0000000062
:1032B000496E76616C696420616C61726D2074691D
:1032C0006D650A00416C61726D2074696D652073D3
:1032D0006574207375636365737366756C6C790AC6
:1032E0000000000055736167653A207365742064BF
:1032F000617465203C796561722D6D6F6E74682D07
:103300006461793E202020202020202D20736574C8
:1033100020636C6F636B20646174650A00000000B9
:10332000202020202020207365742074696D652082
:103330003C68683A6D6D3A73733E2F3C68682D6D3A
:103340006D2D73733E20202D2073657420636C6F88
:10335000636B2074696D650A000000002020202046
:1033600020202073657420616C61726D203C686858
:103370003A6D6D3A73733E2F3C68682D6D6D2D73F9
:10338000733E202D2073657420616C61726D207412
:10339000696D650A0000000072756E0063646F77E6
:1033A0006E000000446973706C617920636C6F6318
:1033B0006B2074696D650A00446973706C617920D3
:1033C000636C6F636B20646174650A0054010020B4
:1033D000040000200800002055736167653A2072E0
:1033E000756E206461746520202D20646973706C93
:1033F000617920636C6F636B20646174650A0000FF
:1034000042A0FEF7D1FE4BA0FEF7CEFE4FF0FF30FC
:10341000C5E456A12068FDF717FA002833D1022D24
:103420000DD1AFF2AC216068FDF70EFA28B1AFF212
:1034300094016068FDF708FA08B9012000E0002057
:103440000646BEB1AFF2D0216068FDF7FDF930B994
:1034500001204849087348A0FEF7A6FE08E0AFF235
:10346000C4016068FDF7F0F910B9494800F008FFA1
:10347000002094E447A0FEF797FE53A0FEF794FEC9
:103480004FF0FF308BE45CA12068FDF7DDF90028E8
:1034900036D1022D0DD1AFF220316068FDF7D4F99D
:1034A00028B1AFF208116068FDF7CEF908B9012024
:1034B00000E000200646D6B1AFF244316068FDF767
:1034C000C3F930B900202B4908734DA0FEF76CFEFC
:1034D0000BE0AFF238116068FDF7B6F928B90020AB
:1034E0002B4908734BA0FEF75FFE002057E44EA067
:1034F000FEF75AFE5AA0FEF757FE4FF0FF304EE49B
:1035000063A0FEF751FE4FF0FF3048E4202020205A
:1035100020202072756E2074696D6520202D206436
:103520006973706C617920636C6F636B2074696D73
:10353000650A00002020202020202072756E206364
:10354000646F776E202D20646973706C61792061DF
:103550006E642073746172742074696D6572206387
:103560006F756E74646F776E0A000000656E61623D
:103570006C65000044010020416C61726D2069732C
:1035800020656E61626C6564206E6F770A000000D2
:103590005401002055736167653A20656E61626C65
:1035A0006520616C61726D20202D20656E61626CFA
:1035B000652074686520616C61726D20746F20678E
:1035C0006F206F66660A00002020202020202065E2
:1035D0006E61626C652063646F776E20202D2073AE
:1035E000746172742074696D657220636F756E7496
:1035F000646F776E0A00000064697361626C650035
:10360000416C61726D2069732064697361626C65DD
:10361000640A0000506175736520636F756E746491
:103620006F776E0A0000000055736167653A206489
:10363000697361626C6520616C61726D20202D2060
:1036400064697361626C652074686520616C617285
:103650006D20746F20676F206F66660A000000009F
:103660002020202020202064697361626C65206323
:10367000646F776E20202D2073746F702074696DD5
:10368000657220636F756E74646F776E0A00000058
:10369000436F6D6D616E64206E6F7420666F756E22
:1036A000642E205479706520273F2720666F722092
:1036B00068656C700A0000002DE9FF410D46164652
:1036C0001F4646A10098FDF7ADF808B13A2412E074
:1036D00043A10098FDF7A6F808B12D240BE041A105
:1036E0000098FDF79FF808B12F2404E04FF0FF3059
:1036F00004B0BDE8F081002269460098FDF75AF851
:10370000286000980078A04207D1FCF78DFE006881
:1037100000994978405C202802D04FF0FF30E7E75D
:1037200000BF02E00098401C00900098007878B13B
:10373000009800780D280BD0009800780A2807D050
:10374000FCF772FE006800990978405C2028E9D1F6
:1037500000BF002269460098FDF72CF83060009801
:103760000078A04207D1FCF75FFE00680099497815
:10377000405C202802D04FF0FF30B9E700BF02E0E4
:103780000098401C00900098007878B1009800786C
:103790000D280BD0009800780A2807D0FCF744FECB
:1037A000006800990978405C2028E9D100BF002218
:1037B00069460098FCF7FEFF38600098007850B129
:1037C000009800780D2806D0009800780A2802D0CA
:1037D0004FF0FF308CE700208AE700003A0000003D
:1037E0002D0000002F00000070B504460D4616465F
:1037F0000D480E490860FDF7F5FC0C494860182299
:1038000021460A480830FDF740F8084895E80E00C0
:1038100020300EC02C3896E80E002C300EC010213F
:103820003838FDF77FFC70BD3D564E01A8070020DB
:10383000FEB504460D46164610212D48FDF762FCE4
:103840002B4800682B49884228D008462849086040
:10385000FDF7C8FC2649486040F2E77005210B22BD
:103860000823CDE90021029000223B212046FFF7EA
:1038700081F80823002203212846FEF7F5FD0023E6
:103880000D22E921304600F08FFD0020FDF7C0FC3D
:10389000324629462046FFF7A7FF27E018221449A1
:1038A00008312046FCF7F1FF114A203207CA85E8AB
:1038B00007000F4A2C3207CA86E80700D4E9031232
:1038C0006069CDE900120290204694E80E00FFF7EF
:1038D00051F8FDF787FC07460020FDF789FC381AF0
:1038E0002168084420602046FFF700F9FEBD000073
:1038F000A80700203D564E01014A42F820107047AB
:10390000CC0000200146044850F8210008B10120F5
:1039100070470020FCE70000CC00002000200DE0F4
:10392000084951F8201039B1064951F82010491EB4
:10393000044A42F8201000E000BF401C0A28EFDBD8
:1039400070470000CC0000200346012090409843BF
:1039500028B101209040884308B901207047002019
:10396000FCE7000010B500241148016801208840E0
:1039700010490978FF2900D100E0002108400443E4
:103980000D48007B08B1402000E0002004430B48B4
:10399000007B20B10A48007808B1802000E00020B8
:1039A0000443E043C2B201211820FDF7EDFC10BD35
:1039B000000000200C0000204401002054010020E1
:1039C00043000020C0B00024FDF76AFD954896A191
:1039D00002686846FCF786FD6846FEF7E5FB00F0E6
:1039E00017FA964A96499748FFF722FF0120964911
:1039F000086069469348FEF78DFF6846FEF7D4FBE2
:103A000069469048FEF79EFF6846FEF7CDFB07E14A
:103A1000FFF7FCF8FFF7A6FF8A498948FEF7C0FCCC
:103A2000864800F055FC89480068C0B188480068A5
:103A300050B988490968481CC11700EB9171891079
:103A4000A0EB8101834A116000208149086082490E
:103A5000086008460168814800F0CEFCE0E080483C
:103A60000068C8B17A48006898B17B480068401C7B
:103A70007949086008460168784800F0BDFC76483E
:103A80000068032805DD002071490860724908605C
:103A9000C6E00020724908607248006868B16C484E
:103AA000006848B901206A4908606B490860084607
:103AB00001686A4800F0A0FCB2E06B48006868B199
:103AC0006A48006880F0010068490860624801683F
:103AD000624800F091FC0020634908606448006877
:103AE00008B1012404E06348006808B14FF0FF34D6
:103AF0005848006830B1012817D0022829D003287F
:103B000072D152E04F48FEF77DFE5148006858B12F
:103B10005748006810B95748006828B14E480268F5
:103B200021464848FEF756FD72E04648FEF7CCFDB8
:103B30004748006860B14E48006810B94D480068B9
:103B400030B145480268D21C21463E48FEF742FD8E
:103B50005EE03B48FEF766FB3D48006858B14448CC
:103B6000006810B94348006828B13B480268214604
:103B70003348FEF72EFB40480068A8B13048007B70
:103B800008B9012000E000202D4908730846007B99
:103B900008B13AA000E03FA0024643A16846FCF706
:103BA000A1FC6846FEF700FB32E0244800F0D4FA9E
:103BB0002748006858B12E48006810B92D480068A1
:103BC00028B12548026821461C4800F097FA2A4887
:103BD0000068D8B10020204908601D4908601748D6
:103BE000007B10B9012001E011E0002013490873A7
:103BF0000846007B08B12DA000E031A002462AA1B2
:103C00006846FCF76FFC6846FEF7CEFA00E000BF9E
:103C100000BFFFF78FF84FF47A70FDF719F900BF76
:103C2000F6E600005C00002053797374656D436C08
:103C30006F636B203D2025640A00000054010020C2
:103C400044010020F4000020100000201C0000208F
:103C50000400002000000020080000200C000020CC
:103C60002400002020000020380000201400002044
:103C7000280000202C00002030000020416C6172E0
:103C80006D20697320656E61626C6564206E6F776C
:103C900000000000416C61726D20697320646973DB
:103CA00061626C656400000025730A002053746132
:103CB000727420636F756E74646F776E000000001D
:103CC000506175736520636F756E74646F776E00F5
:103CD0002DE9F041C0B004460E4617464FF0FF35BF
:103CE00000BF00E0641C207888B120780D280ED039
:103CF00020780A280BD020782028F3D020780928B3
:103D0000F0D020780D28EDD020780A28EAD000BF26
:103D100044E0D6F80080002500E06D1C605D20289E
:103D200010D0605D09280DD0605D0D280AD0605D5F
:103D30000A2807D0605D28B1605D0D2802D0605D63
:103D40000A28EAD155B3681DFCF776FB47F828002E
:103D500057F828002A462146FCF7F0FD002057F8C6
:103D6000281048553068401C30602C4400BF00E0EB
:103D7000641C207888B120780D280ED020780A287D
:103D80000BD020782028F3D020780928F0D0207894
:103D90000D28EDD020780A28EAD000BF15B1306890
:103DA0001028B6DD306810280FDD0BA16846326898
:103DB000FCF798FB6846FEF7F7F90AA0FEF7F4F95E
:103DC0004FF0FF3040B0BDE8F081306810B94FF0DF
:103DD000FF30F7E70020F5E761726763203D20259B
:103DE000640A0000436F6D6D616E642070617273D0
:103DF00065206572726F723A20746F6F206D616E0C
:103E00007920617267756D656E74730A0000000039
:103E100030B59DB01C22444916A8FCF736FD382267
:103E200041491C3108A8FCF730FD20223E4954319D
:103E30006846FCF72AFD8025012308AA16A90E2052
:103E4000FEF730FB0120394908603949086040F627
:103E5000B8310020FFF750FD2DE00024802528E038
:103E6000002206212220FDF78FFAC4F107005DF839
:103E7000200030490A5C05212220FDF785FA2A46F8
:103E800006212220FDF780FA4FF47A70FCF7E0FF5C
:103E900029480078FF2805D0002201211820FDF7CD
:103EA00073FA04E0FF2201211820FDF76DFA641C6B
:103EB0006D10082CD4DB0020FFF724FD0028CCD1A6
:103EC000FF2201211820FDF75FFA00201749086042
:103ED000174908601948FEF767F91948FEF764F9B1
:103EE00018A0FEF761F920A0FEF75EF927A0FEF703
:103EF0005BF934A0FEF758F940A0FEF755F94CA045
:103F0000FEF752F957A0FEF74FF963A0FEF74CF900
:103F10006EA0FEF749F90A48FEF746F90748FEF792
:103F200043F91DB030BD0000C0450000080000206E
:103F300004000020700000200C000020104D000044
:103F4000804C000020202020206F386F202020206F
:103F5000202020202020202020202020202E202053
:103F6000206F6F6F6F0A0000202020202022222760
:103F70002020202020202020202020202020202E33
:103F80006F38202020603838380A00002020202098
:103F90006F6F6F6F202020206F6F6F6F6F6F6F6F6D
:103FA000202E6F3838386F6F2020383838202E6F29
:103FB0006F2E2020206F6F6F6F202020206F6F6F7B
:103FC0000A0000002020202060383838202020649B
:103FD00027222237643850202020203838382020EB
:103FE0002020383838502259383862202020603854
:103FF000382E20202E38270A000000002020202004
:104000002038383820202020202E643850272020C7
:104010002020203838382020202038383820202010
:10402000383838202020206038382E2E38270A00D3
:1040300020202020203838382020202E6438502797
:1040400020202E50202020383838202E20203838AC
:104050003820202038383820202020206038383878
:10406000270A0000202020206F3838386F2064385D
:104070003838383838385020202020223838382234
:10408000206F3838386F206F3838386F2020202064
:10409000202E38270A000000202020202020202069
:1040A0002020202020202020202020202020202010
:1040B0002020202020202020202020202020202000
:1040C000202E6F2E2E50270A0000000020202020D6
:1040D00020202020202020202020202020202020E0
:1040E00020202020202020202020202020202020D0
:1040F000202020202060593850270A0030B5012A9E
:1041000004D0022A0CD0032A23D113E083680B4485
:104110003C333C2493FBF4F504FB1533836019E036
:1041200043680B443C333C2493FBF4F504FB153308
:1041300043600FE001EB8104036803EB440303F5E4
:104140007A734FF47A7493FBF4F504FB1533036030
:1041500000E000BF00BF30BDF0B589B00546802645
:1041600000270A21286890FBF1F090FBF1F201FB97
:10417000120001906421286890FBF1F002900A215E
:10418000686890FBF1F201FB12000390686890FBF5
:10419000F1F00490A86890FBF1F201FB1200059089
:1041A000A86890FBF1F006900D2007900C20089075
:1041B0002F48006860BB002427E0022C01D0042CAB
:1041C00001D1802000E000200746002206212220A5
:1041D000FDF7DAF801A850F824002649085C40EA07
:1041E000070205212220FDF7CFF82348007840F090
:1041F000030000EA060206212220FDF7C5F84FF46D
:104200007A70FCF725FE641C7610082CD5DB2DE0B7
:104210000024012628E0012C01D0032C01D18020AC
:1042200000E000200746002206212220FDF7ACF81E
:1042300001A850F824001149085C40EA0702052152
:104240002220FDF7A1F80C48007840F0030000EAB6
:10425000060206212220FDF797F84FF47A70FCF74A
:10426000F7FD641C7006060E082CD4DB09B0F0BD07
:1042700014000020700000200C0000209800002096
:1042800010B50446207B18B104A0FDF78DFF04E0B3
:104290000AA0FDF789FF0120207310BD436F756EE2
:1042A00074646F776E2068617320616C72656164FD
:1042B0007920737461727465640A000053746172CA
:1042C0007420636F756E74646F776E0A000000006F
:1042D00010B58CB00446284B0FCBCDE90A23CDE9AD
:1042E00008011C222449103101A8FCF7CEFA207BDA
:1042F00028B1206818B9606808B9A06808B10CB086
:1043000010BD002020731DA0FDF74EFF03202049A3
:10431000086000201F4908601F49086041F2883189
:104320000320FFF7E9FA16E0FEF770FC1B4800785F
:1043300018B12046FFF710FF04E0002206212220DA
:10434000FDF722F81648006828B9012301AA08A938
:104350000720FEF7A7F80320FFF7D4FA18B1114899
:1043600000680028E0D0FEF7E5FCFEF725F9002004
:104370000749086000BFC2E7904600000A3E3E3E83
:104380002054696D65206973207570210A00000052
:10439000000000200800002004000020430000204E
:1043A000180000203000002010B5002404730160C4
:1043B0004260836010BDD0E900121144826811444C
:1043C00001B970470168002905DA4168491E41605A
:1043D00040F2E73101604168002904DA8168491E32
:1043E00081603B2141608168002903DA002101607E
:1043F0004160816000BFE4E702461078214B1B68F2
:10440000F3B931B1012906D002290AD0032914D108
:104410000DE0FF2013E080F00F00C3B243F0F00086
:104420000DE080F03000C3B243F0CF0007E080F031
:10443000C000C3B243F03F0001E0FF2000BF1EE018
:1044400031B1012906D002290AD0032914D10DE087
:10445000FF2013E080F0F000C3B243F00F000DE046
:1044600080F00C00C3B243F0F30007E080F00300DB
:10447000C3B243F0FC0001E0FF2000BF00BF10709A
:10448000704700001400002010B500290AD00878F9
:10449000002807D005487844FCF77CFA002801D0B2
:1044A000002010BD0248784410BD0000E208000062
:1044B000DA0800004FF04070E1EE100A704700008B
:1044C000303132333435363738390D0A00000000C8
:1044D00000000000000000000000000000000000DC
:1044E00000000000000000000000000000000000CC
:1044F00000000000000000000000000000000000BC
:1045000000000000000000000000000000000000AB
:10451000000000000000000000000000000000009B
:10452000000000000000000000000000000000008B
:10453000000000000000000000000000000000007B
:10454000000000000000000000000000000000006B
:10455000000000000000000000000000000000005B
:10456000000000000000000000000000000000004B
:10457000000000000000000000000000000000003B
:10458000000000000000000000000000000000002B
:10459000000000000000000000000000000000001B
:1045A000000000000000000000000000000000000B
:1045B00000000000000000000000000000000000FB
:1045C000050126014A015D018801B801EE010B02D7
:1045D0004B029302BA0210037003DC039001000047
:1045E0009001000090010000900100009001000087
:1045F0009001000090010000900100009001000077
:104600009001000090010000900100009001000066
:1046100090010000020000000100000009000000FD
:104620000100000001000000010000000000000087
:10463000010000001F0000001C0000001F0000001F
:104640001E0000001F0000001E0000001F000000F0
:104650001F0000001E0000001F0000001E000000E0
:104660001F000000050126014A015D018801B80113
:10467000EE01000090010000900100009001000098
:1046800090010000900100009001000090010000E6
:10469000050126014A015D018801B801EE01000013
:1046A000640000006400000064000000640000007A
:1046B000640000006400000064000000004000404E
:1046C0001000000000800540100000000050004075
:1046D0001100000000900540110000000060004043
:1046E0001200000000A00540120000000070004011
:1046F0001300000000B0054013000000004002401D
:104700001400000000C005401400000000500240EA
:104710002E00000000D005402E0000000060024086
:104720002F00000000E005402F0000000070024054
:104730003000000000F005403000000000D00340D1
:104740004600000000000640460000000010064041
:1047500047000000002006404800000000300640EE
:104760007F0000000040064080000000005006402E
:1047700084000000006006408C0000000040004003
:1047800010000000008005401000000000500040B4
:104790001100000000900540110000000060004082
:1047A0001200000000A00540120000000070004050
:1047B0001300000000B0054013000000004002405C
:1047C0001400000000C0054014000000005002402A
:1047D0002E00000000D005402E00000000600240C6
:1047E0002F00000000E005402F0000000070024094
:1047F0003000000000F005403000000000D0034011
:104800004300000000000640430000000010064086
:104810004400000000200640450000000030064033
:1048200058000000004006405900000000500640BB
:104830005C0000000060064064000000007006405C
:104840006C000000008006406D00000000900640F3
:104850007F00000000400040008005400050004004
:10486000009005400060004000A00540007000403E
:1048700000B005400040024000C00540005002402A
:1048800000D005400060024000E00540007002409A
:1048900000F0054000D00340000006400010064034
:1048A0000010064000200640002006400030064070
:1048B00000300640004006400040064000500640E0
:1048C0000050064000600640006006400070064050
:1048D00000700640008006400080064000900640C0
:1048E00000900640000700000006000000050000E0
:1048F00000040000000300000002000000010000AE
:10490000000000000000000018ED00E01CED00E0D9
:1049100020ED00E000E400E004E400E008E400E052
:104920000CE400E010E400E014E400E018E400E02F
:104930001CE400E020E400E024E400E028E400E0DF
:104940002CE400E030E400E034E400E038E400E08F
:104950003CE400E040E400E044E400E048E400E03F
:104960004CE400E050E400E054E400E058E400E0EF
:104970005CE400E060E400E064E400E068E400E09F
:104980006CE400E070E400E074E400E078E400E04F
:104990007CE400E080E400E084E400E088E400E0FF
:1049A00000E100E004E100E008E100E00CE100E0EB
:1049B00010E100E080E100E084E100E088E100E057
:1049C0008CE100E090E100E000E200E004E200E0C1
:1049D00008E200E00CE200E010E200E080E200E02B
:1049E00084E200E088E200E08CE200E090E200E097
:1049F00000688909001C4E0E40420F0000201C0078
:104A000080841E0000802500999E360000403800FA
:104A100000093D0000803E0000004B00404B4C0070
:104A200000204E00808D5B0000C05D0000807000A3
:104A300000127A0000007D0080969800001BB700ED
:104A40000080BB00C0E8CE00647ADA000024F400E5
:104A50000000FA0080A81201002D310100366E011D
:104A600040787D01400000000000000000010000CF
:104A70003E0008000000000000010000A00000004F
:104A8000020000000001000034540100000000009A
:104A9000000100002B700600000000000001000073
:104AA00028000000000000000001000027000100B5
:104AB00000000000000100002000000000000000D5
:104AC0000001000050000000020000000001000092
:104AD0001AAC00000000000000010000179409005B
:104AE0000000000000010000169805000000000012
:104AF00000010000140000000000000000010000A0
:104B0000138008000000000000010000A000000069
:104B1000080000000001000010000000000000007C
:104B20000001000028000000020000000001000059
:104B300040000000040000000001000060000000D0
:104B400000000000000100005D000C0000000000FB
:104B50000001000050000000000000000001000003
:104B60004E000200000000000001000041AC010006
:104B700000000000000100003C00000000000000F8
:104B8000000100003A800900000000000001000060
:104B900030000000000000000001000028000000BC
:104BA00000000000000100002700010000000000DC
:104BB000000100002360060000000000000100006A
:104BC0002160080000000000000100001E0000003D
:104BD00000000000000100001DC0040000000000F3
:104BE0000001000050000000020000000001000071
:104BF0001800000000000000000100001400000088
:104C0000000000000001000060000000040000003F
:104C1000000100000024F40030003000005A62025D
:104C20009100910000879303D200D20000B4C40425
:104C30001301130100E1F50554015401000E27078B
:104C400095019501303132333435363738394142A8
:104C500043444546403058003031323334353637DE
:104C6000383961626364656640307800040000088A
:104C70000000000000000002000100001000000021
:104C80002020202020202020202020202020202024
:104C90002020202020202020202020202020202014
:104CA0002020202020202020202020202020202004
:104CB00020202020202020202020202020202020F4
:104CC0002020200A0000000009696E697420636CCE
:104CD0006F636B20202020202020202020202020F7
:104CE000202020202020202020203A20696E746976
:104CF000616C697A652074686520636C6F636B20F2
:104D0000746F2030303A30303A30300A0000000002
:104D10003D3D3D3D3D3D3D3D3D3D3D3D3D3D3D3DC3
:104D20003D3D3D3D3D3D3D3D3D3D3D3D3D3D3D3DB3
:104D30003D3D3D3D3D3D3D3D3D3D3D3D3D3D3D3DA3
:104D40003D3D3D3D3D3D3D3D3D3D3D3D3D3D3D3D93
:104D50003D3D3D0A00000000884E0000000000209C
:104D6000CC0000003C020000544F0000CC000020AA
:104D70003C0A01005802000010010000430000003E
:104D8000F8FFFFFF0040404040404040404041416C
:104D90004141414040404040404040404040404010
:104DA00040404040400502020202020202020202AA
:104DB00002020202022020202020202020202002A7
:104DC0000202020202029090909090901010101037
:104DD00010101010101010101010101010101010D3
:104DE0000202020202028888888888880808080867
:104DF0000808080808080808080808080808080833
:104E0000020202024000000000000000000000005A
:104E10000000000000000000000000000000000092
:104E20000000000000000000000000000000000082
:104E30000000000000000000000000000000000072
:104E40000000000000000000000000000000000062
:104E50000000000000000000000000000000000052
:104E60000000000000000000000000000000000042
:104E70000000000000000000000000000000000032
:104E80000000000000000000000000000000000022
:104E900000000000FF000000000000000000000013
:104EA0000000000000000000000000000000000002
:104EB00000000000000000000000000000000000F2
:104EC00000000000000000000000000000FFFF00E4
:104ED00001000000000000000000000000000000D1
:104EE00000000000000000000000000000000000C2
:104EF00000000000000000003F065B4F666D7D076C
:104F00007F6F777C585E79715C00000000000000C4
:104F10000000000000000000000000000000000091
:104F20003F305B79746D6F387F7D7E6743734F4E82
:104F30000000000000000000000000000000000071
:104F40000000000000000000000000000000000061
:044F50000024F40045
:0400000500000201F4
:00000001FF
