:020000040000FA
:10000000B0040120F1020000F9020000FB02000030
:10001000FD020000FF0200000103000000000000DC
:1000200000000000000000000000000003030000CA
:10003000050300000000000007030000691D000028
:100040000B0300000D0300000F030000110300006C
:1000500013030000AD1F0000170300001903000088
:100060001B0300001D0300001F030000210300000C
:1000700023030000250300002703000029030000DC
:100080002B0300002D0300002F03000031030000AC
:10009000330300003503000037030000390300007C
:1000A0003B0300003D0300003F030000410300004C
:1000B000430300004503000047030000490300001C
:1000C0004B0300004D0300004F03000051030000EC
:1000D00053030000550300005703000059030000BC
:1000E0005B0300005D0300005F030000610300008C
:1000F000630300006503000067030000690300005C
:100100006B0300006D0300006F030000710300002B
:1001100073030000750300007703000079030000FB
:100120007B0300007D0300007F03000081030000CB
:10013000830300008503000087030000890300009B
:100140008B0300008D0300008F030000A903000053
:100150000000000000000000AB030000AD03000041
:10016000AF030000B103000000000000B303000073
:10017000B5030000B7030000B9030000BB03000093
:10018000BD030000BF030000C1030000C303000063
:10019000C5030000C7030000C9030000CB03000033
:1001A000CD030000CF030000D1030000D303000003
:1001B000D5030000D7030000D9030000DB030000D3
:1001C000DD030000DF030000E1030000E3030000A3
:1001D000E5030000E7030000E9030000EB03000073
:1001E000ED030000EF030000F1030000F303000043
:1001F000F5030000F7030000F9030000FB03000013
:1002000000F002F800F051F80AA090E8000C8244D7
:100210008344AAF10107DA4501D100F046F8AFF2B4
:10022000090EBAE80F0013F0010F18BFFB1A43F0D4
:10023000010318471043000030430000103A24BF68
:1002400078C878C1FAD8520724BF30C830C144BF3B
:1002500004680C607047000000230024002500267D
:10026000103A28BF78C1FBD8520728BF30C148BF19
:100270000B607047642900F09581732900F08D842C
:10028000002070471FB503F067FD9DE8030000F0F4
:10029000B9FB00F097FB04000020002103F046FDAD
:1002A000401C60601FBD10B510BD00F01FFD114661
:1002B000FFF7E8FF03F060F900F03DFD03B4FFF73E
:1002C000F2FF03BC00F06EFDEFF3108072B67047D2
:1002D000EFF310807047EFF3108062B6704730BFC5
:1002E000704780F311887047EFF31180704700006A
:1002F0004548804745480047FEE7FEE7FEE7FEE742
:10030000FEE7FEE7FEE7FEE7FEE7FEE7FEE7FEE7C5
:10031000FEE7FEE7FEE7FEE7FEE7FEE7FEE7FEE7B5
:10032000FEE7FEE7FEE7FEE7FEE7FEE7FEE7FEE7A5
:10033000FEE7FEE7FEE7FEE7FEE7FEE7FEE7FEE795
:10034000FEE7FEE7FEE7FEE7FEE7FEE7FEE7FEE785
:10035000FEE7FEE7FEE7FEE7FEE7FEE7FEE7FEE775
:10036000FEE7FEE7FEE7FEE7FEE7FEE7FEE7FEE765
:10037000FEE7FEE7FEE7FEE7FEE7FEE7FEE7FEE755
:10038000FEE7FEE7FEE7FEE7FEE7FEE7FEE7FEE745
:10039000FEE7FEE7FEE7FEE7FEE7FEE7FEE7FEE735
:1003A000FEE7FEE7FEE7FEE7FEE7FEE7FEE7FEE725
:1003B000FEE7FEE7FEE7FEE7FEE7FEE7FEE7FEE715
:1003C000FEE7FEE7FEE7FEE7FEE7FEE7FEE7FEE705
:1003D000FEE7FEE7FEE7FEE7FEE7FEE7FEE7FEE7F5
:1003E000FEE7FEE7FEE7FEE7FEE7FEE7FEE7FEE7E5
:1003F000FEE7FEE7FEE7FEE7FEE7FEE70448054905
:10040000054A064B704700008D1F000001020000E6
:10041000B0020020B0040120B0020120B00201208F
:1004200010B500F0CFFA001D10BD00BF013900006B
:1004300070B5064600F0C2FA056806F10B0020F020
:100440000704B4429CBF002070BD2B466A68BAB155
:100450001068A04210D304F1080188423CBF5068E4
:10046000586007D35168101941601168091B016079
:1004700058601460101D70BD13465268002AE7D101
:100480002146284600F0AAFA0028DED170BD70B5DA
:100490000446051F00F092FA0068002C14BF44685F
:1004A00070BD002C18BFAC423CBF20466468F8D336
:1004B00001680A18AA4218BF456003D12A68054698
:1004C0001144016028684119A1421CBF6C6070BDD5
:1004D0006168696021680844286070BD0FB41CB56C
:1004E000074B06AA7B4469460090059800F02BFB59
:1004F0000020694600F03AFB1CBC5DF814FB0000CC
:100500008506000070B5044685690068C10601D5FE
:10051000302600E02026C00707D070BDD4E90121B5
:1005200030469047206A401C20626D1EF6D570BD93
:1005300070B5044685690078C00707D170BDD4E95D
:10054000012120209047206A401C20626D1EF6D5B4
:1005500070BD70B50C460546012A05D02878800686
:1005600000D5EA69002302E0012305E05B1C934209
:1005700002D2E05C0028F9D1A869E618C01AA86187
:10058000286A184428622846FFF7BCFF04E0D5E932
:10059000012114F8010B9047B442F8D32846FFF725
:1005A000C7FF70BD2DE9F04106460024106875298B
:1005B000314616A510D0AFF30080002802DA404281
:1005C00013A507E031688A0701D512A502E04907A3
:1005D00004D511A5012401E0AFF3008000210A2217
:1005E00006F1240709E0B0FBF2FCB0FBF2F302FBDA
:1005F0001C00303078541846491C0028F3D123469B
:100600002A463046BDE8F04100F03FBA0000000045
:100610002D0000002B000000200000002DE9F05FFD
:10062000894604464FF0000ADFF824B1FB44C0F8C5
:1006300020A02046E168884700287DD0252806D0E4
:10064000D4E901219047206A401C2062F1E700258F
:100650005F462046E16888472028064607DB312EA2
:1006600005D2B81910F8200C08B10543F1E7A80726
:1006700001D525F00405C4F81CA00027C4F818A073
:100680002A2E09D0304601F057FD38B304EB870815
:10069000303EC8F8186019E059F8041B204604EBF6
:1006A00087029161E1688847012F064618D1E06909
:1006B000002820DA25F020051DE0D8F8180000EB0E
:1006C000800006EB40003038C8F818002046E1688A
:1006D0008847064601F030FD0028EED1012F0AD0F0
:1006E0002E2E08D12046E16888477F1C0646022F3F
:1006F00045F02005C4DBA069002803DA404245F03C
:100700000105A061E80701D025F01005A6B1A6F10A
:100710004100192802D8203645F400654A46314682
:10072000204625604D46FFF7A5FD60B1012807D0A2
:10073000ED1D25F0070000E007E000F1080978E76B
:1007400005F1040975E730467AE7206ABDE8F09FB5
:10075000703E00002DE9F04791460F468046044662
:10076000002614F8015B2DB1FFF75AFE0068405DCA
:10077000C007F6D12B2D02D02D2D18D0641E4A466D
:100780003946204600F00DFA27B13968A14201D15F
:10079000C7F800804FF0020471050BD540420028D5
:1007A00003DD00F013F90460A007BDE8F08746F40C
:1007B0008066E4E70028F8DA00F008F904606FF0DA
:1007C0000040F2E730B505460B462A4613F8014BC8
:1007D00012F8010B08B1A042F8D01CB1002802D0D9
:1007E0006D1CF1E7284630BD2DE9F0410E46054667
:1007F000002400E0641C285D00F03AF90746305DF3
:1008000000F036F9381A02D1295D0029F2D1BDE88D
:10081000F081421E12F8013F002BFBD111F8013B81
:10082000002B02F8013BF9D1704710B5203AC0F017
:100830000B80B1E81850203AA0E81850B1E81850E1
:10084000A0E81850BFF4F5AF5FEA027C24BFB1E81E
:100850001850A0E8185044BF18C918C0BDE810408F
:100860005FEA827C24BF51F8043B40F8043B08BF98
:100870007047D20728BF31F8023B48BF11F8012B5F
:1008800028BF20F8023B48BF00F8012B70474FF00B
:10089000000200B5134694469646203922BFA0E8D0
:1008A0000C50A0E80C50B1F12001BFF4F7AF0907DC
:1008B00028BFA0E80C5048BF0CC05DF804EB8900CD
:1008C00028BF40F8042B08BF704748BF20F8022B10
:1008D00011F0804F18BF00F8012B704710B5044687
:1008E00010F0030F08BF11F0030F40F015804FF018
:1008F000013E121FC0F20E8051F8043BA3EB0E0C18
:100900002CEA030C1CEACE1C08BF40F8043BF0D0D4
:10091000A1F1040102F10402521E08DB11F8013BAF
:10092000002B00F8013BF7D1114600F089F9204671
:1009300010BD00004FF0013C50F8042B51F8043B6F
:100940009A4221D1A2EB0C03934313EACC1317D1A3
:1009500050F8042B51F8043B9A4215D1A2EB0C033A
:10096000934313EACC130BD150F8042B51F8043BFA
:100970009A4209D1A2EB0C03934313EACC13DBD0C8
:100980004FF00000704700BFD01A01BAB1FA81F1F0
:1009900001F0180122FA01F0CB40C1F12001DBB2D5
:1009A000C0B2C01A2CFA01F3D11A914311EAC31153
:1009B000E6D17047704770477047000000487047A5
:1009C00054020020004870476C0200200048704725
:1009D0004C020020704770477047704738B5044696
:1009E0000A4600206946AFF30080002808BF38BDE2
:1009F00002460099204600F049F9012038BD012047
:100A000000F06CB9F8B5AFF30080054600200C4645
:100A1000102000BF0646A819A0420DD932466946EB
:100A20000020AFF30080070008BF00F057F90098DE
:100A3000A04218BF0546C419FFF7C0FF056007466E
:100A4000F01D20F007004619284600F00AF8B442CD
:100A500008BFF8BDA21B31463868BDE8F84000F079
:100A600015B900210160C0E90110704710207047DE
:100A700010B50446FFF7D4FC0068005DC00602D53F
:100A800004F1200010BD204610BD2DE9F0470D46B1
:100A900099469246044600F124080168880604D568
:100AA000E06921F01001216000E00120A84201DD91
:100AB000471B00E00027A1697A1902EB0900081A18
:100AC000A0612078C00602D42046FFF71BFD002657
:100AD00008E0D4E901211AF806009047206A401C7A
:100AE000761C20624E45F4DB2078C0060AD52046ED
:100AF000FFF708FD06E0D4E9012130209047206A85
:100B0000401C2062381EA7F10107F4DC07E0D4E99D
:100B1000012118F805009047206A401C2062281E19
:100B2000A5F10105F3DC2046FFF702FD2078000661
:100B300002D50220BDE8F0870120FBE701694A1CCD
:100B400002610878704700B58FB0CDE9013100210E
:100B5000059105497944CDE9031011466846FFF730
:100B60005DFD0FB000BD0000E5FFFFFF0A6802F861
:100B7000010B0A60704710B5436913B1AFF30080F1
:100B800001E0FFF7E6FC012010BD127800F124011E
:100B90000A7000224A700122EDE711684FF0FF321F
:100BA000E9E72DE9F05F824615468B4600270AF1FA
:100BB0000104B9460078302801D09DB113E014F843
:100BC000010B0127782803D0582801D045B10AE04D
:100BD0000DB1102D07D1002714F8010B102502E0EC
:100BE000082500E00A250026B0460EE005FB0800B7
:100BF00005FB06F101271FFA80F801EB1046B6F558
:100C0000803F00D3B94614F8010B294600F058F88C
:100C10000028EBDABBF1000F05D00FB1641E00E035
:100C20005446CBF80040B9F1000F06D0FFF7CEFED6
:100C300002210160C81EBDE8F09F48EA0640FAE7BD
:100C40004FF000020429C0F0128010F0030C3FF4B2
:100C500020AECCF1040CBCF1020F18BF00F8012B40
:100C6000A8BF20F8022BA1EB0C01FFF712BE5FEA30
:100C7000C17C24BF00F8012B00F8012B48BF00F80D
:100C8000012B7047004870474C0200200346406823
:100C90008C46002818BF88423CBF03464068F8D302
:100CA00018681844884207D00CF1030020F00700B0
:100CB000001D411A521A0146081D0A60FFF7E7BBE2
:100CC0003A2800D2303820F02002412A01D3A2F184
:100CD0003700884201D34FF0FF30704710B500F065
:100CE00039F8BDE8104000F02FB870477546FFF79F
:100CF000C9FFAE4605006946534620F00700854609
:100D000018B020B5FFF77AFBBDE820404FF0000691
:100D10004FF000074FF000084FF0000B21F00701E3
:100D2000AC46ACE8C009ACE8C009ACE8C009ACE826
:100D3000C0098D46704710B50446AFF300802046C9
:100D4000BDE81040FFF7BABA002801D000F02AB879
:100D50007047000010B5012805D0002103A000F065
:100D600027F8012010BD09A1F8E7000053494752B8
:100D7000544D454D3A204F7574206F66206865616B
:100D800070206D656D6F7279000000003A20486533
:100D90006170206D656D6F727920636F727275700E
:100DA0007465640001491820ABBEFEE7260002000E
:100DB00070B505460C460A2000E06D1C00F011F8E5
:100DC00035B128780028F8D102E0641C00F009F859
:100DD00014B120780028F8D1BDE870400A20AFF3A4
:100DE000008008B569468DF800000320ABBE08BD41
:100DF000002100E0491C8142FCD37047D0F8003448
:100E000012F0010F14BF0B438B43C0F8003412F0F3
:100E1000020FD0F8202414BF114322EA0101C0F8C8
:100E2000201470472DE9F00301264FF0000C032534
:100E3000C2F3411706FA0CF40C4211D0D0F8C48F5B
:100E40004FEA4C0405FA04F928EA0908C0F8C48FEF
:100E5000D0F8C48F07FA04F448EA0404C0F8C44F79
:100E60000CF1010C0CF0FF0CBCF1080FE2D3D0F830
:100E700000C512F0010F14BF4CEA010C2CEA010C62
:100E8000C0F800C5D0F804C512F0020F14BF4CEA38
:100E9000010C2CEA010CC0F804C5D0F808C512F00A
:100EA000040F14BF4CEA010C2CEA010CC0F808C571
:100EB000D0F818C512F0080F14BF4CEA010C2CEA48
:100EC000010CC0F818C512F0100FD0F83C2514BF63
:100ED0000A438A43C0F83C25D0F80C2513F0010FD3
:100EE00014BF0A438A43C0F80C25D0F8102513F02C
:100EF000020F14BF0A438A43C0F81025D0F8142506
:100F000013F0040F14BF0A438A43C0F81425D0F825
:100F10001C2513F0080F14BF0A438A43C0F81C2590
:100F2000D0F8442513F4007F14BF0A438A43C0F865
:100F30004425D0F8402513F4407F14BF0A438A4368
:100F4000C0F84025D0F82825002B0CBF114322EA19
:100F50000101C0F82815BDE8F00370470E4AC0F340
:100F60000741D26E01238B401A420C4A1ABF02EB92
:100F7000C101496852F83110020AD1F82C354FF0FE
:100F80000F0C0CFA02FC00F00F0023EA0C03904057
:100F90001843C1F82C05704700E00F40B040000036
:100FA00050F82100704730B50C4605460022FFF787
:100FB00025FF21462846BDE8304008230122FFF7DF
:100FC00031BF30B50C46054608230122FFF72AFF42
:100FD00021462846BDE830400122FFF70FBF30B55B
:100FE0000C4605460222FFF709FF21462846BDE8C8
:100FF000304009230122FFF715BF30B50C460546E6
:101000000222FFF7FBFE21462846BDE830400823B8
:101010000122FFF707BF30B50C4605460222FFF755
:10102000EDFE21462846BDE8304008230122FFF7A7
:10103000F9BE30B50C4605460222FFF7DFFE214619
:101040002846BDE8304008230122FFF7EBBE40F8F8
:10105000212070470F4A116900F4302321F4302118
:10106000194310F4002F18BF41F0400111611169BC
:1010700011F0004FFBD008490968084A1140A1F15E
:101080008052B2F5202218BF704700F003000449D7
:101090000860704700C00F4000E00F400000FF7084
:1010A000C8CF0F400022002998BF7047930003F17A
:1010B000804303F57C231B6B40F82230521C914285
:1010C000F4D87047002200298CBF0B4B704710B436
:1010D000940004F1804404F57C2450F822C0C4F844
:1010E00030C0D3F810C01CF0004FFAD0521C91420F
:1010F000EED810BC7047000000C00F4004480169E2
:1011000041F040010161016911F0004FFBD07047CF
:1011100000C00F4004490A6A10430862086910F0D1
:10112000004FFBD07047000000C00F40024900286C
:1011300014BFC8698869704700C00F40044801693E
:1011400041F001010161016911F0004FFBD07047CE
:1011500000C00F40014800687047000000C00F4009
:1011600003484160016911F0004FFBD07047000057
:1011700000C00F400B490A4AC1F860230A6912F007
:10118000004FFBD0C860086910F0004FFBD0002072
:10119000C1F86003086910F0004FFBD070470000F1
:1011A000549535A300C00F400448016941F0020185
:1011B0000161016911F0004FFBD0704700C00F4082
:1011C00017490A6922F4067202430A610A6912F099
:1011D000004FFBD0134A1368134A1A40A2F1805300
:1011E000B3F5202318BF704710F0101F0BD00A6909
:1011F00012F4807F07D10A6942F480720A610A6999
:1012000012F0004FFBD0012242EA1040C862C86AC7
:1012100010F0004FFBD0C86A20F00100C862704790
:1012200000C00F4000E00F400000FF7010B5C0B0DC
:10123000214800F05BFD00BF1F4800F06BFD002857
:10124000FAD000F0A9FC0446FFF758FF0020FFF792
:1012500001FFFFF773FF0020FFF78CFFFFF77AFF16
:1012600000F11E0421460020FFF77AFF0020FFF75F
:101270005DFF1249086008460068FFF74BFF082031
:10128000FFF79EFFFFF790FF40210D48FFF70AFF91
:101290000B480CA102686846FFF720F9684600F089
:1012A0003DFF07480068401C05490860402104488C
:1012B000FFF708FF40B010BD001400F094000020BC
:1012C0004C010020705B305D203D2025640A000049
:1012D0002DE9F04104460E4600BF1D4800F07AF8A3
:1012E0000028FAD100222146194800F0BBF8314607
:1012F000174800F079F80721154800F071F800BF91
:10130000134800F061F80028FAD1114800F073F892
:10131000C7B24FF47A70FFF76BFD012221460C48EB
:1013200000F0A0F807210A4800F05AF800BF08486A
:1013300000F04AF80028FAD1054800F053F8C5B289
:101340004FF47A70FFF754FD2846BDE8F0810000A5
:10135000000002402DE9F04104460F46154600BF4B
:10136000184800F037F80028FAD100222146154825
:1013700000F078F83946134800F036F80321114898
:1013800000F02EF800BF0F4800F024F80028FAD132
:101390000C4800F030F8C6B229460A4800F024F89C
:1013A0000521084800F01CF800BF064800F012F8BC
:1013B0000028FAD1034800F01EF8C6B23046BDE856
:1013C000F081000000000240406810F0400018BFAB
:1013D00001207047406810F0010018BF01207047DD
:1013E000416070478068704781607047016A41F0D2
:1013F000100101627047406810F0010F05D110F034
:10140000120F1CBF00F01C00704700207047000046
:10141000036A43F010030362002A14BF0E4A0F4A06
:1014200002EB820301EB830302EB820292005B1E5C
:10143000B3FBF2F2521EC260D0F8C02F12F0010FBF
:1014400008BF7047064A1144521CB1FBF2F1491E15
:1014500041F08001C1607047801A0600A08601003B
:101460007F47370142EA41010160704710B53820DB
:10147000224948752249234800F018FA2249086099
:10148000084600684FF47A71B0FBF1F4204600F092
:1014900065FC00F055FC00F05AFC00F03FF900F04C
:1014A0007DF900F0C7F9FFF7C1FE152000F038F80C
:1014B0005021164800F029FE00F064F800F098F87A
:1014C00013490860032000F085F8E021152000F0A2
:1014D00091F803210F2000F08DF800F069F80D4914
:1014E0000860152000F056F80B4908600F2000F046
:1014F00051F80A49086000F0CBF810BD68000020E0
:10150000002D3101500500F15400002000C00040C2
:101510005C000020580000206400002060000020D3
:101520001649042804BF086840F4803018D0052804
:1015300004BF086840F4003012D0062812D00F28EB
:1015400015D0102838BF7047103800F01F01012255
:1015500002FA01F142090A4850F82200016070477E
:1015600008607047086840F48020086070474FF0BA
:10157000E020016941F002010161704724ED00E0C3
:10158000FC41000010B5FEF7A6FE002818BF0120A0
:1015900010BD0000054A20F003015158096880077A
:1015A000C00E21FA00F0C0B2704700006041000098
:1015B00006480068064A00F4E061002052F8203036
:1015C0008B421CBF401C0828F8D370470CED00E08C
:1015D00040410000044951F82000044940F0FD70EA
:1015E00040F0806008607047404100000CED00E072
:1015F000FEF77ABE084A20F00303D258136880072A
:10160000C00E4FF0FF0C0CFA00FC23EA0C0301FAA9
:1016100000F0184310607047604100000844016802
:101620006FF352011143016012F0020F14BFB02199
:101630008C21016214BF4FF4306140F60C0141620D
:101640007047425842F00102425070470844016816
:1016500011F0020F14BF5108511E01617047002A9A
:10166000826814BF114322EA01018160704721F0B2
:101670003F031844036813F0020F18BF52080369B0
:101680009A1A11F0010F14BFC26182617047000005
:1016900010B51D4800F02AFB1C4800F027FB00BFD6
:1016A0001A4800F037FB0028FAD020211848FFF72D
:1016B00088FC0A23022220211548FFF7B3FB1548B6
:1016C000FFF74CFC20211248FFF7A5FC0222D101B4
:1016D0001148FFF7A3FF4FF47A624FF480710E4870
:1016E000FFF7B4FF4FF47A7240F207110A48FFF790
:1016F000BEFF012280210848FFF7B1FF4FF480713F
:101700000548FFF79EFF10BD004000F0090800F0FB
:1017100000100640061409000080024010B51B4866
:1017200000F0E4FA00BF194800F0F4FA0028FAD0FB
:101730001648C01C00F0DAFA00BF1448C01C00F0C4
:10174000E9FA0028F9D01148C01D00F0CFFA00BF17
:101750000E48C01D00F0DEFA0028F9D001210C4827
:10176000FFF72FFC01210B48FFF72BFC0221094852
:10177000FFF727FC03210848FFF715FC0A23012285
:1017800003210548FFF74EFB10BD0000050800F0DF
:10179000005002400040064000D0034010B51E48F3
:1017A00000F0A4FA1D4800F0A1FA1D48FFF7D6FB8F
:1017B0001C48FFF7D3FB04211B48FFF71EFC082140
:1017C0001948FFF70CFC0122184801681848FFF778
:1017D0001FFE1748FFF70AFEFF220C212220FFF709
:1017E000B9FD044600220D212220FFF7B3FD044677
:1017F00000220E212220FFF7ADFD04460022032126
:101800001820FFF7A7FD0446FF2201211820FFF74B
:10181000A1FD044610BD0000002000F0010800F00A
:1018200002080100020C010000500040540000209A
:101830000000024010B5144800F058FA134800F0B8
:1018400055FA00BF114800F065FA0028FAD00120CF
:10185000FFF784FB40F20140FFF780FB03214FF0CC
:101860004020FFF7E6FB60234FF4E13208480168AF
:10187000084800F00EFC08A000F050FC20220121D6
:10188000044800F03DFC10BD001800F0000800F016
:101890005400002000C000400D0A48656C6C6F2C9D
:1018A00020776F726C64210D0A0000002DE9F003AF
:1018B000AF4D02462868AF4B1840A0F18053B3F5F6
:1018C000A02359D002F03809DFF8AC82C2F38414A7
:1018D000B9F1100F25D0B9F1300F04BF47F23050E5
:1018E0004FF400130DD04FF03800904304BF4FF475
:1018F0000040C30105D012F0380F1CBF0020034682
:1019000013D09E4F12F4605F4FF0000618BF002204
:101910002CD057F8324044457DD307EBC2025268C1
:10192000E1E0002340461524EBE7A4F1090012286A
:1019300022D29348D5F87CC04FF04C7350F8240065
:101940002CF01C0C072CA8BF4CF0100CC5F87CC068
:101950002E6D4FF4002C16F4807FD2D1BCF1010C17
:101960000AD02E6D16F4807FF8D0CAE712F0380F37
:1019700018BFB9F1100F04D0BDE8F0034FF000001C
:101980007047C2F30268DFF8FCC14FF0000257F85D
:101990003290E14503D307EBC202526803E0521CC8
:1019A000062AF4D33246C5F8C020D5F8B020DFF8B7
:1019B000D8C102EA0C0242F00042C5F8B020DFF8BC
:1019C000CCC1A4F109024C1E5CF828C0A444BCFBA5
:1019D000F1FCD5F8B0101943C5F8B01008EBC801F8
:1019E00001EB41046A4902EB420201EBC40101EB45
:1019F00082046468C5F86441D5F864416FF0FF085B
:101A000008EB0C2C44EA0C0CC5F864C151F8221008
:101A1000D5F8602100E061E002F400021143C5F84E
:101A20006011D5F86011D5F86021C1F38921C2F3A6
:101A30000904D5F86421C2F3042202F1010CD5F89F
:101A4000642102F01F02521CB0FBF2F04A09C2F1FD
:101A500000084443424301EB481104EB521248434F
:101A600002EB9020B0FBFCF041080846002257F83A
:101A700032C0844503D307EBC200466802E0521C23
:101A8000062AF4D3C5F8C060D5F8600110F4000F41
:101A90001DBFD5F8B00040F08040C5F8B000D5F8C3
:101AA000600104BF40F40000C5F860014FF400403D
:101AB000D5F8682112F0010F02D1401E0028F7DC92
:101AC000002808BF002148D0D5F8B000184340F0E6
:101AD000010040F01040C5F8B0003EE0521C062A5C
:101AE000FFF417AF3246C5F8C020D5F8602122F4C4
:101AF0000002C5F86021D5F8B020DFF898C002EAEE
:101B00000C0242F00042C5F8B020002908BF4FF097
:101B1000000C0AD0B0FBF1FCBCF1000F18BFACF117
:101B2000010C0CF10101B0FBF1F10846002257F85D
:101B30003240844203D307EBC200466802E0521CE5
:101B4000062AF4D3C5F8C060D5F8B00043EA8C2269
:101B5000104340F00040C5F8B000D5F8B00020F4C4
:101B60007000C5F8B000BDE8F003084670470000FB
:101B700000E00F400000FF700024F40070440000FB
:101B80005442000040787D0100FC0FE04C42000010
:101B9000C0420000FF0300EF70B44B4D2A6E296F66
:101BA00011F0004F14BF01F0700002F03000202847
:101BB00008BF464818D005DC88B1102808BF444843
:101BC00012D009E0302808BF47F230500CD07028FE
:101BD00008BF4FF4004007D070BC002070477C2045
:101BE0003C4B00EA121018584FF0FF3311F0004F31
:101BF00002D011F4006F06D001F0004C02F4006432
:101C00005CEA040C36D1D5F860C1D5F8644104F023
:101C10001F06C4F30424641C761C16FB04F4640041
:101C2000B0FBF4F0CCF309044443CCF3892C00FB63
:101C30000CF0D5F810C004EB902042F480020CF4B4
:101C4000704CBCF5804F08BF234B13D009DCBCF5AA
:101C5000005F08BF214B0DD0BCF5405F08BF204B93
:101C600008E0BCF5E04F08BF1E4B03D0BCF5104F99
:101C700008BF1D4B12F4800F21D011F0004F19D076
:101C800011F0804F09D011F4006F0CD001F0004C1E
:101C900002F400625CEA020205D0C1F3C551491C9E
:101CA000B0FBF1F00BE04000C1F38651491CB0FBE2
:101CB000F1F004E0C2F3C351491CB0FBF1F08342E0
:101CC00038BF184670BC704700E00F4000093D0067
:101CD0000024F40054420000005A620200B4C4041C
:101CE00080F0FA0240787D01002D3101C0F3072316
:101CF0000749C0B2194401F07043C1F3130143EA2C
:101D0000411141EA800040F00070012202607047FA
:101D100000E60F40C0F307220849C0B2114401F0A9
:101D20007042C1F3130142EA411141EA800040F0E0
:101D300000700068002818BF0120704700EA0F40BB
:101D40004FF0E020016941F00501016170474FF05B
:101D5000E020016941F00201016170474FF0E0218C
:101D6000401E486170470000F0B5C3B05E4800688F
:101D7000401C5D4908605D48006810B35C4800681D
:101D8000A0B9084600684FF47A71B0FBF1F201FB8C
:101D9000120455480068B0FBF1F523462A4655A1C8
:101DA00003A8FEF79BFB03A800F0B8F950480068B1
:101DB000401C4F490860012211465748FFF747F978
:101DC0002BE04B48006800B3494800684FF47A7133
:101DD000B0FBF1F201FB120445480068B0FBF1F5DD
:101DE00041480068B0FBF1F201FB12063E48006872
:101DF000B0FBF1F733463A4648A103A8CDE90054B9
:101E0000FEF76CFB03A800F089F900203849086050
:101E1000002201214048FFF71AF94F48007B70B1BA
:101E20004E48006818B14E480068032804D04A485C
:101E30000068401E48490860474801F029FF4948AA
:101E4000006820B147480068401E4649086046487F
:101E5000006820B144480068401E43490860434878
:101E6000008828B141480088401E4049088014E09D
:101E70004FF47A703D49088001203D490870374889
:101E8000006810B13648006820B13A480068401C2C
:101E900038490860374800F0D9FC3748008828B135
:101EA00035480088401E3449088009E04FF4FA7034
:101EB000314908803148007880F001002F490870CE
:101EC0002F48008828B12E480088401E2C490880E1
:101ED00008E04FF4FA702A4908802A4801682A4825
:101EE00001F000FF43B0F0BD4C00002028000020AE
:101EF00050000020555352305F425554544F4E20ED
:101F0000707265737365642061742025642E2530BA
:101F10003364730A000000000040064055535230FD
:101F20005F425554544F4E2072656C656173656411
:101F30002061742025642E25303364730A44757241
:101F40006174696F6E2074696D653A2025642E2571
:101F5000303364730A0A0000FC00002004000020F3
:101F600000000020380000203C000020300000204D
:101F7000340000209C0000202E00002033000020B0
:101F80002C000020080000200C00002004480068FD
:101F900040F4700002490860024803490860704735
:101FA00088ED00E00024F4009800002030B5C3B0B4
:101FB000002001904FF4807103A8FEF768FC012116
:101FC000284800F0A6F805462946264800F09BF868
:101FD00014E0244800F04CF8C0B2029002A903A813
:101FE000FEF717FC9DF808000D2800D10BE01D48F6
:101FF00000F04AF810B9052000F09EFC194800F0E6
:1020000043F80028E5D100BF174A01A903A801F051
:1020100025FC60B1002405E0134951F82400FEF7C7
:1020200036FA641C01988442F6DB43B030BD0E4999
:10203000019800F02DFD002405E00B4951F8240023
:10204000FEF725FA641C01988442F6DB0022022187
:102050000648FEF7FCFF002202210448FEF7F7FFC6
:1020600000BFE2E700C000400C0100200040064035
:10207000816911F0100FFBD100687047826912F07E
:10208000200FFBD1016070478069012121EA101007
:102090007047D0F818C01CF0080FFAD1D0F82CC047
:1020A0002CF0100CC0F82CC0D0F830C02CF0010C73
:1020B0002CF4407CC0F830C0D0F830C0B1EB021F27
:1020C00034BF4CF0200C2CF0200CC0F830C038BFCE
:1020D0005208C900B1FBF2F1491C49088A09426261
:1020E00001F03F018162C36200218161C16A41F058
:1020F0001001C162016B40F201321143016370476C
:1021000011434163704741647047826B114381639F
:102110007047002914BF006CC06B704710B50446AF
:1021200004E014F8011B0348FFF7A8FF20780028FB
:10213000F7D110BD00C0004030380A2801D201207C
:1021400070470020704730B5012A04D0022A0CD015
:10215000032A1ED113E083680B441833182493FB21
:10216000F4F504FB1533836014E043680B443C33FF
:102170003C2493FBF4F504FB153343600AE0036849
:102180000B443C333C2493FBF4F504FB1533036010
:1021900000E000BF00BF30BDF0B589B00446802626
:1021A00000270A21206890FBF1F201FB1200019048
:1021B000206890FBF1F00290606890FBF1F201FB67
:1021C00012000390606890FBF1F00490A06890FB0F
:1021D000F1F201FB12000590A06890FBF1F006906F
:1021E000152007900A200890002527E0022D01D035
:1021F000042D01D1802000E00020074600220621A6
:102200002220FFF7A7F801A850F825000D49085C27
:1022100040EA070205212220FFF79CF80A480078CF
:1022200040F0030000EA060206212220FFF792F8A0
:102230004FF47A70FEF7DCFD6D1C7610082DD5DBAF
:1022400009B0F0BD680000200C00002038B504463D
:102250000D462068009008A12846D4E90132FEF717
:102260003DF9207B08B10CA000E00DA001462846F6
:10227000FEF7CFFA38BD0000416C61726D20253049
:1022800032643A253032643A253032640A456E6150
:10229000626C65643A200000547275650A000000A3
:1022A00046616C73650A00007FB504460D46244BF9
:1022B0000FCB8DE80F000626207B58B1A068A968D7
:1022C000884207D160686968884203D1206829681C
:1022D000884200D07FBD02201A49086000201A49B8
:1022E00008601A49086041F288301949086018E00E
:1022F00000F02CFB1748007818B12046FFF74CFF80
:1023000004E0002201211820FFF724F83DF8160010
:10231000642100F043F8B01D072190FBF1F201FBAE
:1023200012060B48006818B10B4800680028DFD07F
:1023300000F094FB00200649086000BFCAE70000D7
:10234000083F0000000000200800002004000020DA
:1023500038000020330000202400002000210173F9
:10236000082181600221416000210160704710B5A1
:102370000446002909DB3B2907DC002A05DB3B2A50
:1023800003DC002B01DB172B02DD4FF0FF3010BD0B
:1023900021606260A3600020F9E7000070B5044688
:1023A0000D46DCB114480068B0FBF4F632464FF439
:1023B00080711248FFF74AF90F480068B0FBF4F04B
:1023C0006421B0FBF1F6324640F207110B48FFF7EB
:1023D0004EF9012280210948FFF741F908480560BC
:1023E00000BF074800680028FBD100228021034875
:1023F000FFF735F970BD0000540000200080024056
:102400003C000020FEB504460D461646072E70D24D
:10241000DFE806F06F040E1822384D00A06828444B
:102420001830182190FBF1F201FB1200A06061E06E
:10243000606828443C303C2190FBF1F201FB120023
:10244000606057E0206828443C303C2190FBF1F26A
:1024500001FB120020604DE06069284442F21071D7
:10246000084490FBF1F201FB12006061D4E9031211
:102470006069CDE900120290204694E80E0000F059
:1024800029F937E0206928440C300C2190FBF1F247
:1024900001FB12002061D4E903126069CDE900124A
:1024A0000290204694E80E0000F014F922E0E06863
:1024B000401E411904F12000226950F82200014415
:1024C00004F1200050F8220091FBF0F200FB121002
:1024D000E060E068401CE060D4E90421E068CDE9F8
:1024E00001210090204694E80E0000F0F3F801E08E
:1024F000FFE700BF00BFFEBDF0B589B004468026EF
:1025000000270A21E06890FBF1F201FB1200019024
:10251000E06890FBF1F002902069401C90FBF1F222
:1025200001FB120003902069401C90FBF1F0049025
:10253000606990FBF1F201FB12000590606990FB6D
:10254000F1F090FBF1F201FB12000690642160694A
:1025500090FBF1F00A2190FBF1F201FB12000790D1
:102560004FF47A71606990FBF1F00890002525E046
:10257000022D01D0042D01D1802000E0002007466B
:10258000002206212220FEF7E5FE01A850F82500D2
:102590000C49085C40EA070205212220FEF7DAFE1A
:1025A0000948007806EA000206212220FEF7D2FE42
:1025B0004FF47A70FEF71CFC6D1C7610082DD7DBEB
:1025C00009B0F0BD680000200C000020F0B587B015
:1025D0000446802600270A21206890FBF1F201FBC7
:1025E00012000190206890FBF1F00290606890FB6F
:1025F000F1F201FB12000390606890FBF1F004908F
:10260000A06890FBF1F201FB12000590A06890FB1E
:10261000F1F00690002525E0022D01D0042D01D116
:10262000802000E000200746002206212220FEF73D
:1026300091FE01A850F825000C49085C40EA070209
:1026400005212220FEF786FE0948007806EA0002EE
:1026500006212220FEF77EFE4FF47A70FEF7C8FBBB
:102660006D1C7610062DD7DB07B0F0BD680000208A
:102670000C00002038B504460D46E0680090206943
:10268000431C03A128466269FDF728FF38BD0000FE
:10269000446174652025642D253032642D25303247
:1026A000640A000038B504460D462068009003A176
:1026B0002846D4E90132FDF711FF38BD54696D6534
:1026C00020253032643A253032643A253032640AAB
:1026D000000000002DE9F04F8DB004460F469046F3
:1026E0009946DDE916AB189E3022284901A8FEF76D
:1026F0009CF82760C4F80480C4F80890C4F80CA0C3
:102700000020A061C4F810B06661642196FBF1F26C
:1027100001FB126139B13046F11706EB9171891056
:10272000A6EB810131B14FF4C87196FBF1F201FBC8
:10273000126109B9012100E00021E161002507E0F3
:1027400001A850F8251004F1200040F825106D1C58
:102750000B2DF5DDE169606A01446162002507E047
:1027600004F1200050F82500A1690844A0616D1C07
:102770002069A842F4DCE068401EA1690844A06119
:10278000204600F063F80DB0BDE8F08FD83E0000A1
:102790002DE9FE4306460F4615461C4642F20F70D1
:1027A000844205DC002C03DB0B2D01DC002D03DA59
:1027B0004FF0FF30BDE8FE83642194FBF1F201FB92
:1027C000124139B12046E11704EB91718910A4EB55
:1027D000810131B14FF4C87194FBF1F201FB124158
:1027E00009B9012100E000218846012D02D108F13C
:1027F0001C0003E006F1200050F825008146012F5F
:1028000001DB4F4502DD4FF0FF30D3E7CDE9007526
:102810000294304696E80E00FFF75CFF0020C9E7FF
:1028200010B50446002909DB3B2907DC002A05DB3B
:102830003B2A03DC002B01DB172B02DD4FF0FF30BE
:1028400010BD21606260A3600020F9E710B5016847
:102850003C290DDB3C22016891FBF2F142681144F6
:1028600041603C22016891FBF2F302FB131101600D
:1028700041683C290DDB3C22416891FBF2F1826802
:10288000114481603C22416891FBF2F302FB131179
:1028900041608168182914DB1822816891FBF2F1EC
:1028A0008269114481611822816891FBF2F1C2684A
:1028B0001144C1601822816891FBF2F302FB1311ED
:1028C0008160D0E9062101F26D118A4226DB41695F
:1028D000491C4161002181610121C1600021016128
:1028E0006423426992FBF3F403FB14223AB1416979
:1028F000CA1701EB92729210A1EB82023AB14FF427
:10290000C873426992FBF3F403FB14220AB9012253
:1029100000E00022C261C1691C31416200F1200166
:10292000D0E9032351F823108A4204DD0121C1605C
:102930000169491C016110BD0349086000BF0249DB
:1029400009680029FBD170473800002010B500F05D
:1029500085F800212220FEF7BBFC344908700846A8
:10296000007833490978884242D01420FFF7E4FF09
:1029700000212220FEF7ACFC2C49087000222C48D4
:1029800001782A48007800F0B9FD2A490860012240
:10299000274801782548007800F0B0FD26490860F6
:1029A0000122234801782148007800F0A7FD23493F
:1029B000086006221E4801781C48007800F09EFD41
:1029C0001F49086007221A4801781848007800F06B
:1029D00095FD1C49086004221548017813480078C9
:1029E00000F08CFD18490860104800781049087004
:1029F00001211648FEF7D4FA154908600846006818
:102A000014490968884210D00520FFF795FF104847
:102A1000006818B901201049086002E000200E4942
:102A200008600B4800680B49086010BD400000209A
:102A30004100002010000020140000201800002099
:102A40001C000020200000202400002000D00340B3
:102A500048000020440000202800002000200649F3
:102A6000086006490860064908600649086006498A
:102A7000086006490860704710000020140000201C
:102A8000180000201C00002020000020240000204E
:102A90002DE9F041C4B005460C46BAA12068FDF707
:102AA00049FF002812D1B8A0FFF738FBBC48FFF758
:102AB00035FBBCA0FFF732FBC6A0FFF72FFBD3A06E
:102AC000FFF72CFB002044B0BDE8F081DCA12068BA
:102AD000FDF78AFE00281DD1022D15D1DAA160680C
:102AE000FDF782FE80B94FF4FA60002101220B4607
:102AF000CDE9002102900A46D548FFF7EBFDD5A0AD
:102B0000FFF70CFB0020DEE7DBA0FFF707FB4FF031
:102B1000FF30D8E7DDA12068FDF766FE002849D127
:102B2000022D10D1DAA16068FDF75EFE48B1DAA18E
:102B30006068FDF759FE20B1D9A16068FDF754FE29
:102B400008B9012000E0002006463EB3D0A160682D
:102B5000FDF74AFE38B904A9BD48FFF7A3FD04A854
:102B6000FFF7DCFA18E0CCA16068FDF73DFE38B94C
:102B700004A9B748FFF77EFD04A8FFF7CFFA0BE0E2
:102B8000C7A16068FDF730FE30B904A9C648FFF759
:102B90005DFB04A8FFF7C2FA002094E7C3A0FFF78B
:102BA000BDFACCA0FFF7BAFAD4A0FFF7B7FA4FF0FE
:102BB000FF3088E7DBA12068FDF716FE002872D100
:102BC000032D10D1B2A16068FDF70EFE48B1B2A18D
:102BD0006068FDF709FE20B1B1A16068FDF704FE51
:102BE00008B9012000E000200646002E73D001AB9A
:102BF00002AA03A9A06800F0F3FB002821D0CAA014
:102C0000FFF78CFAA4A16068FDF7EEFD08B9CDA02E
:102C100000E062A00746A0A16068FDF7E5FD08B9E5
:102C2000C8A000E05DA0804600974346C6A104A866
:102C30006268FDF753FC04A8FFF770FA4FF0FF300D
:102C400041E793A16068FDF7CFFD90B9804801A9E5
:102C50000EC9FFF7E5FD28B1C6A0FFF75FFA4FF0F8
:102C6000FF3030E70020C7490860C7A0FFF756FAD9
:102C70002EE089A16068FDF7B7FDA8B90298421E51
:102C80007348039B0199FFF783FD28B1C6A0FFF7A6
:102C900045FA4FF0FF3016E70120BA490860C6A098
:102CA000FFF73CFA14E022E07DA16068FDF79CFD8F
:102CB00070B97D4801A90EC9FFF759FB28B1C6A01C
:102CC000FFF72CFA4FF0FF30FDE6C8A0FFF726FA19
:102CD0000020F8E6FFE7CDA0FFF720FADAA0FFF723
:102CE0001DFAE8A0FFF71AFA4FF0FF30EBE6F4A167
:102CF0002068FDF779FD002842D1022D10D164A192
:102D00006068FDF771FD48B163A16068FDF76CFD77
:102D100020B1ECA16068FDF767FD08B9012000E073
:102D20000020064646B35AA16068FDF75DFD30B944
:102D3000002094490860E5A0FFF7F0F916E056A1DD
:102D40006068FDF751FD30B901208E490860E4A0AC
:102D5000FFF7E4F90AE0DBA16068FDF745FD28B95B
:102D6000032088490860E34800F060FF0020E24942
:102D70000860E2490860A6E6E1A0FFF7CFF9D3E1D9
:102D8000DBE100003F000000417661696C61626C2C
:102D90006520636F6D6D616E64733A0A0000000018
:102DA000FC44000009676574203C54494D452F449C
:102DB0004154452F414C41524D3E2020202020209F
:102DC0002020202020203A206765742073746174CD
:102DD00075730A0009736574203C54494D452F41B1
:102DE0004C41524D2F444154453E203C78783A782E
:102DF000783A78783E203A2073657420636C6F636C
:102E00006B207374617475730A0000000972756E2B
:102E1000203C54494D452F444154452F535457416C
:102E20005443483E202020202020202020203A20EB
:102E300072756E2066756E6374696F6E730A00003A
:102E4000696E697400000000636C6F636B000000C2
:102E50009C000020436C6F636B2072657365742067
:102E6000746F20323030302D312D312D30303A30EA
:102E7000303A30300A00000055736167653A2069C6
:102E80006E697420636C6F636B0A00006765740081
:102E900074696D65000000006461746500000000E5
:102EA000616C61726D000000EC0000205573616779
:102EB000653A206765742074696D6520202D207245
:102EC000657475726E20636C6F636B2074696D65D9
:102ED0000A00000020202020202020676574206444
:102EE00061746520202D2072657475726E20636C8C
:102EF0006F636B20646174650A000000202020204D
:102F000020202067657420616C61726D202D207215
:102F1000657475726E20616C61726D20737461747A
:102F200075730A0073657400496E76616C6964207C
:102F300074696D652F6461746520666F726D61746C
:102F40000A0000007878000055736167653A2073C5
:102F50006574202573203C257378783A79793A7A1C
:102F60007A3E2F3C257378782D79792D7A7A3E0A2E
:102F700000000000496E76616C69642074696D65BB
:102F80000A00000000000020436C6F636B2074692E
:102F90006D652073657420737563636573736675FF
:102FA0006C6C790A00000000496E76616C696420DF
:102FB000646174650A000000436C6F636B20646198
:102FC00074652073657420737563636573736675C8
:102FD0006C6C790A00000000496E76616C696420AF
:102FE000616C61726D2074696D650A00416C61727B
:102FF0006D2074696D6520736574207375636365F6
:10300000737366756C6C790A000000005573616714
:10301000653A207365742064617465203C7965614C
:10302000722D6D6F6E74682D6461793E20202020B2
:103030002020202D2073657420636C6F636B2064E7
:103040006174650A000000002020202020202073E9
:1030500065742074696D65203C68683A6D6D3A73DB
:10306000733E2F3C68682D6D6D2D73733E20202DAF
:103070002073657420636C6F636B2074696D650ADF
:103080000000000020202020202020736574206193
:103090006C61726D203C68683A6D6D3A73733E2FB7
:1030A0003C68682D6D6D2D73733E202D2073657403
:1030B00020616C61726D2074696D650A000000000A
:1030C00072756E0063646F776E0000004469737000
:1030D0006C617920636C6F636B2074696D650A00A5
:1030E000446973706C617920636C6F636B206461F9
:1030F00074650A00FC000020040000200800002085
:1031000055736167653A2072756E2064617465203D
:10311000202D20646973706C617920636C6F636B20
:1031200020646174650A000042A0FEF7F7FF4BA01F
:10313000FEF7F4FF4FF0FF30C5E456A12068FDF71D
:1031400053FB002833D1022D0DD1AFF2AC216068C2
:10315000FDF74AFB28B1AFF294016068FDF744FB2C
:1031600008B9012000E000200646BEB1AFF2D02130
:103170006068FDF739FB30B901204849087348A061
:10318000FEF7CCFF08E0AFF2C4016068FDF72CFB4E
:1031900010B9494800F04AFD002094E447A0FEF72A
:1031A000BDFF53A0FEF7BAFF4FF0FF308BE45CA1E8
:1031B0002068FDF719FB002836D1022D0DD1AFF2A2
:1031C00020316068FDF710FB28B1AFF2081160688C
:1031D000FDF70AFB08B9012000E000200646D6B141
:1031E000AFF244316068FDF7FFFA30B900202B4997
:1031F00008734DA0FEF792FF0BE0AFF23811606844
:10320000FDF7F2FA28B900202B4908734BA0FEF70E
:1032100085FF002057E44EA0FEF780FF5AA0FEF77E
:103220007DFF4FF0FF304EE463A0FEF777FF4FF0D5
:10323000FF3048E42020202020202072756E20746A
:10324000696D6520202D20646973706C617920633D
:103250006C6F636B2074696D650A0000202020206C
:1032600020202072756E2063646F776E202D20649D
:103270006973706C617920616E642073746172741B
:103280002074696D657220636F756E74646F776EFC
:103290000A000000656E61626C650000EC000020B1
:1032A000416C61726D20697320656E61626C65644A
:1032B000206E6F770A000000FC00002055736167E4
:1032C000653A20656E61626C6520616C61726D208B
:1032D000202D20656E61626C652074686520616CCC
:1032E00061726D20746F20676F206F66660A000040
:1032F00020202020202020656E61626C65206364A0
:103300006F776E20202D2073746172742074696D44
:10331000657220636F756E74646F776E0A000000CB
:1033200064697361626C6500416C61726D206973E0
:103330002064697361626C65640A00005061757392
:103340006520636F756E74646F776E0A000000000D
:1033500055736167653A2064697361626C652061C9
:103360006C61726D20202D2064697361626C652030
:1033700074686520616C61726D20746F20676F20C6
:103380006F66660A000000002020202020202064B4
:10339000697361626C652063646F776E20202D20F5
:1033A00073746F702074696D657220636F756E74CD
:1033B000646F776E0A000000436F6D6D616E64206C
:1033C0006E6F7420666F756E642E20547970652060
:1033D000273F2720666F722068656C700A00000026
:1033E0002DE9FF410D4616461F4642A10098FDF704
:1033F000E9F908B13A240BE03FA10098FDF7E2F9A2
:1034000008B12D2404E04FF0FF3004B0BDE8F08196
:10341000002269460098FDF79DF928600098007821
:10342000A04207D1FCF7FCFF006800994978405C96
:10343000202802D04FF0FF30E7E700BF02E00098FD
:10344000401C00900098007878B1009800780D2812
:103450000BD0009800780A2807D0FCF7E1FF00683D
:1034600000990978405C2028E9D100BF0022694614
:103470000098FDF76FF9306000980078A04207D1FE
:10348000FCF7CEFF006800994978405C202802D004
:103490004FF0FF30B9E700BF02E00098401C0090F9
:1034A0000098007878B1009800780D280BD000982B
:1034B00000780A2807D0FCF7B3FF00680099097864
:1034C000405C2028E9D100BF002269460098FDF742
:1034D00041F938600098007850B1009800780D28C4
:1034E00006D0009800780A2802D04FF0FF308CE711
:1034F00000208AE73A0000002D000000034601206A
:103500009040984328B101209040884308B9012099
:1035100070470020FCE7000010B500241148016846
:103520000120884010490978FF2900D100E00021DE
:10353000084004430D48007B08B1402000E0002013
:1035400004430B48007B20B10A48007808B1802072
:1035500000E000200443E043C2B201211820FDF73F
:10356000F9FE10BD000000200C000020EC0000203F
:10357000FC00002033000020C4B00024FDF776FFDB
:1035800000F0B2FA8D488EA1026804A8FCF7A6FFED
:1035900004A8FEF7C3FD40F2E77005210B220823C3
:1035A000CDE90021029000223B218A48FFF792F8E2
:1035B0008948FEF7D3FE894800F060FB00F0EEF981
:1035C00004A98448FFF756F804A8FEF7A7FDF3E026
:1035D000FFF7BCF9FFF7A0FF7E497F48FEF764FEC6
:1035E0007F480068C0B17F48006850B97E490968CB
:1035F000481CC11700EB91718910A0EB81017A4A38
:103600001160002077490860784908600846016821
:10361000774800F067FBCFE076480068C8B1714892
:10362000006898B171480068401C704908600846FD
:1036300001686F4800F056FB6C480068032805DD00
:1036400000206849086069490860B5E000206949C0
:1036500008606948006868B16248006848B901209C
:10366000604908606149086008460168604800F0E8
:1036700039FBA1E06148006808B1012404E060481A
:10368000006808B14FF0FF345748006830B1012896
:1036900017D0022829D0032872D152E04D48FEF7F6
:1036A00095FF5048006858B15448006810B9544814
:1036B000006828B14D48026821464648FEF7A2FE40
:1036C00072E04448FEF718FF4648006860B14B4876
:1036D000006810B94A48006830B144480268D21CFA
:1036E00021463C48FEF78EFE5EE03B48FEF754FD67
:1036F0003C48006858B14148006810B9404800682B
:1037000028B13A48026821463348FEF71CFD3D487F
:103710000068A8B13048007B08B9012000E0002013
:103720002D4908730846007B08B137A000E03CA093
:10373000024640A104A8FCF7D1FE04A8FEF7EEFC67
:1037400032E0264800F014FA2648006858B12B48A9
:10375000006810B92A48006828B124480268214648
:103760001E4800F0D7F927480068D8B100201F494B
:1037700008601C4908601948007B10B9012001E06D
:1037800011E00020154908730846007B08B12AA003
:1037900000E02EA0024627A104A8FCF79FFE04A883
:1037A000FEF7BCFC00E000BF00BFFFF757F94FF485
:1037B0007A70FDF71DFB00BF0AE7000054000020EF
:1037C00053797374656D436C6F636B203D20256482
:1037D0000A0000009C000020EC000020FC000020FB
:1037E000100000200400002000000020080000203D
:1037F0000C00002018000020140000201C000020F5
:103800002000002024000020416C61726D2069734B
:1038100020656E61626C6564206E6F770000000049
:10382000416C61726D2069732064697361626C65BB
:103830006400000025730A002053746172742063D1
:103840006F756E74646F776E000000005061757361
:103850006520636F756E74646F776E002DE9F041BB
:10386000C0B004460E4617464FF0FF3500BF00E0DB
:10387000641C207888B120780D280ED020780A2882
:103880000BD020782028F3D020780928F0D0207899
:103890000D28EDD020780A28EAD000BF44E0D6F801
:1038A0000080002500E06D1C605D202810D0605D68
:1038B00009280DD0605D0D280AD0605D0A2807D068
:1038C000605D28B1605D0D2802D0605D0A28EAD1F4
:1038D00055B3681DFCF7ACFD47F8280057F82800E1
:1038E0002A462146FCF7FAFF002057F828104855D1
:1038F0003068401C30602C4400BF00E0641C20781D
:1039000088B120780D280ED020780A280BD0207896
:103910002028F3D020780928F0D020780D28EDD089
:1039200020780A28EAD000BF15B130681028B6DD2B
:10393000306810280FDD0BA168463268FCF7CEFD19
:103940006846FEF7EBFB0AA0FEF7E8FB4FF0FF30FE
:1039500040B0BDE8F081306810B94FF0FF30F7E7B4
:103960000020F5E761726763203D2025640A0000AE
:10397000436F6D6D616E6420706172736520657256
:10398000726F723A20746F6F206D616E7920617270
:1039900067756D656E74730A0000000030B59DB0E8
:1039A0001C224A4916A8FCF740FF382247491C311F
:1039B00008A8FCF73AFF2022444954316846FCF736
:1039C00034FF8025002406E016A931F81400642194
:1039D000FEF7E4FC641C072CF6DB01203C49086080
:1039E0003C49086040F6B8303B4908602DE00024AF
:1039F000802528E0002206212220FDF7ABFCC4F13F
:103A000007005DF8200035490A5C05212220FDF7FA
:103A1000A1FC2A4606212220FDF79CFC4FF47A7077
:103A2000FDF7E6F92E480078FF2805D00022012195
:103A30001820FDF78FFC04E0FF2201211820FDF77C
:103A400089FC641C6D10082CD4DB23480068002816
:103A5000CDD1FF2201211820FDF77CFC00201C495C
:103A600008601C4908601F48FEF758FB1D48FEF718
:103A700055FB1C48FEF752FB1A48FEF74FFB19484E
:103A8000FEF74CFB1748FEF749FB1648FEF746FBCE
:103A90001448FEF743FB1348FEF740FB1148FEF7BE
:103AA0003DFB1048FEF73AFB0E48FEF737FB0D488A
:103AB000FEF734FB0B48FEF731FB0A48FEF72EFBFE
:103AC0000848FEF72BFB1DB030BD0000643E00002F
:103AD00008000020040000203800002068000020BA
:103AE0000C000020B444000000B5C1B04FF4807257
:103AF000074901A8FCF799FE01A8FEF70FFB01A8F2
:103B0000FEF70CFB01A8FEF709FB41B000BD000069
:103B1000643D000030B5012A04D0022A0CD0032AEB
:103B200023D113E083680B443C333C2493FBF4F52E
:103B300004FB1533836019E043680B443C333C2499
:103B400093FBF4F504FB153343600FE001EB8104B4
:103B5000036803EB440303F57A734FF47A7493FB21
:103B6000F4F504FB1533036000E000BF00BF30BD77
:103B7000F0B589B00446802600270A21206890FB12
:103B8000F1F090FBF1F201FB12000190642120683A
:103B900090FBF1F002900A21606890FBF1F201FBCA
:103BA00012000390606890FBF1F00490A06890FB15
:103BB000F1F201FB12000590A06890FBF1F0069075
:103BC0000D2007900C200890002527E0022D01D041
:103BD000042D01D1802000E00020074600220621AC
:103BE0002220FDF7B7FB01A850F825000D49085C1D
:103BF00040EA070205212220FDF7ACFB0A480078C5
:103C000040F0030000EA060206212220FDF7A2FB95
:103C10004FF47A70FDF7ECF86D1C7610082DD5DBAB
:103C200009B0F0BD680000200C00002010B504466B
:103C3000207B18B104A0FEF771FA04E00AA0FEF799
:103C40006DFA0120207310BD436F756E74646F7739
:103C50006E2068617320616C726561647920737491
:103C600061727465640A0000537461727420636F3A
:103C7000756E74646F776E0A000000000021017396
:103C8000E92101600D214160002181607047000041
:103C900010B504462068002805DA6068401E6060A0
:103CA00040F2E73020606068002804DAA068401E17
:103CB000A0603B206060A068002807DA0020207325
:103CC00020606060A06002A0FEF728FA10BD00002E
:103CD0000A3E3E3E2054696D65206973207570214F
:103CE0000A0000000246107831B1012906D00229ED
:103CF0000AD0032914D10DE0FF2013E080F00F005B
:103D0000C3B243F0F0000DE080F03000C3B243F0E6
:103D1000CF0007E080F0C000C3B243F03F0001E0F5
:103D2000FF2000BF00BF10707047000010B50029D1
:103D30000AD00878002807D005487844FCF7FAFD37
:103D4000002801D0002010BD0248784410BD0000BA
:103D50002A080000220800004FF04070E1EE100A2F
:103D600070470000303132333435363738390D0A78
:103D70000000000000000000000000000000000043
:103D80000000000000000000000000000000000033
:103D90000000000000000000000000000000000023
:103DA0000000000000000000000000000000000013
:103DB0000000000000000000000000000000000003
:103DC00000000000000000000000000000000000F3
:103DD00000000000000000000000000000000000E3
:103DE00000000000000000000000000000000000D3
:103DF00000000000000000000000000000000000C3
:103E000000000000000000000000000000000000B2
:103E100000000000000000000000000000000000A2
:103E20000000000000000000000000000000000092
:103E30000000000000000000000000000000000082
:103E40000000000000000000000000000000000072
:103E50000000000000000000000000000000000062
:103E600000000000050126014A015D018801B8013A
:103E7000EE010B024B029302BA0210037003DC0343
:103E800090010000900100009001000090010000EE
:103E900090010000900100009001000090010000DE
:103EA00090010000900100009001000090010000CE
:103EB00090010000900100000200000001000000DD
:103EC00009000000010000000100000001000000E6
:103ED00000000000010000001F0000001C000000A6
:103EE0001F0000001E0000001F0000001E00000058
:103EF0001F0000001F0000001E0000001F00000047
:103F00001E0000001F000000050126014A015D019E
:103F10008801B801EE0100000040004010000000E0
:103F2000008005401000000000500040110000001B
:103F300000900540110000000060004012000000E9
:103F400000A00540120000000070004013000000B7
:103F500000B00540130000000040024014000000C3
:103F600000C0054014000000005002402E00000078
:103F700000D005402E000000006002402F0000002D
:103F800000E005402F0000000070024030000000FB
:103F900000F005403000000000D003404600000063
:103FA00000000640460000000010064047000000E8
:103FB0000020064048000000003006407F0000005E
:103FC00000400640800000000050064084000000D1
:103FD000006006408C00000000400040100000001F
:103FE000008005401000000000500040110000005B
:103FF0000090054011000000006000401200000029
:1040000000A00540120000000070004013000000F6
:1040100000B0054013000000004002401400000002
:1040200000C0054014000000005002402E000000B7
:1040300000D005402E000000006002402F0000006C
:1040400000E005402F00000000700240300000003A
:1040500000F005403000000000D0034043000000A5
:10406000000006404300000000100640440000002D
:1040700000200640450000000030064058000000C7
:104080000040064059000000005006405C0000005F
:104090000060064064000000007006406C000000F4
:1040A000008006406D000000009006407F00000088
:1040B0000040004000800540005000400090054056
:1040C0000060004000A005400070004000B00540C6
:1040D0000040024000C005400050024000D00540B2
:1040E0000060024000E005400070024000F0054022
:1040F00000D00340000006400010064000100640BB
:1041000000200640002006400030064000300640F7
:104110000040064000400640005006400050064067
:1041200000600640006006400070064000700640D7
:104130000080064000800640009006400090064047
:104140000007000000060000000500000004000059
:104150000003000000020000000100000000000059
:104160000000000018ED00E01CED00E020ED00E094
:1041700000E400E004E400E008E400E00CE400E017
:1041800010E400E014E400E018E400E01CE400E0C7
:1041900020E400E024E400E028E400E02CE400E077
:1041A00030E400E034E400E038E400E03CE400E027
:1041B00040E400E044E400E048E400E04CE400E0D7
:1041C00050E400E054E400E058E400E05CE400E087
:1041D00060E400E064E400E068E400E06CE400E037
:1041E00070E400E074E400E078E400E07CE400E0E7
:1041F00080E400E084E400E088E400E000E100E026
:1042000004E100E008E100E00CE100E010E100E082
:1042100080E100E084E100E088E100E08CE100E082
:1042200090E100E000E200E004E200E008E200E0EB
:104230000CE200E010E200E080E200E084E200E056
:1042400088E200E08CE200E090E200E0006889098A
:10425000001C4E0E40420F0000201C0080841E00F7
:1042600000802500999E36000040380000093D007E
:1042700000803E0000004B00404B4C0000204E00F0
:10428000808D5B0000C05D000080700000127A002D
:1042900000007D0080969800001BB7000080BB00E6
:1042A000C0E8CE00647ADA000024F4000000FA00CE
:1042B00080A81201002D310100366E0140787D0189
:1042C0004000000000000000000100003E00080067
:1042D0000000000000010000A0000000020000003B
:1042E0000001000034540100000000000001000043
:1042F0002B700600000000000001000028000000F4
:104300000000000000010000270001000000000084
:10431000000100002000000000000000000100007B
:104320005000000002000000000100001AAC000074
:1043300000000000000100001794090000000000C8
:1043400000010000169805000000000000010000B8
:1043500014000000000000000001000013800800AD
:104360000000000000010000A000000008000000A4
:10437000000100001000000000000000000100002B
:1043800028000000020000000001000040000000C2
:1043900004000000000100006000000000000000B8
:1043A000000100005D000C000000000000010000A2
:1043B0005000000000000000000100004E0002005C
:1043C000000000000001000041AC010000000000FE
:1043D000000100003C00000000000000000100009F
:1043E0003A800900000000000001000030000000D9
:1043F0000000000000010000280000000000000094
:104400000001000027000100000000000001000082
:104410002360060000000000000100002160080089
:1044200000000000000100001E000000000000006D
:10443000000100001DC00400000000000001000099
:104440005000000002000000000100001800000001
:104450000000000000010000140000000000000047
:1044600000010000600000000400000000010000E6
:104470000024F40030003000005A620291009100E4
:1044800000879303D200D20000B4C40413011301C7
:1044900000E1F50554015401000E2707950195012F
:1044A00004000008000000000000000200010000FD
:1044B000100000002020202020202020202020206C
:1044C00020202020202020202020202020202020EC
:1044D00020202020202020202020202020202020DC
:1044E00020202020202020202020202020202020CC
:1044F000202020202020200A0000000009696E6989
:104500007420636C6F636B202020202020202020EB
:1045100020202020202020202020202020203A2081
:10452000696E7469616C697A652074686520636C72
:104530006F636B20746F2030303A30303A30300A7D
:104540000000000074460000000000209C000000F5
:104550003C020000104700009C00002014040100F1
:10456000580200001001000043000000F8FFFFFFA8
:104570000040404040404040404041414141414076
:10458000404040404040404040404040404040402B
:1045900040050202020202020202020202020202BA
:1045A00002202020202020202020200202020202BF
:1045B0000202909090909090101010101010101017
:1045C0001010101010101010101010100202020223
:1045D0000202888888888888080808080808080867
:1045E0000808080808080808080808080202020263
:1045F000400000000000000000000000000000007B
:1046000000000000000000000000000000000000AA
:10461000000000000000000000000000000000009A
:10462000000000000000000000000000000000008A
:10463000000000000000000000000000000000007A
:10464000000000000000000000000000000000006A
:10465000000000000000000000000000000000005A
:10466000000000000000000000000000000000004A
:10467000000000000000000000000000000000003A
:10468000FF0000000000000000000000000000002B
:10469000000000000000000000000000000000001A
:1046A000000000000000000000000000000000000A
:1046B00000000000FFFF00000100000000000000FB
:1046C00000000000000000000000000000000000EA
:1046D0000000000000000000000000003F065B4FEB
:1046E000666D7D077F6F777C585E79715C00000096
:1046F00000000000000000000000000000000000BA
:104700000000000000000000000000000024F40091
:0400000500000201F4
:00000001FF
