:020000040000FA
:1000000090030120F1020000F9020000FB02000051
:10001000FD020000FF0200000103000000000000DC
:1000200000000000000000000000000003030000CA
:100030000503000000000000070300007518000021
:100040000B0300000D0300000F030000110300006C
:1000500013030000B5190000170300001903000086
:100060001B0300001D0300001F030000210300000C
:1000700023030000250300002703000029030000DC
:100080002B0300002D0300002F03000031030000AC
:10009000330300003503000037030000390300007C
:1000A0003B0300003D0300003F030000410300004C
:1000B000430300004503000047030000490300001C
:1000C0004B0300004D0300004F03000051030000EC
:1000D00053030000550300005703000059030000BC
:1000E0005B0300005D0300005F030000610300008C
:1000F000630300006503000067030000690300005C
:100100006B0300006D0300006F030000710300002B
:1001100073030000750300007703000079030000FB
:100120007B0300007D0300007F03000081030000CB
:10013000830300008503000087030000890300009B
:100140008B0300008D0300008F030000A903000053
:100150000000000000000000AB030000AD03000041
:10016000AF030000B103000000000000B303000073
:10017000B5030000B7030000B9030000BB03000093
:10018000BD030000BF030000C1030000C303000063
:10019000C5030000C7030000C9030000CB03000033
:1001A000CD030000CF030000D1030000D303000003
:1001B000D5030000D7030000D9030000DB030000D3
:1001C000DD030000DF030000E1030000E3030000A3
:1001D000E5030000E7030000E9030000EB03000073
:1001E000ED030000EF030000F1030000F303000043
:1001F000F5030000F7030000F9030000FB03000013
:1002000000F002F800F051F80AA090E8000C8244D7
:100210008344AAF10107DA4501D100F046F8AFF2B4
:10022000090EBAE80F0013F0010F18BFFB1A43F0D4
:1002300001031847AC370000CC370000103A24BF48
:1002400078C878C1FAD8520724BF30C830C144BF3B
:1002500004680C607047000000230024002500267D
:10026000103A28BF78C1FBD8520728BF30C148BF19
:100270000B607047642900F09581732900F08D842C
:10028000002070471FB503F01BF89DE8030000F045
:10029000B9FB00F097FB04000020002102F0FAFFF8
:1002A000401C60601FBD10B510BD00F01FFD114661
:1002B000FFF7E8FF02F0D8FC00F03DFD03B4FFF7C4
:1002C000F2FF03BC00F06EFDEFF3108072B67047D2
:1002D000EFF310807047EFF3108062B6704730BFC5
:1002E000704780F311887047EFF31180704700006A
:1002F0004548804745480047FEE7FEE7FEE7FEE742
:10030000FEE7FEE7FEE7FEE7FEE7FEE7FEE7FEE7C5
:10031000FEE7FEE7FEE7FEE7FEE7FEE7FEE7FEE7B5
:10032000FEE7FEE7FEE7FEE7FEE7FEE7FEE7FEE7A5
:10033000FEE7FEE7FEE7FEE7FEE7FEE7FEE7FEE795
:10034000FEE7FEE7FEE7FEE7FEE7FEE7FEE7FEE785
:10035000FEE7FEE7FEE7FEE7FEE7FEE7FEE7FEE775
:10036000FEE7FEE7FEE7FEE7FEE7FEE7FEE7FEE765
:10037000FEE7FEE7FEE7FEE7FEE7FEE7FEE7FEE755
:10038000FEE7FEE7FEE7FEE7FEE7FEE7FEE7FEE745
:10039000FEE7FEE7FEE7FEE7FEE7FEE7FEE7FEE735
:1003A000FEE7FEE7FEE7FEE7FEE7FEE7FEE7FEE725
:1003B000FEE7FEE7FEE7FEE7FEE7FEE7FEE7FEE715
:1003C000FEE7FEE7FEE7FEE7FEE7FEE7FEE7FEE705
:1003D000FEE7FEE7FEE7FEE7FEE7FEE7FEE7FEE7F5
:1003E000FEE7FEE7FEE7FEE7FEE7FEE7FEE7FEE7E5
:1003F000FEE7FEE7FEE7FEE7FEE7FEE70448054905
:10040000054A064B704700009519000001020000E4
:100410009001002090030120900101209001012013
:1004200010B500F0CFFA001D10BD00BF692E00000E
:1004300070B5064600F0C2FA056806F10B0020F020
:100440000704B4429CBF002070BD2B466A68BAB155
:100450001068A04210D304F1080188423CBF5068E4
:10046000586007D35168101941601168091B016079
:1004700058601460101D70BD13465268002AE7D101
:100480002146284600F0AAFA0028DED170BD70B5DA
:100490000446051F00F092FA0068002C14BF44685F
:1004A00070BD002C18BFAC423CBF20466468F8D336
:1004B00001680A18AA4218BF456003D12A68054698
:1004C0001144016028684119A1421CBF6C6070BDD5
:1004D0006168696021680844286070BD0FB41CB56C
:1004E000074B06AA7B4469460090059800F02BFB59
:1004F0000020694600F03AFB1CBC5DF814FB0000CC
:100500008506000070B5044685690068C10601D5FE
:10051000302600E02026C00707D070BDD4E90121B5
:1005200030469047206A401C20626D1EF6D570BD93
:1005300070B5044685690078C00707D170BDD4E95D
:10054000012120209047206A401C20626D1EF6D5B4
:1005500070BD70B50C460546012A05D02878800686
:1005600000D5EA69002302E0012305E05B1C934209
:1005700002D2E05C0028F9D1A869E618C01AA86187
:10058000286A184428622846FFF7BCFF04E0D5E932
:10059000012114F8010B9047B442F8D32846FFF725
:1005A000C7FF70BD2DE9F04106460024106875298B
:1005B000314616A510D0AFF30080002802DA404281
:1005C00013A507E031688A0701D512A502E04907A3
:1005D00004D511A5012401E0AFF3008000210A2217
:1005E00006F1240709E0B0FBF2FCB0FBF2F302FBDA
:1005F0001C00303078541846491C0028F3D123469B
:100600002A463046BDE8F04100F03FBA0000000045
:100610002D0000002B000000200000002DE9F05FFD
:10062000894604464FF0000ADFF824B1FB44C0F8C5
:1006300020A02046E168884700287DD0252806D0E4
:10064000D4E901219047206A401C2062F1E700258F
:100650005F462046E16888472028064607DB312EA2
:1006600005D2B81910F8200C08B10543F1E7A80726
:1006700001D525F00405C4F81CA00027C4F818A073
:100680002A2E09D0304601F069FA38B304EB870806
:10069000303EC8F8186019E059F8041B204604EBF6
:1006A00087029161E1688847012F064618D1E06909
:1006B000002820DA25F020051DE0D8F8180000EB0E
:1006C000800006EB40003038C8F818002046E1688A
:1006D0008847064601F042FA0028EED1012F0AD0E1
:1006E0002E2E08D12046E16888477F1C0646022F3F
:1006F00045F02005C4DBA069002803DA404245F03C
:100700000105A061E80701D025F01005A6B1A6F10A
:100710004100192802D8203645F400654A46314682
:10072000204625604D46FFF7A5FD60B1012807D0A2
:10073000ED1D25F0070000E007E000F1080978E76B
:1007400005F1040975E730467AE7206ABDE8F09FB5
:10075000543300002DE9F04791460F468046044689
:10076000002614F8015B2DB1FFF75AFE0068405DCA
:10077000C007F6D12B2D02D02D2D18D0641E4A466D
:100780003946204600F00DFA27B13968A14201D15F
:10079000C7F800804FF0020471050BD540420028D5
:1007A00003DD00F013F90460A007BDE8F08746F40C
:1007B0008066E4E70028F8DA00F008F904606FF0DA
:1007C0000040F2E730B505460B462A4613F8014BC8
:1007D00012F8010B08B1A042F8D01CB1002802D0D9
:1007E0006D1CF1E7284630BD2DE9F0410E46054667
:1007F000002400E0641C285D00F03AF90746305DF3
:1008000000F036F9381A02D1295D0029F2D1BDE88D
:10081000F081421E12F8013F002BFBD111F8013B81
:10082000002B02F8013BF9D1704710B5203AC0F017
:100830000B80B1E81850203AA0E81850B1E81850E1
:10084000A0E81850BFF4F5AF5FEA027C24BFB1E81E
:100850001850A0E8185044BF18C918C0BDE810408F
:100860005FEA827C24BF51F8043B40F8043B08BF98
:100870007047D20728BF31F8023B48BF11F8012B5F
:1008800028BF20F8023B48BF00F8012B70474FF00B
:10089000000200B5134694469646203922BFA0E8D0
:1008A0000C50A0E80C50B1F12001BFF4F7AF0907DC
:1008B00028BFA0E80C5048BF0CC05DF804EB8900CD
:1008C00028BF40F8042B08BF704748BF20F8022B10
:1008D00011F0804F18BF00F8012B704710B5044687
:1008E00010F0030F08BF11F0030F40F015804FF018
:1008F000013E121FC0F20E8051F8043BA3EB0E0C18
:100900002CEA030C1CEACE1C08BF40F8043BF0D0D4
:10091000A1F1040102F10402521E08DB11F8013BAF
:10092000002B00F8013BF7D1114600F089F9204671
:1009300010BD00004FF0013C50F8042B51F8043B6F
:100940009A4221D1A2EB0C03934313EACC1317D1A3
:1009500050F8042B51F8043B9A4215D1A2EB0C033A
:10096000934313EACC130BD150F8042B51F8043BFA
:100970009A4209D1A2EB0C03934313EACC13DBD0C8
:100980004FF00000704700BFD01A01BAB1FA81F1F0
:1009900001F0180122FA01F0CB40C1F12001DBB2D5
:1009A000C0B2C01A2CFA01F3D11A914311EAC31153
:1009B000E6D17047704770477047000000487047A5
:1009C00034010020004870474C0100200048704767
:1009D0002C010020704770477047704738B50446B7
:1009E0000A4600206946AFF30080002808BF38BDE2
:1009F00002460099204600F049F9012038BD012047
:100A000000F06CB9F8B5AFF30080054600200C4645
:100A1000102000BF0646A819A0420DD932466946EB
:100A20000020AFF30080070008BF00F057F90098DE
:100A3000A04218BF0546C419FFF7C0FF056007466E
:100A4000F01D20F007004619284600F00AF8B442CD
:100A500008BFF8BDA21B31463868BDE8F84000F079
:100A600015B900210160C0E90110704710207047DE
:100A700010B50446FFF7D4FC0068005DC00602D53F
:100A800004F1200010BD204610BD2DE9F0470D46B1
:100A900099469246044600F124080168880604D568
:100AA000E06921F01001216000E00120A84201DD91
:100AB000471B00E00027A1697A1902EB0900081A18
:100AC000A0612078C00602D42046FFF71BFD002657
:100AD00008E0D4E901211AF806009047206A401C7A
:100AE000761C20624E45F4DB2078C0060AD52046ED
:100AF000FFF708FD06E0D4E9012130209047206A85
:100B0000401C2062381EA7F10107F4DC07E0D4E99D
:100B1000012118F805009047206A401C2062281E19
:100B2000A5F10105F3DC2046FFF702FD2078000661
:100B300002D50220BDE8F0870120FBE701694A1CCD
:100B400002610878704700B58FB0CDE9013100210E
:100B5000059105497944CDE9031011466846FFF730
:100B60005DFD0FB000BD0000E5FFFFFF0A6802F861
:100B7000010B0A60704710B5436913B1AFF30080F1
:100B800001E0FFF7E6FC012010BD127800F124011E
:100B90000A7000224A700122EDE711684FF0FF321F
:100BA000E9E72DE9F05F824615468B4600270AF1FA
:100BB0000104B9460078302801D09DB113E014F843
:100BC000010B0127782803D0582801D045B10AE04D
:100BD0000DB1102D07D1002714F8010B102502E0EC
:100BE000082500E00A250026B0460EE005FB0800B7
:100BF00005FB06F101271FFA80F801EB1046B6F558
:100C0000803F00D3B94614F8010B294600F058F88C
:100C10000028EBDABBF1000F05D00FB1641E00E035
:100C20005446CBF80040B9F1000F06D0FFF7CEFED6
:100C300002210160C81EBDE8F09F48EA0640FAE7BD
:100C40004FF000020429C0F0128010F0030C3FF4B2
:100C500020AECCF1040CBCF1020F18BF00F8012B40
:100C6000A8BF20F8022BA1EB0C01FFF712BE5FEA30
:100C7000C17C24BF00F8012B00F8012B48BF00F80D
:100C8000012B7047004870472C0100200346406844
:100C90008C46002818BF88423CBF03464068F8D302
:100CA00018681844884207D00CF1030020F00700B0
:100CB000001D411A521A0146081D0A60FFF7E7BBE2
:100CC0003A2800D2303820F02002412A01D3A2F184
:100CD0003700884201D34FF0FF30704710B500F065
:100CE00039F8BDE8104000F02FB870477546FFF79F
:100CF000C9FFAE4605006946534620F00700854609
:100D000018B020B5FFF77AFBBDE820404FF0000691
:100D10004FF000074FF000084FF0000B21F00701E3
:100D2000AC46ACE8C009ACE8C009ACE8C009ACE826
:100D3000C0098D46704710B50446AFF300802046C9
:100D4000BDE81040FFF7BABA002801D000F02AB879
:100D50007047000010B5012805D0002103A000F065
:100D600027F8012010BD09A1F8E7000053494752B8
:100D7000544D454D3A204F7574206F66206865616B
:100D800070206D656D6F7279000000003A20486533
:100D90006170206D656D6F727920636F727275700E
:100DA0007465640001491820ABBEFEE7260002000E
:100DB00070B505460C460A2000E06D1C00F011F8E5
:100DC00035B128780028F8D102E0641C00F009F859
:100DD00014B120780028F8D1BDE870400A20AFF3A4
:100DE000008008B569468DF800000320ABBE08BD41
:100DF000002100E0491C8142FCD37047D0F8003448
:100E000012F0010F14BF0B438B43C0F8003412F0F3
:100E1000020FD0F8202414BF114322EA0101C0F8C8
:100E2000201470472DE9F00301264FF0000C032534
:100E3000C2F3411706FA0CF40C4211D0D0F8C48F5B
:100E40004FEA4C0405FA04F928EA0908C0F8C48FEF
:100E5000D0F8C48F07FA04F448EA0404C0F8C44F79
:100E60000CF1010C0CF0FF0CBCF1080FE2D3D0F830
:100E700000C512F0010F14BF4CEA010C2CEA010C62
:100E8000C0F800C5D0F804C512F0020F14BF4CEA38
:100E9000010C2CEA010CC0F804C5D0F808C512F00A
:100EA000040F14BF4CEA010C2CEA010CC0F808C571
:100EB000D0F818C512F0080F14BF4CEA010C2CEA48
:100EC000010CC0F818C512F0100FD0F83C2514BF63
:100ED0000A438A43C0F83C25D0F80C2513F0010FD3
:100EE00014BF0A438A43C0F80C25D0F8102513F02C
:100EF000020F14BF0A438A43C0F81025D0F8142506
:100F000013F0040F14BF0A438A43C0F81425D0F825
:100F10001C2513F0080F14BF0A438A43C0F81C2590
:100F2000D0F8442513F4007F14BF0A438A43C0F865
:100F30004425D0F8402513F4407F14BF0A438A4368
:100F4000C0F84025D0F82825002B0CBF114322EA19
:100F50000101C0F82815BDE8F00370470E4AC0F340
:100F60000741D26E01238B401A420C4A1ABF02EB92
:100F7000C101496852F83110020AD1F82C354FF0FE
:100F80000F0C0CFA02FC00F00F0023EA0C03904057
:100F90001843C1F82C05704700E00F40943500005D
:100FA00050F82100704730B50C4605460022FFF787
:100FB00025FF21462846BDE8304008230122FFF7DF
:100FC00031BF30B50C46054608230122FFF72AFF42
:100FD00021462846BDE830400122FFF70FBF30B55B
:100FE0000C4605460222FFF709FF21462846BDE8C8
:100FF000304009230122FFF715BF30B50C460546E6
:101000000222FFF7FBFE21462846BDE830400823B8
:101010000122FFF707BF30B50C4605460222FFF755
:10102000EDFE21462846BDE8304008230122FFF7A7
:10103000F9BE40F8212070472DE9F04104460E46E4
:1010400000BF1D4800F07AF80028FAD1002221469E
:10105000194800F0BBF83146174800F079F807212D
:10106000154800F071F800BF134800F061F800283F
:10107000FAD1114800F073F8C7B24FF47A70FFF755
:10108000B7FE012221460C4800F0A0F807210A48CB
:1010900000F05AF800BF084800F04AF80028FAD1DA
:1010A000054800F053F8C5B24FF47A70FFF7A0FE80
:1010B0002846BDE8F0810000000002402DE9F04123
:1010C00004460F46154600BF184800F037F80028C0
:1010D000FAD100222146154800F078F83946134825
:1010E00000F036F80321114800F02EF800BF0F4839
:1010F00000F024F80028FAD10C4800F030F8C6B20D
:1011000029460A4800F024F80521084800F01CF898
:1011100000BF064800F012F80028FAD1034800F09A
:101120001EF8C6B23046BDE8F08100000000024063
:10113000406810F0400018BF01207047406810F070
:10114000010018BF012070474160704780687047F8
:1011500081607047016A41F0100101627047406888
:1011600010F0010F05D110F0120F1CBF00F01C0091
:101170007047002070470000036A43F010030362C9
:10118000002A14BF0E4A0F4A02EB820301EB8303CD
:1011900002EB820292005B1EB3FBF2F2521EC260AF
:1011A000D0F8C02F12F0010F08BF7047064A114453
:1011B000521CB1FBF2F1491E41F08001C160704741
:1011C000801A0600A08601007F47370142EA4101EC
:1011D0000160704710B538202049487520492148E2
:1011E00000F094F920490860084600684FF47A71CD
:1011F000B0FBF1F4204600F037FB00F027FB00F0D5
:101200002CFB00F0BBF800F0F9F800F043F91520D2
:1012100000F036F85021154800F089FC00F062F823
:1012200000F096F812490860032000F083F8E021EE
:10123000152000F08FF803210F2000F08BF800F04C
:1012400067F80C490860152000F054F80A49086056
:101250000F2000F04FF80949086010BD4C00002035
:10126000002D3101500500F13800002000C0004081
:10127000400000203C0000204800002044000020E6
:101280001649042804BF086840F4803018D00528A7
:1012900004BF086840F4003012D0062812D00F288E
:1012A00015D0102838BF7047103800F01F010122F8
:1012B00002FA01F142090A4850F822000160704721
:1012C00008607047086840F48020086070474FF05D
:1012D000E020016941F002010161704724ED00E066
:1012E000E036000010B5FEF7F6FF002818BF012019
:1012F00010BD0000054A20F003015158096880071D
:10130000C00E21FA00F0C0B2704700004436000061
:1013100006480068064A00F4E061002052F82030D8
:101320008B421CBF401C0828F8D370470CED00E02E
:1013300024360000044951F82000044940F0FD70B3
:1013400040F0806008607047243600000CED00E03B
:10135000FEF7CABF084A20F00303D258136880077B
:10136000C00E4FF0FF0C0CFA00FC23EA0C0301FA4C
:1013700000F01843106070474436000010B51B4859
:1013800000F03AFA00BF194800F04AFA0028FAD0F3
:101390001648C01C00F030FA00BF1448C01C00F012
:1013A0003FFA0028F9D01148C01D00F025FA00BF0F
:1013B0000E48C01D00F034FA0028F9D001210C4875
:1013C000FFF7FFFD01210B48FFF7FBFD0221094854
:1013D000FFF7F7FD03210848FFF7E5FD0A23012287
:1013E00003210548FFF71EFD10BD0000050800F0B1
:1013F000005002400040064000D0034010B51E4897
:1014000000F0FAF91D4800F0F7F91D48FFF7A6FDB6
:101410001C48FFF7A3FD04211B48FFF7EEFD082140
:101420001948FFF7DCFD0122184801681848FFF74A
:10143000A3FE1748FFF78EFEFF220C212220FFF7A4
:101440003DFE044600220D212220FFF737FE044610
:1014500000220E212220FFF731FE04460022032144
:101460001820FFF72BFE0446FF2201211820FFF76A
:1014700025FE044610BD0000002000F0010800F029
:1014800002080100020C010000500040380000205A
:101490000000024010B5144800F0AEF9134800F007
:1014A000ABF900BF114800F0BBF90028FAD00120C9
:1014B000FFF754FD40F20140FFF750FD03214FF0CC
:1014C0004020FFF7A8FD60234FF4E132084801688F
:1014D000084800F0F0FA08A000F032FB20220121B9
:1014E000044800F01FFB10BD001800F0000800F0D9
:1014F0003800002000C000400D0A48656C6C6F2C5D
:1015000020776F726C64210D0A0000002DE9F00352
:10151000AF4D02462868AF4B1840A0F18053B3F599
:10152000A02359D002F03809DFF8AC82C2F384144A
:10153000B9F1100F25D0B9F1300F04BF47F2305088
:101540004FF400130DD04FF03800904304BF4FF418
:101550000040C30105D012F0380F1CBF0020034625
:1015600013D09E4F12F4605F4FF0000618BF0022A8
:101570002CD057F8324044457DD307EBC202526865
:10158000E1E0002340461524EBE7A4F1090012280E
:1015900022D29348D5F87CC04FF04C7350F8240009
:1015A0002CF01C0C072CA8BF4CF0100CC5F87CC00C
:1015B0002E6D4FF4002C16F4807FD2D1BCF1010CBB
:1015C0000AD02E6D16F4807FF8D0CAE712F0380FDB
:1015D00018BFB9F1100F04D0BDE8F0034FF00000C0
:1015E0007047C2F30268DFF8FCC14FF0000257F801
:1015F0003290E14503D307EBC202526803E0521C6C
:10160000062AF4D33246C5F8C020D5F8B020DFF85A
:10161000D8C102EA0C0242F00042C5F8B020DFF85F
:10162000CCC1A4F109024C1E5CF828C0A444BCFB48
:10163000F1FCD5F8B0101943C5F8B01008EBC8019B
:1016400001EB41046A4902EB420201EBC40101EBE8
:1016500082046468C5F86441D5F864416FF0FF08FE
:1016600008EB0C2C44EA0C0CC5F864C151F82210AC
:10167000D5F8602100E061E002F400021143C5F8F2
:101680006011D5F86011D5F86021C1F38921C2F34A
:101690000904D5F86421C2F3042202F1010CD5F843
:1016A000642102F01F02521CB0FBF2F04A09C2F1A1
:1016B00000084443424301EB481104EB52124843F3
:1016C00002EB9020B0FBFCF041080846002257F8DE
:1016D00032C0844503D307EBC200466802E0521CC7
:1016E000062AF4D3C5F8C060D5F8600110F4000FE5
:1016F0001DBFD5F8B00040F08040C5F8B000D5F867
:10170000600104BF40F40000C5F860014FF40040E0
:10171000D5F8682112F0010F02D1401E0028F7DC35
:10172000002808BF002148D0D5F8B000184340F089
:10173000010040F01040C5F8B0003EE0521C062AFF
:10174000FFF417AF3246C5F8C020D5F8602122F467
:101750000002C5F86021D5F8B020DFF898C002EA91
:101760000C0242F00042C5F8B020002908BF4FF03B
:10177000000C0AD0B0FBF1FCBCF1000F18BFACF1BB
:10178000010C0CF10101B0FBF1F10846002257F801
:101790003240844203D307EBC200466802E0521C89
:1017A000062AF4D3C5F8C060D5F8B00043EA8C220D
:1017B000104340F00040C5F8B000D5F8B00020F468
:1017C0007000C5F8B000BDE8F0030846704700009F
:1017D00000E00F400000FF700024F40054390000C6
:1017E0003837000040787D0100FC0FE03037000002
:1017F000A4370000FF0300EFC0F307230749C0B27E
:10180000194401F07043C1F3130143EA411141EA65
:10181000800040F0007001220260704700E60F4037
:10182000C0F307220849C0B2114401F07042C1F36D
:10183000130142EA411141EA800040F00070006863
:10184000002818BF0120704700EA0F404FF0E02049
:10185000016941F00501016170474FF0E020016925
:1018600041F00201016170474FF0E021401E4861E4
:101870007047000010B53848007B70B137480068E9
:1018800018B137480068032804D033480068401E68
:1018900031490860304801F0AFFC3248006820B19F
:1018A00030480068401E2F4908602F48008828B142
:1018B0002D480088401E2C49088014E04FF47A70AF
:1018C000294908800120294908702448006810B17E
:1018D0002348006820B126480068401C244908605D
:1018E000234800F091FB2348008828B12148008854
:1018F000401E2049088005E064201E490880012020
:101900001D4908701D48008828B11C480088401EE9
:101910001A49088008E04FF4FA70184908801848FE
:101920000168184801F092FC09E00020164908708F
:1019300011490870012211461448FFF77AFB012172
:101940001348FFF72DFB0028EFD0002201210F489C
:10195000FFF76FFB10BD0000DC000020040000203A
:101960000000002030000020280000202C00002073
:101970007C000020260000202B00002024000020F6
:10198000080000200C0000202A0000200040064033
:1019900000D003400448006840F470000249086029
:1019A000024803490860704788ED00E00024F40015
:1019B0007800002030B5C3B0002001904FF4807152
:1019C00003A8FEF764FF01212E4800F0B4F8054695
:1019D00029462C4800F0A9F814E02A4800F05AF8EB
:1019E000C0B2029002A903A8FEF713FF9DF80800F9
:1019F0000D2800D10BE0234800F058F810B905205D
:101A000000F078FB1F4800F051F80028E5D100BF36
:101A10001D4A01A903A801F0A9FA60B1002405E05C
:101A2000194951F82400FEF732FD641C01988442E4
:101A3000F6DB43B030BD1449019800F0CFFB002421
:101A400005E0114951F82400FEF721FD641C0198BE
:101A50008442F6DB002202210C48FFF7EAFA04E098
:101A6000022211460948FFF7E4FA02210848FFF76D
:101A700097FA0028F4D0002202210448FFF7D9FA8F
:101A800000BFD6E700C00040EC0000200040064048
:101A900000D00340816911F0100FFBD1006870473E
:101AA000826912F0200FFBD101607047806901212B
:101AB00021EA10107047D0F818C01CF0080FFAD1B6
:101AC000D0F82CC02CF0100CC0F82CC0D0F830C0CE
:101AD0002CF0010C2CF4407CC0F830C0D0F830C0A1
:101AE000B1EB021F34BF4CF0200C2CF0200CC0F8DE
:101AF00030C038BF5208C900B1FBF2F1491C490897
:101B00008A09426201F03F018162C3620021816162
:101B1000C16A41F01001C162016B40F20132114310
:101B20000163704711434163704741647047826BA2
:101B3000114381637047002914BF006CC06B70476C
:101B400010B5044604E014F8011B0348FFF7A8FF92
:101B500020780028F7D110BD00C0004030380A2896
:101B600001D201207047002070470000F0B589B015
:101B70000446802600270A21206890FBF1F201FB31
:101B800012000190206890FBF1F00290606890FBD9
:101B9000F1F201FB12000390606890FBF1F00490F9
:101BA000A06890FBF1F201FB12000590A06890FB89
:101BB000F1F00690152007900A200890002527E0F4
:101BC000022D01D0042D01D1802000E00020074625
:101BD000002206212220FFF771FA01A850F8250003
:101BE0000D49085C40EA070205212220FFF766FA4A
:101BF0000A48007840F0030000EA0602062122208D
:101C0000FFF75CFA4FF47A70FFF7F2F86D1C76106C
:101C1000082DD5DB09B0F0BD4C0000200C000020E1
:101C200038B504460D462068009008A12846D4E93E
:101C30000132FEF753FC207B08B10CA000E00DA0A0
:101C400001462846FEF7E5FD38BD0000416C617293
:101C50006D20253032643A253032643A25303264C2
:101C60000A456E61626C65643A20000054727565C5
:101C70000A00000046616C73650A000000210173D0
:101C8000082181600221416000210160704710B588
:101C90000446002909DB3B2907DC002A05DB3B2A37
:101CA00003DC002B01DB172B02DD4FF0FF3010BDF2
:101CB00021606260A3600020F9E70000F0B589B000
:101CC0000446802600270A21E06890FBF1F201FB20
:101CD00012000190E06890FBF1F002902069401C36
:101CE00090FBF1F201FB120003902069401C90FB75
:101CF000F1F00490606990FBF1F201FB1200059095
:101D0000606990FBF1F090FBF1F201FB120006908C
:101D10006421606990FBF1F00A2190FBF1F201FB74
:101D2000120007904FF47A71606990FBF1F008900F
:101D3000002525E0022D01D0042D01D1802000E0F6
:101D400000200746002206212220FFF7B7F901A84C
:101D500050F825000C49085C40EA070205212220C2
:101D6000FFF7ACF90948007806EA000206212220B4
:101D7000FFF7A4F94FF47A70FFF73AF86D1C76106C
:101D8000082DD7DB09B0F0BD4C0000200C0000206E
:101D9000F0B587B00446802600270A21206890FB12
:101DA000F1F201FB12000190206890FBF1F002902B
:101DB000606890FBF1F201FB12000390606890FBF9
:101DC000F1F00490A06890FBF1F201FB1200059085
:101DD000A06890FBF1F00690002525E0022D01D0CF
:101DE000042D01D1802000E00020074600220621BA
:101DF0002220FFF763F901A850F825000C49085C80
:101E000040EA070205212220FFF758F90948007827
:101E100006EA000206212220FFF750F94FF47A70FB
:101E2000FEF7E6FF6D1C7610062DD7DB07B0F0BD80
:101E30004C0000200C00002038B504460D46E06838
:101E400000902069431C03A128466269FEF746FB07
:101E500038BD0000446174652025642D253032644E
:101E60002D253032640A000038B504460D4620683E
:101E7000009003A12846D4E90132FEF72FFB38BDBC
:101E800054696D6520253032643A253032643A2534
:101E90003032640A000000002DE9F04F8DB0044696
:101EA0000F4690469946DDE916AB189E3022284928
:101EB00001A8FEF7BAFC2760C4F80480C4F80890B3
:101EC000C4F80CA00020A061C4F810B066616421C1
:101ED00096FBF1F201FB126139B13046F11706EBC6
:101EE00091718910A6EB810131B14FF4C87196FB55
:101EF000F1F201FB126109B9012100E00021E16169
:101F0000002507E001A850F8251004F1200040F852
:101F100025106D1C0B2DF5DDE169606A01446162DD
:101F2000002507E004F1200050F82500A1690844CD
:101F3000A0616D1C2069A842F4DCE068401EA16924
:101F40000844A061204600F05FF80DB0BDE8F08FB6
:101F5000CC3300002DE9FE4306460F4615461C46CD
:101F6000002C03DB0B2D01DC002D03DA4FF0FF30DA
:101F7000BDE8FE83642194FBF1F201FB124139B10B
:101F80002046E11704EB91718910A4EB810131B176
:101F90004FF4C87194FBF1F201FB124109B9012120
:101FA00000E000218846012D02D108F11C0003E069
:101FB00006F1200050F825008146012F01DB4F4536
:101FC00002DD4FF0FF30D3E7CDE9007502943046D3
:101FD00096E80E00FFF760FF0020C9E710B5044641
:101FE000002909DB3B2907DC002A05DB3B2A03DC4F
:101FF000002B01DB172B02DD4FF0FF3010BD2160FD
:102000006260A3600020F9E710B501683C290DDB90
:102010003C22016891FBF2F14268114441603C228C
:10202000016891FBF2F302FB1311016041683C2946
:102030000DDB3C22416891FBF2F182681144816022
:102040003C22416891FBF2F302FB1311416081686D
:10205000182914DB1822816891FBF2F1826911447E
:1020600081611822816891FBF2F1C2681144C1605C
:102070001822816891FBF2F302FB13118160D0E911
:10208000062101F26D118A4226DB4169491C41613A
:10209000002181610121C160002101616423426945
:1020A00092FBF3F403FB14223AB14169CA1701EB26
:1020B00092729210A1EB82023AB14FF4C873426956
:1020C00092FBF3F403FB14220AB9012200E0002280
:1020D000C261C1691C31416200F12001D0E90323D2
:1020E00051F823108A4204DD0121C1600169491CB5
:1020F000016110BD0349086000BF02490968002959
:10210000FBD170473000002010B500212220FEF7DF
:1021100093FF20490870084600781F4909788842D3
:1021200037D00A20FFF7E6FF00212220FEF784FFC8
:10213000184908700022184801781648007800F005
:1021400085FD16490860012213480178114800787E
:1021500000F07CFD1249086001220F4801780D480B
:10216000007800F073FD0F4908600622FF2109483E
:10217000007800F06BFD0C4908600722FF2105483C
:10218000007800F063FD09490860024800780249C0
:10219000087010BD34000020350000201000002021
:1021A00014000020180000201C0000202000002047
:1021B000002005490860054908600549086005498F
:1021C00008600549086070471000002014000020D6
:1021D000180000201C000020200000202DE9F04104
:1021E000C4B005460C46BAA12068FEF7A3FB002840
:1021F00012D1B8A0FFF7A4FCBC48FFF7A1FCBCA01B
:10220000FFF79EFCC6A0FFF79BFCD3A0FFF798FC4E
:10221000002044B0BDE8F081DCA12068FEF7E4FABC
:1022200000281DD1022D15D1DAA16068FEF7DCFA75
:1022300080B94FF4FA60002101220B46CDE900215C
:1022400002900A46D548FFF727FED5A0FFF778FC95
:102250000020DEE7DBA0FFF773FC4FF0FF30D8E78C
:10226000DDA12068FEF7C0FA002849D1022D10D167
:10227000DAA16068FEF7B8FA48B1DAA16068FEF743
:10228000B3FA20B1D9A16068FEF7AEFA08B901200F
:1022900000E0002006463EB3D0A16068FEF7A4FA35
:1022A00038B904A9BD48FFF7DFFD04A8FFF748FCD3
:1022B00018E0CCA16068FEF797FA38B904A9B748CE
:1022C000FFF7BAFD04A8FFF73BFC0BE0C7A160686D
:1022D000FEF78AFA30B904A9C648FFF7A1FC04A8A2
:1022E000FFF72EFC002094E7C3A0FFF729FCCCA049
:1022F000FFF726FCD4A0FFF723FC4FF0FF3088E760
:10230000DBA12068FEF770FA002872D1032D10D1EE
:10231000B2A16068FEF768FA48B1B2A16068FEF742
:1023200063FA20B1B1A16068FEF75EFA08B9012036
:1023300000E000200646002E77D001AB02AA03A9D8
:10234000A06800F0F5FB002821D0CAA0FFF7F8FB39
:10235000A4A16068FEF748FA08B9CDA000E062A029
:102360000746A0A16068FEF73FFA08B9C8A000E0E0
:102370005DA0804600974346C6A104A86268FEF7A8
:10238000ADF804A8FFF7DCFB4FF0FF3041E793A165
:102390006068FEF729FA90B9804801A90EC9FFF7D5
:1023A0001DFE28B1C6A0FFF7CBFB4FF0FF3030E792
:1023B0000020C7490860C7A0FFF7C2FB33E089A12E
:1023C0006068FEF711FAA8B90298421E7348039B91
:1023D0000199FFF7BFFD28B1C6A0FFF7B1FB4FF091
:1023E000FF3016E70120BA490860C6A0FFF7A8FB36
:1023F00019E026E07DA16068FEF7F6F998B97D48FE
:1024000001A90EC9FFF743FC28B1C6A0FFF798FB4E
:102410004FF0FF30FDE60220AD49086000E004E027
:10242000C5A0FFF78DFB0020F3E6CBA0FFF788FBEC
:10243000D8A0FFF785FBE6A0FFF782FB4FF0FF3047
:10244000E7E6F2A12068FEF7CFF900283FD1022D80
:1024500010D162A16068FEF7C7F948B161A1606858
:10246000FEF7C2F920B1EAA16068FEF7BDF908B92C
:10247000012000E00020064646B358A16068FEF740
:10248000B3F930B9002092490860E3A0FFF758FB88
:1024900016E054A16068FEF7A7F930B901208C4915
:1024A0000860E2A0FFF74CFB0AE0D9A16068FEF7E4
:1024B0009BF928B9032086490860E14800F06AFECC
:1024C0000020E0490860E0490860A2E6BEE1C9E1F9
:1024D0003F000000417661696C61626C6520636F4A
:1024E0006D6D616E64733A0A000000009839000057
:1024F00009676574203C54494D452F444154452F8C
:10250000414C41524D3E20202020202020202020E0
:1025100020203A20676574207374617475730A0013
:1025200009736574203C54494D452F414C41524D2F
:102530002F444154453E203C78783A78783A787870
:102540003E203A2073657420636C6F636B20737454
:10255000617475730A0000000972756E203C54495D
:102560004D452F444154452F535457415443483E01
:10257000202020202020202020203A2072756E204C
:1025800066756E6374696F6E730A0000696E6974B4
:1025900000000000636C6F636B0000007C00002093
:1025A000436C6F636B20726573657420746F2032A7
:1025B0003030302D312D312D30303A30303A30300E
:1025C0000A00000055736167653A20696E697420DE
:1025D000636C6F636B0A00006765740074696D65F6
:1025E000000000006461746500000000616C6172AD
:1025F0006D000000CC00002055736167653A2067CC
:1026000065742074696D6520202D20726574757263
:102610006E20636C6F636B2074696D650A00000047
:1026200020202020202020676574206461746520AC
:10263000202D2072657475726E20636C6F636B2041
:10264000646174650A00000020202020202020679B
:10265000657420616C61726D202D207265747572D5
:102660006E20616C61726D207374617475730A0001
:1026700073657400496E76616C69642074696D6578
:102680002F6461746520666F726D61740A000000CA
:102690007878000055736167653A2073657420256A
:1026A00073203C257378783A79793A7A7A3E2F3CD0
:1026B000257378782D79792D7A7A3E0A000000000A
:1026C000496E76616C69642074696D650A0000006A
:1026D00000000020436C6F636B2074696D6520738C
:1026E0006574207375636365737366756C6C790AC2
:1026F00000000000496E76616C6964206461746555
:102700000A000000436C6F636B2064617465207382
:102710006574207375636365737366756C6C790A91
:1027200000000000496E76616C696420616C617222
:102730006D2074696D650A00416C61726D20746969
:102740006D65207365742073756363657373667557
:102750006C6C790A0000000055736167653A20735C
:1027600065742064617465203C796561722D6D6FBC
:102770006E74682D6461793E202020202020202D59
:102780002073657420636C6F636B20646174650AE9
:102790000000000020202020202020736574207479
:1027A000696D65203C68683A6D6D3A73733E2F3CE5
:1027B00068682D6D6D2D73733E20202D2073657418
:1027C00020636C6F636B2074696D650A0000000004
:1027D0002020202020202073657420616C61726DA0
:1027E000203C68683A6D6D3A73733E2F3C68682DE3
:1027F0006D6D2D73733E202D2073657420616C61A7
:10280000726D2074696D650A0000000072756E00BB
:1028100063646F776E000000446973706C617920A7
:10282000636C6F636B2074696D650A004469737033
:102830006C617920636C6F636B20646174650A005E
:10284000DC000020040000200800002044A0FFF766
:1028500077F94DA0FFF774F955A0FFF771F94FF024
:10286000FF30D6E460A12068FDF7BEFF002833D119
:10287000022D0DD1AFF28C216068FDF7B5FF28B1B4
:10288000AFF274016068FDF7AFFF08B9012000E006
:1028900000200646BEB1AFF2AC216068FDF7A4FF90
:1028A00030B901205249087352A0FFF749F908E0F6
:1028B000AFF2A4016068FDF797FF10B9534800F02C
:1028C00069FC0020A5E452A0FFF73AF95DA0FFF7EC
:1028D00037F94FF0FF309CE466A12068FDF784FFD4
:1028E000002836D1022D0DD1AFF200316068FDF71E
:1028F0007BFF28B1AFF2E8016068FDF775FF08B90A
:10290000012000E000200646D6B1AFF22031606819
:10291000FDF76AFF30B900203549087357A0FFF76B
:102920000FF90BE0AFF218116068FDF75DFF28B9F1
:1029300000203649087356A0FFF702F9002068E42A
:1029400057A0FFF7FDF864A0FFF7FAF84FF0FF304B
:102950005FE46DA0FFF7F4F84FF0FF3059E400009A
:1029600055736167653A2072756E206461746520E5
:10297000202D20646973706C617920636C6F636BC8
:1029800020646174650A000020202020202020722D
:10299000756E2074696D6520202D20646973706CDC
:1029A000617920636C6F636B2074696D650A000048
:1029B0002020202020202072756E2063646F776EA7
:1029C000202D20646973706C617920616E642073BE
:1029D000746172742074696D657220636F756E74B2
:1029E000646F776E0A000000656E61626C650000BE
:1029F000CC000020416C61726D20697320656E61AE
:102A0000626C6564206E6F770A000000DC000020B5
:102A100055736167653A20656E61626C6520616C13
:102A200061726D20202D20656E61626C6520746876
:102A30006520616C61726D20746F20676F206F6616
:102A4000660A000020202020202020656E61626C34
:102A5000652063646F776E20202D2073746172741B
:102A60002074696D657220636F756E74646F776E24
:102A70000A00000064697361626C6500416C6172F8
:102A80006D2069732064697361626C65640A00007B
:102A900053746F7020636F756E74646F776E0A0085
:102AA00055736167653A2064697361626C65206182
:102AB0006C61726D20202D2064697361626C6520E9
:102AC00074686520616C61726D20746F20676F207F
:102AD0006F66660A0000000020202020202020646D
:102AE000697361626C652063646F776E20202D20AE
:102AF00073746F702074696D657220636F756E7486
:102B0000646F776E0A000000436F6D6D616E642024
:102B10006E6F7420666F756E642E20547970652018
:102B2000273F2720666F722068656C700A000000DE
:102B30002DE9FF410D4616461F4642A10098FDF7BC
:102B400041FE08B13A240BE03FA10098FDF73AFEA0
:102B500008B12D2404E04FF0FF3004B0BDE8F0814F
:102B6000002269460098FDF7F5FD2860009800787E
:102B7000A04207D1FDF754FC006800994978405CF9
:102B8000202802D04FF0FF30E7E700BF02E00098B6
:102B9000401C00900098007878B1009800780D28CB
:102BA0000BD0009800780A2807D0FDF739FC0068A0
:102BB00000990978405C2028E9D100BF00226946CD
:102BC0000098FDF7C7FD306000980078A04207D15B
:102BD000FDF726FC006800994978405C202802D067
:102BE0004FF0FF30B9E700BF02E00098401C0090B2
:102BF0000098007878B1009800780D280BD00098E4
:102C000000780A2807D0FDF70BFC006800990978C6
:102C1000405C2028E9D100BF002269460098FDF7FA
:102C200099FD38600098007850B1009800780D2820
:102C300006D0009800780A2802D04FF0FF308CE7C9
:102C400000208AE73A0000002D0000000346012022
:102C50009040984328B101209040884308B9012052
:102C600070470020FCE70000C4B00024FEF7B2FA71
:102C700000F01CFA40F2E77005210B220823CDE991
:102C80000021029000223B21A748FFF705F9A74841
:102C9000FEF7F4FFA64800F0A5FA04A9A248FFF742
:102CA000CBF804A8FEF74CFF3DE1FFF72DFAA14851
:102CB0000068B8B1A0490968481CC11700EB9171C0
:102CC0008910A0EB81019C4A116000209B4908609B
:102CD0009B490860084601689A4800F0B7FAFFF778
:102CE00067FA20E198480068D8B194480068A8B114
:102CF00093480068401C9249086008460168914862
:102D000000F0A4FA8E480068032807DD00208B49F4
:102D100008608B490860FFF74BFA04E100208A49FC
:102D200008608A48006878B18448006848B9012082
:102D3000824908608249086008460168814800F0BD
:102D400085FAFFF735FAEEE08148006808B1012402
:102D500004E08048006808B14FF0FF34764800680E
:102D600030B1012830D0022879D0032876D1A2E0F2
:102D70006D48FFF70DF87148006820B3744800688B
:102D800010B974480068F0B16D480068012804D09B
:102D9000022809D0032814D10DE0182221466248E8
:102DA000083000F0D9F80DE03C2221465E48001DB5
:102DB00000F0D2F806E03C2221465B4800F0CCF857
:102DC00000E000BF00BFA6E05748FEF777FF5B4872
:102DD000006878B35E48006810B95E48006848B380
:102DE00057480068012804D002280AD0032822D1BD
:102DF0000EE042F2107221464B48143000F0ACF85D
:102E00001AE00C2221464848103000F0A5F813E0E3
:102E10004548C068401E039043480169203050F87F
:102E20002120214603A800F097F80398401C3E4952
:102E3000C86001E010E000BF00BF3B4840693A496C
:102E40000969394AD268CDE9002102903648836881
:102E500042680168FFF720F85DE000E05AE033487F
:102E6000FEF784FE3548006820B33948006810B981
:102E700038480068F0B132480068012804D00228C0
:102E800009D0032814D10DE0182221462748083024
:102E900000F062F80DE03C2221462448001D00F0BD
:102EA0005BF806E03C222146204800F055F800E09F
:102EB00000BF00BF2FE01E4800F00EF91F48006859
:102EC00038B32348006810B92248006808B31C488A
:102ED0000068012804D0022809D0032817D10DE08A
:102EE0003C2221461248083000F036F810E03C221F
:102EF00021460F48001D00F02FF809E004EB840084
:102F000041004FF47A720A4800F026F800E000BF52
:102F100000BF00E000BF00BFFFF74AF94FF47A702E
:102F2000FDF766FF00BFC0E67C000020CC0000205B
:102F3000DC00002010000020000000200400002021
:102F4000080000200C0000201800002014000020C1
:102F50001C0000202000002030B503685C181444D9
:102F600094FBF2F502FB1543036030BD2DE9F041FF
:102F7000C0B004460E4617464FF0FF3500BF00E0D4
:102F8000641C207888B120780D280ED020780A287B
:102F90000BD020782028F3D020780928F0D0207892
:102FA0000D28EDD020780A28EAD000BF44E0D6F8FA
:102FB0000080002500E06D1C605D202810D0605D61
:102FC00009280DD0605D0D280AD0605D0A2807D061
:102FD000605D28B1605D0D2802D0605D0A28EAD1ED
:102FE00055B3681DFDF724FA47F8280057F8280064
:102FF0002A462146FDF772FC002057F82810485554
:103000003068401C30602C4400BF00E0641C207815
:1030100088B120780D280ED020780A280BD020788F
:103020002028F3D020780928F0D020780D28EDD082
:1030300020780A28EAD000BF15B130681028B6DD24
:10304000306810280FDD0BA168463268FDF746FA9C
:103050006846FEF775FD0AA0FEF772FD4FF0FF30DF
:1030600040B0BDE8F081306810B94FF0FF30F7E7AD
:103070000020F5E761726763203D2025640A0000A7
:10308000436F6D6D616E642070617273652065724F
:10309000726F723A20746F6F206D616E7920617269
:1030A00067756D656E74730A0000000000B5C1B0ED
:1030B0004FF48072074901A8FDF7B7FB01A8FEF79E
:1030C0003FFD01A8FEF73CFD01A8FEF739FD41B028
:1030D00000BD0000CC320000F0B589B00446802667
:1030E00000270A21206890FBF1F090FBF1F201FB30
:1030F000120001906421206890FBF1F002900A21F7
:10310000606890FBF1F201FB12000390606890FB95
:10311000F1F00490A06890FBF1F201FB1200059021
:10312000A06890FBF1F006900D2007900C2008900D
:10313000002527E0022D01D0042D01D1802000E0E0
:1031400000200746002206212220FDF7B7FF01A834
:1031500050F825000D49085C40EA070205212220AD
:10316000FDF7ACFF0A48007840F0030000EA0602D1
:1031700006212220FDF7A2FF4FF47A70FDF738FEFA
:103180006D1C7610082DD5DB09B0F0BD4C00002079
:103190000C00002010B50446207B18B104A0FEF7F7
:1031A000CFFC04E00AA0FEF7CBFC0120207310BD89
:1031B000436F756E74646F776E2068617320616C05
:1031C000726561647920737461727465640A0000C9
:1031D000537461727420636F756E74646F776E0AD6
:1031E0000000000000210173E92101600D21416010
:1031F000002181607047000010B504462068002857
:1032000005DA6068401E606040F2E7302060606868
:10321000002804DAA068401EA0603B206060A0681F
:10322000002807DA0020207320606060A06002A000
:10323000FEF786FC10BD00000A3E3E3E2054696D3C
:1032400065206973207570210A000000024610781D
:1032500031B1012906D002290AD0032914D10DE089
:10326000FF2013E080F00F00C3B243F0F0000DE048
:1032700080F03000C3B243F0CF0007E080F0C00020
:10328000C3B243F03F0001E0FF2000BF00BF107059
:103290007047000010B500290AD00878002807D030
:1032A00005487844FDF746FB002801D0002010BDFA
:1032B0000248784410BD00005E0700005607000079
:1032C0004FF04070E1EE100A7047000030313233A9
:1032D0003435363738390D0A000000000000000090
:1032E00000000000000000000000000000000000DE
:1032F00000000000000000000000000000000000CE
:1033000000000000000000000000000000000000BD
:1033100000000000000000000000000000000000AD
:10332000000000000000000000000000000000009D
:10333000000000000000000000000000000000008D
:10334000000000000000000000000000000000007D
:10335000000000000000000000000000000000006D
:10336000000000000000000000000000000000005D
:10337000000000000000000000000000000000004D
:10338000000000000000000000000000000000003D
:10339000000000000000000000000000000000002D
:1033A000000000000000000000000000000000001D
:1033B000000000000000000000000000000000000D
:1033C0000000000000000000000000001F000000DE
:1033D0001C0000001F0000001E0000001F00000075
:1033E0001E0000001F0000001F0000001E00000063
:1033F0001F0000001E0000001F00000000400040F1
:103400001000000000800540100000000050004047
:103410001100000000900540110000000060004015
:103420001200000000A005401200000000700040E3
:103430001300000000B005401300000000400240EF
:103440001400000000C005401400000000500240BD
:103450002E00000000D005402E0000000060024059
:103460002F00000000E005402F0000000070024027
:103470003000000000F005403000000000D00340A4
:103480004600000000000640460000000010064014
:1034900047000000002006404800000000300640C1
:1034A0007F00000000400640800000000050064001
:1034B00084000000006006408C00000000400040D6
:1034C0001000000000800540100000000050004087
:1034D0001100000000900540110000000060004055
:1034E0001200000000A00540120000000070004023
:1034F0001300000000B0054013000000004002402F
:103500001400000000C005401400000000500240FC
:103510002E00000000D005402E0000000060024098
:103520002F00000000E005402F0000000070024066
:103530003000000000F005403000000000D00340E3
:103540004300000000000640430000000010064059
:103550004400000000200640450000000030064006
:10356000580000000040064059000000005006408E
:103570005C0000000060064064000000007006402F
:103580006C000000008006406D00000000900640C6
:103590007F000000004000400080054000500040D7
:1035A000009005400060004000A005400070004011
:1035B00000B005400040024000C0054000500240FD
:1035C00000D005400060024000E00540007002406D
:1035D00000F0054000D00340000006400010064007
:1035E0000010064000200640002006400030064043
:1035F00000300640004006400040064000500640B3
:103600000050064000600640006006400070064022
:103610000070064000800640008006400090064092
:1036200000900640000700000006000000050000B2
:103630000004000000030000000200000001000080
:10364000000000000000000018ED00E01CED00E0AC
:1036500020ED00E000E400E004E400E008E400E025
:103660000CE400E010E400E014E400E018E400E002
:103670001CE400E020E400E024E400E028E400E0B2
:103680002CE400E030E400E034E400E038E400E062
:103690003CE400E040E400E044E400E048E400E012
:1036A0004CE400E050E400E054E400E058E400E0C2
:1036B0005CE400E060E400E064E400E068E400E072
:1036C0006CE400E070E400E074E400E078E400E022
:1036D0007CE400E080E400E084E400E088E400E0D2
:1036E00000E100E004E100E008E100E00CE100E0BE
:1036F00010E100E080E100E084E100E088E100E02A
:103700008CE100E090E100E000E200E004E200E093
:1037100008E200E00CE200E010E200E080E200E0FD
:1037200084E200E088E200E08CE200E090E200E069
:1037300000688909001C4E0E40420F0000201C004A
:1037400080841E0000802500999E360000403800CD
:1037500000093D0000803E0000004B00404B4C0043
:1037600000204E00808D5B0000C05D000080700076
:1037700000127A0000007D0080969800001BB700C0
:103780000080BB00C0E8CE00647ADA000024F400B8
:103790000000FA0080A81201002D310100366E01F0
:1037A00040787D01400000000000000000010000A2
:1037B0003E0008000000000000010000A000000022
:1037C000020000000001000034540100000000006D
:1037D000000100002B700600000000000001000046
:1037E0002800000000000000000100002700010088
:1037F00000000000000100002000000000000000A8
:103800000001000050000000020000000001000064
:103810001AAC00000000000000010000179409002D
:1038200000000000000100001698050000000000E4
:103830000001000014000000000000000001000072
:10384000138008000000000000010000A00000003C
:10385000080000000001000010000000000000004F
:10386000000100002800000002000000000100002C
:1038700040000000040000000001000060000000A3
:1038800000000000000100005D000C0000000000CE
:1038900000010000500000000000000000010000D6
:1038A0004E000200000000000001000041AC0100D9
:1038B00000000000000100003C00000000000000CB
:1038C000000100003A800900000000000001000033
:1038D000300000000000000000010000280000008F
:1038E00000000000000100002700010000000000AF
:1038F000000100002360060000000000000100003D
:103900002160080000000000000100001E0000000F
:1039100000000000000100001DC0040000000000C5
:103920000001000050000000020000000001000043
:10393000180000000000000000010000140000005A
:103940000000000000010000600000000400000012
:10395000000100000024F40030003000005A620230
:103960009100910000879303D200D20000B4C404F8
:103970001301130100E1F50554015401000E27075E
:1039800095019501040000080000000000000002FD
:10399000000100001000000009696E697420636C6A
:1039A0006F636B202020202020202020202020203A
:1039B000202020202020202020203A20696E7469B9
:1039C000616C697A652074686520636C6F636B2035
:1039D000746F2030303A30303A30300A0000000046
:1039E000103B0000000000207C0000003C020000B2
:1039F0008C3B00007C0000201403010058020000F2
:103A00001001000043000000F8FFFFFF00404040AD
:103A100040404040404041414141414040404040A1
:103A2000404040404040404040404040400502024D
:103A3000020202020202020202020202022020200C
:103A40002020202020202002020202020202909068
:103A50009090909010101010101010101010101066
:103A600010101010101010100202020202028888BA
:103A700088888888080808080808080808080808C6
:103A800008080808080808080202020240000000AE
:103A90000000000000000000000000000000000026
:103AA0000000000000000000000000000000000016
:103AB0000000000000000000000000000000000006
:103AC00000000000000000000000000000000000F6
:103AD00000000000000000000000000000000000E6
:103AE00000000000000000000000000000000000D6
:103AF00000000000000000000000000000000000C6
:103B000000000000000000000000000000000000B5
:103B1000000000000000000000000000FF000000A6
:103B20000000000000000000000000000000000095
:103B30000000000000000000000000000000000085
:103B400000000000FFFF0000000000000000000077
:103B50000000000000000000000000003F065B4F76
:103B6000666D7D077F6F777C585E79715C00000021
:103B70000000000000000000000000000000000045
:0C3B800000000000000000000024F40021
:0400000500000201F4
:00000001FF
